:020000040800F2
:1000000050050024B1020008E33000083B2F00082F
:10001000E1300008E9030008993C000800000000F6
:10002000000000000000000000000000293300086C
:10003000EB03000800000000E53000082B33000847
:10004000CB020008CB020008CB020008CB0200085C
:10005000CB020008CB020008CB020008CB0200084C
:10006000CB020008CB020008CB020008CB0200083C
:10007000CB020008CB020008CB020008CB0200082C
:10008000CB020008CB020008CB020008CB0200081C
:10009000CB020008CB020008CB020008CB0200080C
:1000A000CB020008CB020008CB020008CB020008FC
:1000B000CB020008E9340008CB020008CB0200089C
:1000C000CB020008CB020008CB020008CB020008DC
:1000D000CB0200088D3C0008CB020008CB020008D0
:1000E000CB020008CB02000800000000CB02000891
:1000F000CB020008CB020008CB020008CB020008AC
:10010000CB020008CB020008CB020008CB0200089B
:10011000CB020008CB020008CB020008F53400082F
:10012000CB020008CB020008CB020008CB0200087B
:10013000CB020008CB020008CB020008CB0200086B
:1001400000000000000000000000000000000000AF
:10015000CB020008CB020008CB020008CB0200084B
:10016000CB020008CB020008CB020008CB0200083B
:10017000CB020008CB020008CB020008CB0200082B
:10018000CB020008CB020008CB020008CB0200081B
:10019000CB020008CB020008CB020008CB0200080B
:1001A000CB020008CB020008CB020008CB020008FB
:1001B000CB020008CB020008CB020008CB020008EB
:1001C000CB020008CB020008CB020008CB020008DB
:1001D000CB020008CB020008CB020008CB020008CB
:1001E000CB020008CB020008CB020008CB020008BB
:1001F000CB020008CB020008CB020008CB020008AB
:10020000CB020008CB020008CB020008CB0200089A
:10021000CB020008CB020008CB020008CB0200088A
:10022000CB020008CB020008CB020008000000004F
:10023000CB020008CB02000800000000CB0200083F
:10024000CB020008CB020008CB020008CB0200085A
:10025000CB020008CB020008CB020008CB0200084A
:10026000CB020008CB020008CB020008CB0200083A
:10027000CB020008CB020008CB02000800000000FF
:10028000CB020008CB020008CB02000800000000EF
:1002900000000000CB020008DFF810D000F092F858
:1002A000004800479D3E0008AFF300805005002441
:1002B0000648804706480047FEE7FEE7FEE7FEE700
:1002C000FEE7FEE7FEE7FEE7FEE7FEE70D34000887
:1002D000990200082DE9F05F0546002092469B46F2
:1002E00088460646814640241BE02846414647464C
:1002F000224600F057F853465A46C01A914110D38F
:1003000011461846224600F03EF82D1A67EB010808
:100310004F4622460120002100F035F817EB000976
:100320004E41201EA4F10104DFDC484631462A4636
:100330004346BDE8F09FD2B201E000F8012B491E10
:10034000FBD270470022F6E710B513460A46044672
:100350001946FFF7F0FF204610BD30B50B460146A9
:1003600000202022012409E021FA02F59D4205D354
:1003700003FA02F5491B04FA02F52844151EA2F1FE
:100380000102F1DC30BD202A04DB203A00FA02F140
:10039000002070479140C2F1200320FA03F3194373
:1003A00090407047202A04DB203A21FA02F0002115
:1003B000704721FA02F3D040C2F120029140084375
:1003C00019467047064C074D06E0E06840F001030F
:1003D00094E8070098471034AC42F6D3FFF760FF6B
:1003E000243F0008443F0008FEE7704772B6FEE76E
:1003F0002DE9F84F044600F021FC00903CB194F840
:100400003500022806D0802161650020E4E001204B
:10041000BDE8F88FC74DC74EC6491835206830363D
:10042000DFF81483DFF814938842DFF814A3DFF8B1
:1004300014B32ED0A8422CD0B0422AD0404528D0A8
:10044000484526D0504524D0584522D0BD4A1832C0
:1004500090421ED0BC4A90421BD0BB4A18329042F8
:1004600017D0B94A3032904213D0B74A483290423E
:100470000FD0B54A603290420BD0B34A78329042E6
:1004800007D0B14A9032904203D0AF4AA83290428E
:1004900009D1026822F01E0202602068426922F03F
:1004A0008002426103E0026822F00E0202602768C7
:1004B0008F4238464DD0A8424BD0B04249D040453B
:1004C00047D0484545D0504543D0584541D09D4A36
:1004D000183290423DD09C4A90423AD09A4A183203
:1004E000904236D0984A3032904232D0964A4832C2
:1004F00090422ED0944A603290422AD0924A78326A
:10050000904226D0904A9032904222D08E4AA83211
:1005100090421ED08D4A90421BD08C4A1432904299
:1005200017D08A4A2832904213D0884A3C329042EF
:100530000FD0864A503290420BD0844A64329042A7
:1005400007D0824A7832904203D0804A8C32974258
:1005500004D1206E026822F480720260754920681E
:10056000884228D0A84226D0B04224D0404522D08C
:10057000484520D050451ED058451CD071491831EF
:10058000884218D07049884215D06F491831884286
:1005900011D06D49303188420DD06B4948318842C5
:1005A00009D069496031884205D06749783188426D
:1005B00001D065499031016821F0010101600EE030
:1005C00000F03CFB0099401A052808D920226265FA
:1005D0000321002084F8351084F8340017E73868C8
:1005E000C007EDD1534A0121206890422ED0A84285
:1005F0002CD0B0422AD0404528D0484526D050457E
:1006000024D0584522D04F4B183398421ED04E4B21
:1006100098421BD04C4B1833984217D04A4B30337A
:10062000984213D0484B483398420FD0464B603322
:1006300098420BD0444B7833984207D0424B9033CA
:10064000984203D0404BA833984208D194F85C708C
:100650003F23A06D07F01F07BB40836007E094F8BD
:100660005C30A06D03F01F0301FA03F343602068C0
:1006700090424DD0A8424BD0B04249D0404547D0DF
:10068000484545D0504543D0584541D02D4A1832B1
:1006900090423DD02C4A90423AD02B4A1832904298
:1006A00036D0294A3032904232D0274A48329042DE
:1006B0002ED0254A603290422AD0234A7832904286
:1006C00026D0214A9032904222D01F4AA83290422E
:1006D0001ED01E4A90421BD01C4A1432904217D0A2
:1006E0001A4A2832904213D0184A3C3290420FD016
:1006F000164A503290420BD0144A6432904207D0CE
:10070000124A7832904203D0104A8C3290420BD178
:10071000D4E919024260E06E30B1026822F48072BE
:100720000260D4E91C024260002084F8351084F88D
:1007300034006DE610000240580002407000024094
:1007400088000240A00002401004024008540258F1
:100750002DE9F05F28B190F83510022904D08021EE
:1007600041650120BDE8F09F904C904B0168183C1A
:1007700018338E4ADFF83C92A1428D4CDFF838E204
:100780008E4FDFF83CB2DFF83CA28F4D8F4E31D058
:1007900091422FD099422DD0A1422BD0494529D04A
:1007A000714527D0B94225D0DFF810C20CF1180CE2
:1007B00061451FD0DFF808C2ACF1600C614519D06B
:1007C000DFF8FCC1ACF1480C614513D0DFF8F0C193
:1007D000ACF1300C61450DD0DFF8E4C1ACF1180C80
:1007E000614507D0594505D0514503D0A94201D0F4
:1007F000B1422CD1DFF8B4C14FF0040880F8358045
:10080000ACF1180C61451DD091421BD0994219D012
:10081000A14217D0494515D0714513D0B94211D026
:100820006648183081420DD065486038814209D051
:1008300063484838814205D061483038814201D050
:100840005F481838086820F001000860ABE0D1F874
:1008500000C02CF00E08DFF854C1C1F80080ACF1E4
:10086000180C0168614527D0914225D0994223D0C8
:10087000A14221D049451FD071451DD0B9421BD09E
:10088000DFF838C10CF1180C614515D0DFF830C124
:10089000ACF1600C61450FD0DFF824C1ACF1480C1D
:1008A000614509D0DFF818C1ACF1300C614503D0C7
:1008B000DFF80CC1ACF1180CD1F800C02CF0010C21
:1008C000C1F800C0DFF8E4804FF0010C0168A8F126
:1008D0001808414546D0914244D0994242D0A142A5
:1008E00040D049453ED071453CD0B9423AD0334A18
:1008F0001832914236D0324A603A914232D0304A70
:10090000483A91422ED02E4A303A91422AD02C4A6F
:10091000183A914226D0594524D0514522D0A942B7
:1009200020D0B1421ED02A4A91421BD0284A14320C
:10093000914217D0264A2832914213D0244A3C32A1
:1009400091420FD0224A503291420BD0204A643259
:10095000914207D01E4A7832914203D01C4A8C3211
:10096000914218D1016E0A6822F480720A6090F8F0
:100970005C20816D02F01F020CFA02F24A60D0E99D
:1009800019124A60C16E31B10A6822F480720A609D
:10099000D0E91C124A600022016D80F835C080F851
:1009A000342001B188470020DCE600002800024026
:1009B000580002407000024088000240A00002403F
:1009C0007004024088040240A0040240B8040240BF
:1009D0000854025870B5044600F030F90546601C12
:1009E00002D004480078044400F028F9401BA042DB
:1009F000FAD370BD0C0000242DE9F84F03247D4D7F
:100A000000234FF001094FF0B04B4FF00F0AE9E01F
:100A100009FA03F73A4076D00E7906F00306012E64
:100A200001D0022E18D1D0F808C04FEA430ECE688C
:100A300004FA0EF82CEA080C06FA0EF646EA0C0642
:100A40008660D0F804C00E792CEA070CC6F30016B5
:100A50009E4046EA0C0646600E79F643B6070BD078
:100A6000C6684FEA43088F6804FA08FC26EA0C06B9
:100A700007FA08F73743C7600E7906F00306022E1F
:100A800012D1DE080F694FEA437C00EB8606B646BA
:100A9000366A4FEADC6C0AFA0CF807FA0CF726EA19
:100AA00008063743CEF820700F7906684FEA4308EE
:100AB00007F0030704FA08FC07FA08F726EA0C0611
:100AC000374307604E6816F4403F1CD04A4E3768E3
:100AD00047F00207376036689F0706F00206009667
:100AE00023F0030606F1B046B6463F0FD6F8086479
:100AF000DFF808810AFA07FC404526EA0C0603D114
:100B00004FF0000C41E06CE0DFF8F4C0604502D12A
:100B10004FF0010C39E0DFF8ECC0604502D14FF036
:100B2000020C32E0DFF8E0C0604502D14FF0030C68
:100B30002BE0DFF8D8C0604502D14FF0040C24E070
:100B4000DFF8CCC0604502D14FF0050C1DE0DFF8A6
:100B5000C4C0604502D14FF0060C16E0DFF8B8C003
:100B6000604502D14FF0070C0FE0DFF8B0C06045E0
:100B700002D14FF0080C08E0DFF8A4C0604502D1B4
:100B80004FF0090C01E04FF00A0C0CFA07FC4CEA9C
:100B9000060CCEF808C44F68DBF80060FF0226EAB6
:100BA000020600D516435F46CBF80060D1F804C0BA
:100BB000DBF804605FEA8C2C26EA020600D51643B7
:100BC0007E606E684F6826EA0206BF0300D51643B2
:100BD0006E602E684F6826EA0206FF0300D51643B2
:100BE0002E605B1C0A6832FA03F67FF411AFBDE891
:100BF000F88F000080000058F444025800000258AA
:100C00000004025800080258000C02580010025854
:100C10000014025800180258001C02580020025804
:100C2000002402580AB1816170470904FBE7000003
:100C300001480068000C70470010005C01488068A3
:100C4000704700000C0000240248816802781144BB
:100C5000816070470C000024032010B500F086F876
:100C600001F060F80F4A104914681368C4F30322B6
:100C700003F00F038A5CC95C02F01F0201F01F0140
:100C8000D0400A4A20FA01F11160094908600F209A
:100C900000F010F808B1012010BD00F02BF8002082
:100CA00010BD000018440258143F00081C00002426
:100CB0001800002470B50D4D04462878A0B14FF4FB
:100CC0007A71B1FBF0F00A490968B1FBF0F001F06C
:100CD00086FB48B9102C07D200222146501E00F096
:100CE00025F800206C6070BD012070BD0C00002450
:100CF00018000024054808B5016841F002010160B0
:100D0000006800F00200009008BD0000F4440258A2
:100D1000002809DB410900F01F028900012001F1D0
:100D2000E0219040C1F80001704700000E4BF0B484
:100D30001B680D46C3F30223C3F10706042E00D936
:100D40000426191D072901D2002300E0DB1E01241F
:100D500004FA06F19C40491E2940641E9940144043
:100D60002143F0BC02F0AABF0CED00E0064900F000
:100D7000070210B54FF6FF040868044B204040EA14
:100D800002201843086010BD0CED00E00000FA05D9
:100D9000134970B50A68D243520705D5096801F0B6
:100DA0000701814213D118E00A6822F007020243CA
:100DB0000A60FFF743FF0A4D4FF47A760446083D78
:100DC00007E000BFFFF73AFF001BB04201D9012046
:100DD00070BD2868C0438004F4D4002070BD0000BA
:100DE0000C48025810B500F057FF05490968054A3C
:100DF000C1F30211515C01F01F01C84010BD000099
:100E000020440258143F0008494930B5484C0B1D96
:100E10000A68143409681D68246802F00303C5F3E6
:100E20000012C1F30531C4F3CC04002914FB02F213
:100E300000EE102AF8EE400A75D03F4A9FED3D1AA9
:100E4000B7EE000A6BB1DFED3D1A012B01D0022B8A
:100E500064D002EE101A1168F8EE422A81EEA22A3E
:100E600021E0334C283C23689B0612D5344B246880
:100E700001EE901A1168C4F3C104F8EE612AE34050
:100E800001EE903AC1F30801F8EE611A81EEA22A50
:100E90000BE001EE901ADFED2B2A00BFF8EE611A8D
:100EA000116882EEA12AC1F3080101EE901A1168BF
:100EB000F8EE611A40EE811A71EE800A62EE200AA5
:100EC000C1F3462101EE101AB8EE411A31EE001AB4
:100ED000C0EE811ABCEEE11A80ED001A1168C1F370
:100EE000064101EE101AB8EE411A31EE001AC0EEBA
:100EF000811ABCEEE11A80ED011A1168C1F3066196
:100F000001EE101AB8EE411A31EE000A80EE801A96
:100F1000BCEEC10A80ED020A30BD04E001EE901A79
:100F2000DFED092ABAE70021016041608160F3E743
:100F30002844025800000039384402580024744AFA
:100F40000090D0030024744C20BCBE4B494930B5FE
:100F5000484C0B1D0A681C3409681D68246802F09F
:100F60000303C5F30022C1F30551C4F3CC040029E7
:100F700014FB02F200EE102AF8EE400A75D03F4A48
:100F80009FED3D1AB7EE000A6BB1DFED3D1A012B64
:100F900001D0022B64D002EE101A1168F8EE422A3A
:100FA00081EEA22A21E0334C283C23689B0612D50F
:100FB000344B246801EE901A1168C4F3C104F8EEB2
:100FC000612AE34001EE903AC1F30801F8EE611A9C
:100FD00081EEA22A0BE001EE901ADFED2B2A00BF72
:100FE000F8EE611A116882EEA12AC1F3080101EE40
:100FF000901A1168F8EE611A40EE811A71EE800ABB
:1010000062EE200AC1F3462101EE101AB8EE411A31
:1010100031EE001AC0EE811ABCEEE11A80ED001A22
:101020001168C1F3064101EE101AB8EE411A31EE13
:10103000001AC0EE811ABCEEE11A80ED011A1168A7
:10104000C1F3066101EE101AB8EE411A31EE000A42
:1010500080EE801ABCEEC10A80ED020A30BD04E0C9
:1010600001EE901ADFED092ABAE700210160416024
:101070008160F3E7284402580000003940440258D8
:101080000024744A0090D0030024744C20BCBE4B52
:101090002DE9FE4F0546DFF8E48350F8081B0024D5
:1010A000F64FC943019005F12800264608F12408AF
:1010B000009008011DD4A86E50B1B0F5801F0CD06F
:1010C000B0F5001F0ED0B0F5401F1ED001240FE078
:1010D000386840F40030386017E00198022102F0CF
:1010E00003F803E00098022102F08EF804000CD00F
:1010F00026462888C043C00523D4A86D05281ED2E3
:10110000DFE800F00C11161B1B00AA6ED8F80010C7
:1011100021F440111143C8F80010EAE7386840F4A0
:101120000030386009E00198002101F0DDFF03E0A4
:101130000098002102F068F8044674B100E0012430
:1011400026462888C043800528D4E86D80281ED014
:101150000CDC90B140280ED114E0AA6DD8F8001034
:1011600021F007011143C8F80010EAE7C02813D0A6
:10117000B0F5807F10D001240FE0386840F40030D3
:10118000386009E00198002101F0AEFF03E000980B
:10119000002102F039F804469CB126462888DFF881
:1011A000DC92C04309F12C0940052CD4D5F8A800E5
:1011B000B0F5800F20D00DDCA0B1B0F5001F0FD12D
:1011C00015E0EA6DD8F8001021F4E0711143C8F879
:1011D0000010E3E7B0F5C00F13D0B0F5000F10D04A
:1011E00001240FE0386840F40030386009E00198CD
:1011F000002101F079FF03E00098002102F004F8DB
:1012000004467CB126462888C04300052DD4D5F875
:10121000AC00B0F1007F21D00EDCA8B1B0F1807F2E
:1012200010D116E0D5F8A820D9F8001021F46001FB
:101230001143C9F80010E6E7B0F1407F13D0B0F1D8
:10124000806F10D001240FE0386840F4003038601F
:1012500009E00198002101F047FF03E00098002118
:1012600001F0D2FF044674B126462868C0438001CD
:101270001FD4E86CD8B110280FD0202812D0302805
:1012800015D0012414E0D5F8AC20D9F8001021F0D5
:10129000E0611143C9F80010E7E7386840F4003016
:1012A000386004E00198022101F01EFF044674B189
:1012B00026462888C043C0042BD4286EB0F5005FB2
:1012C00020D00DDCA0B1B0F5805F0FD115E06B48E8
:1012D000EA6C2030016821F0300111430160E8E739
:1012E000B0F5405F13D0B0F5804F10D001240FE06F
:1012F000386840F40030386009E00198002101F0BE
:10130000F3FE03E00098002101F07EFF04468CB15B
:1013100026462888C043800429D4686EB0F5403F33
:1013200023D010DC08B3B0F5803F14D0B0F5003FF7
:101330000FD115E02A6ED8F8001021F4E0411143D6
:10134000C8F80010E5E7B0F5802F0ED0B0F5A02F5B
:101350000BD001240AE00198012101F0C5FE03E051
:101360000098012101F050FF044694B126462888D8
:10137000C04340042AD4D5F8B000B0F1405F23D078
:1013800010DC08B3B0F1805F14D0B0F1005F0FD172
:1013900015E06A6ED8F8001021F4E0211143C8F876
:1013A0000010E4E7B0F1804F0ED0B0F1A04F0BD0A9
:1013B00001240AE00198012101F096FE03E0009863
:1013C000012101F021FF044674B126462888C0435C
:1013D00000041FD4286FD8B1B0F1805F0ED0B0F1F7
:1013E000005F10D0012414E0D5F8B020D9F8001027
:1013F00021F0E0411143C9F80010E7E7386840F4F4
:101400000030386004E00198012101F06DFE0446CF
:1014100074B126462868C043C0011ED4A86CD0B160
:1014200001280ED0022811D0032814D0012413E083
:101430002A6FD8F8001021F040511143C8F800106D
:10144000E8E7386840F40030386004E00198022191
:1014500001F04AFE0446ACB126462868DFF81CB00D
:10146000C043ABF11C0B400252D40548016841F463
:1014700080710160FFF7E2FB824611E02C440258C4
:1014800000480258FA48AA6C016821F00301114390
:101490000160E2E7FFF7D2FBA0EB0A00642835D831
:1014A000F4480068C005F5D58CBBDFF8C4A3B5F8D7
:1014B000B4100AF1240ADAF8000001F4407100F4D3
:1014C0004070884211D0DAF80010DAF8002021F4D8
:1014D000407142F48032CAF80020DAF8002022F489
:1014E0008032CAF80020CAF80010D5F8B400B0F570
:1014F000807F1AD1FFF7A2FB029012E0FFF79EFB5C
:101500000299411A41F2883081420AD903242646C1
:101510002878DFF85CA3C0430AF1080AC00721D08D
:101520003CE0DAF800008007E8D5D5F8B410C1F344
:101530000120032858460DD0016821F47C51016038
:10154000B5F8B420DAF80010C2F30B021143CAF860
:101550000010DDE7C84A036802EA111223F47C5147
:101560001143ECE7E86F182816D005DCA0B1082875
:1015700008D0102804D10AE020280DD028280BD04C
:1015800001240AE00198012101F0AEFD03E000987A
:10159000012101F039FE044664B126462878C04393
:1015A00080071ED4A86F062819D2DFE800F0160CB9
:1015B00011161616EA6FDAF8001021F038011143FF
:1015C000CAF80010EAE70198012101F08DFD03E05F
:1015D0000098012101F018FE04467CB100E00124CE
:1015E00026462878C04340071FD4D5F89400062823
:1015F00019D2DFE800F0160C11161616AA6FDAF8E9
:10160000001021F007011143CAF80010E9E7019822
:10161000012101F069FD03E00098012101F0F4FDD2
:101620000446A4B100E0012426462878C043800681
:101630002BD4D5F89000B0F1405F24D011DC10B36A
:10164000B0F1805F15D0B0F1005F10D116E0D5F891
:101650009420D9F8001021F007011143C9F80010B7
:10166000E3E7B0F1804F0ED0B0F1A04F0BD00124D2
:101670000AE00198002101F037FD03E00098022103
:1016800001F0C2FD044694B126462878C0434006C6
:101690002BD4D5F89C00B0F5406F24D011DC10B3EA
:1016A000B0F5806F15D0B0F5006F10D116E0D5F809
:1016B0009020DAF8001021F0E0411143CAF8001040
:1016C000E3E7B0F5805F0ED0B0F5A05F0BD001244A
:1016D0000AE00198002101F007FD03E000980221D3
:1016E00001F092FD044694B126462878C0430006D6
:1016F0002BD4D5F8A000B0F5C04F24D011DC10B326
:10170000B0F5005F15D0B0F5804F10D116E0D5F8D8
:101710009C20D9F8001021F4E0511143C9F80010C1
:10172000E3E7B0F5004F0ED0B0F5204F0BD0012409
:101730000AE00198002101F0D7FC03E000980221A3
:1017400001F062FD044654B126462878C0430007E4
:101750001ED4D5F88400B0F5805F0AD00FE0D5F82C
:10176000A020D9F8001021F460411143C9F80010FD
:10177000EBE70098022101F047FD00B10126D5F802
:101780008420DAF8001021F440511143CAF8001007
:101790002878C043C00613D4D5F89800B0F5807FF0
:1017A00005D10098022101F02FFD00B10126D5F8E6
:1017B0009820D9F8001021F440711143C9F80010A5
:1017C0002868C043000316D4D5F8A40038B1B0F59A
:1017D000803F09D0B0F5003F0BD001240AE001980A
:1017E000002101F081FC03E00098022101F00CFDD2
:1017F00004468CB126462868C043400322D4D5F85D
:101800008800B0F5801F11D0B0F5001F13D0B0F5DF
:10181000401F15D0012414E0D5F8A420D9F80010F9
:1018200021F440311143C9F80010E4E7386840F46E
:101830000030386004E00098012101F0E5FC044626
:101840005CB126462868C043C00323D4286DA8B1E4
:10185000B0F5803F17D001241BE0D5F88820DAF8D6
:10186000001021F440111143CAF80010EAE700000B
:101870004C44025800480258CFFFFF00386840F43B
:101880000030386004E00198022101F02DFC04468C
:10189000E4B126462868C043800005D400980221A0
:1018A00001F0B2FC00B101262868C04380031BD4BC
:1018B000D5F88000B0B1B0F5807F0FD0B0F5007FD3
:1018C00010D0B0F5407F0DD001240CE05A482A6DAD
:1018D000016821F4803111430160DBE7386840F48E
:1018E00000303860ECB326462868C043C00207D4F5
:1018F0006A6FD8F8001021F000411143C8F80010B9
:101900002868C043C00008D4D5F8B820DBF8001020
:1019100021F480411143CBF800102868C0438002B5
:1019200007D4EA6ED8F8001021F080711143C8F88E
:1019300000102868C04340000CD4DBF8001021F4EC
:101940000041CBF80010DBF80010D5F8BC201143A3
:10195000CBF800102868C04308D437486A6D016886
:1019600000E018E021F04051114301602868C043B5
:10197000000208D4D5F88C20DAF8001021F44001D8
:101980001143CAF8001028790024C04300F0010078
:1019900020430AD00FE0D5F88020DAF8001021F4B7
:1019A00040711143CAF800109EE70198002101F030
:1019B0009BFB00B106462879C04300F0020020439B
:1019C00005D10198012101F08FFB00B1064628796D
:1019D000C04300F00400204305D10198022101F02A
:1019E00083FB00B106462879C04300F0080020437D
:1019F00005D10098002101F007FC00B106462879C6
:101A0000C04300F01000204305D10098012101F0EF
:101A1000FBFB00B106462879C04300F020000443D8
:101A200004D10098022101F0EFFB00B916B10120AA
:101A3000BDE8FE8F0020FBE74C4402582DE9F05F23
:101A400004000F467ED0DFF83882D8F8000000F09E
:101A50000F00B8420CD2D8F8001021F00F01394322
:101A6000C8F80010D8F8000000F00F00B84269D1A3
:101A70002078844D40070AD52069296801F070015B
:101A8000884204D9296821F0700101432960207837
:101A90007C4E361D00070AD56069316801F070017F
:101AA000884204D9316821F0700101433160207807
:101AB000C0060AD5A069316801F4E061884204D902
:101AC000316821F4E061014331602078DFF8B4B17E
:101AD00080060BF1080B0CD5E1695846DBF80020B5
:101AE00002F07002914204D9026822F070020A43A7
:101AF0000260207880070AD5E068296801F00F01AC
:101B0000884204D9296821F00F0101432960207817
:101B1000C0073ED05B49A2682868183920F470607D
:101B2000104328606068022818D0032819D009687B
:101B3000012819D0490700294ADADFF848A1AAF19B
:101B4000080A00E044E0DAF8002022F0070202432D
:101B5000CAF80020FFF772F8814612E0096889038D
:101B6000E9E709688901E6E7C905E4E7FFF766F8F0
:101B7000A0EB090141F28830814202D90320BDE87F
:101B8000F09F6168DAF8000000F03800B0EBC10F98
:101B9000ECD1207880070AD5E068296801F00F01B0
:101BA000884204D2296821F00F0101432960D8F846
:101BB0000010404601F00F01B9420BD9016821F035
:101BC0000F0139430160006800F00F00B84201D0F6
:101BD0000120D4E7207840070AD52069296801F060
:101BE0007001884204D2296821F070010143296004
:101BF000207800070AD56069316801F070018842D9
:101C000004D2316821F07001014331602078C006B0
:101C10000AD5A069316801F4E061884204D23168D4
:101C200021F4E06101433160207880060CD5E16940
:101C30005846DBF8002002F07002914204D202689C
:101C400022F070020A43026000F06CF80E492A6824
:101C50002B68C2F3032203F00F038A5CC95C02F015
:101C60001F0201F01F01D040084A20FA01F1116063
:101C70000749086007480068BDE8F05FFFF71AB839
:101C80000020005218440258143F00081C00002491
:101C9000180000241000002430B500F043F80B4A6F
:101CA0000B490C4B15681468C5F3032204F00F04AC
:101CB0008A5C095D02F01F0201F01F01D040064A54
:101CC00020FA01F119601060084630BD184402582E
:101CD000143F00081C0000241800002400B5FFF782
:101CE000DBFF05490968054AC1F30211515C01F0A7
:101CF0001F01C84000BD00001C440258143F0008EA
:101D000000B5FFF7C9FF05490968054AC1F302217B
:101D1000515C01F01F01C84000BD00001C44025886
:101D2000143F0008454970B545480968434B103BCE
:101D300011F0380208D00111082A03D0102A0BD064
:101D4000182A0BD0084670BD19688906FBD519689A
:101D5000C1F3C101C84070BD3A4870BD3749374D25
:101D600018310C1D24350A68096826682D6802F0B0
:101D7000030406F00102C1F30511C5F3CC0515FB00
:101D800002F200EE102AB8EE400AE9B32F4ADFED66
:101D90002E0AB7EE001A6CB1DFED2D1A012C01D01E
:101DA000022C43D002EE101A1068F8EE422A81EE9F
:101DB000A22A1EE01C68A40611D51B6801EE901A29
:101DC0001168C3F3C103F8EE612AD84001EE900A0E
:101DD000C1F30800F8EE611A81EEA22A0BE001EED1
:101DE000901ADFED1C2A00BFF8EE611A106882EE2F
:101DF000A12AC0F3080001EE900AF8EE611A40EE45
:101E0000201A31EE810A00E015E022EE000A106887
:101E1000C0F34620401C00EE900AF8EE600A80EE07
:101E2000201ABCEEC10A10EE100A70BD01EE901A25
:101E3000DFED092AD8E7002070BD000010440258E9
:101E40000090D00340787D010000003930440258F2
:101E50000024744A0024744C20BCBE4B2DE9F05F72
:101E600004007DD0FF4F2078FE4D1837DFF8F49343
:101E7000103DC00748D0D9F80000396800F038009C
:101E8000102815D0182803D101F0030002280FD024
:101E90006068B0F5803F12D010B1B0F5A02F18D017
:101EA000286820F480302860286820F4802009E029
:101EB0002868800328D560680028D2D024E02868EC
:101EC00040F480302860606888B1FEF7B7FE0646AF
:101ED00009E0286840F480202860F0E7FEF7AEFEB5
:101EE000801B64286FD828688003F7D50CE0FEF7C4
:101EF000A5FE064605E000BFFEF7A0FE801B642895
:101F0000F0D828688003F7D4207841F20308D54E32
:101F10000C3E800769D5D9F80000396810F0380008
:101F20000ED0182801D188070AD0E06890B329683C
:101F300021F0190101432960FEF780FE824631E05D
:101F40002868400702D5E06800288AD0E168286840
:101F500020F0190008432860FEF770FE824607E073
:101F6000DFE000BFFEF76AFEA0EB0A000228B9D846
:101F700028684007F6D500BFFEF75AFE40451BD83B
:101F80002069402812D0316821F47C3141EA0030C8
:101F900030602AE018E000BFFEF750FEA0EB0A0018
:101FA00002289FD828684007F6D5E5E7306820F476
:101FB0007C3040F40030EBE7207C316821F0FE41BA
:101FC00041EA0060E4E70DE1286820F001002860A4
:101FD000FEF734FE824605E0FEF730FEA0EB0A0075
:101FE00002288DD828684007F6D42078C0065DD531
:101FF000D9F80000DFF86CB2396800F03800ABF1B6
:10200000040B082810D0182803D101F00300012880
:102010000AD0E0690028286838D040F080002860A5
:10202000FEF70CFE824623E02868C00523D5E06950
:10203000802876D11FE0206A202821D0316821F045
:10204000F84141EA8060306030E000BF94F8201031
:10205000DBF8002022F07C5242EA0161CBF800104C
:1020600024E000BFFEF7EAFDA0EB0A00022898D8A2
:102070002868C005F6D5FEF7DBFD4045E6D8DAE76F
:10208000306820F0F84040F08040DCE720F080002D
:102090002860FEF7D3FD064605E000BFFEF7CEFD43
:1020A000801B02289DD82868C005F7D42078000737
:1020B00029D56C486169643000298046016811D0D7
:1020C00041F001010160FEF7B9FD064605E000BFE1
:1020D000FEF7B4FD801B0228C9D8D8F8000080079D
:1020E000F6D510E021F001010160FEF7A7FD0646DC
:1020F00005E000BFFEF7A2FD801B022872D8D8F8C9
:1021000000008007F6D42078800623D5A069002837
:10211000286810D040F480502860FEF78FFD0646F6
:1021200005E036E1FEF78AFD801B02285AD82868B0
:102130008004F7D50EE020F480502860FEF77EFD85
:10214000064604E0FEF77AFD801B02284AD828687C
:102150008004F7D4207840074FD5DFF80C81D8F8F9
:10216000001041F48071C8F80010FEF767FD0646C4
:1021700005E000BFFEF762FD801B642832D8D8F866
:102180000000C005F6D5374EA068603601280AD099
:1021900008B1052813D0306820F0010030603068A5
:1021A00020F0040002E0306840F001003060A068D8
:1021B00041F2883A90B1FEF741FD80460AE030686E
:1021C00040F004003060EEE7FEF738FDA0EB0801B8
:1021D000514507D830688007F6D50EE0FEF72EFD92
:1021E000804607E084E000BFFEF728FDA0EB080171
:1021F00051457DD830688007F6D4606AB0B3DFF807
:102200006480D9F8001008F120084FF6F87B08F137
:102210000409C1F3C2010329A8F1040A69D0022804
:10222000286820F08070286003D0FEF707FD044680
:1022300084E0FEF703FD064605E000BFFEF7FEFC66
:10224000801B022877D828688001F7D4E26A40F220
:10225000F331386854F8283F884340EA02101843A5
:10226000386004E01044025800480258B5E0217B71
:10227000434622894FF4FE0C208A4FF0FE47490264
:10228000267D521E401EA1F50071C2F308088AB2D5
:10229000761E0CEA004042EA08020243504607EA72
:1022A00006610A431A60DAF8002022F00102CAF837
:1022B0000020D9F80020266A22EA0B0242EAC60270
:1022C000C9F80020DAF80010A26921F00C011143CE
:1022D000CAF800100168E26921F0020111430160AF
:1022E000016841F480310160016841F4003101E08E
:1022F00021E027E00160016841F48021016001686C
:1023000041F001010160286840F080702860FEF70C
:1023100095FC044605E000BFFEF790FC001B022878
:1023200009D828688001F7D557E000BFFEF786FC82
:10233000001B022802D90320BDE8F09F2868800115
:10234000F4D44AE039680128D8F8000021D0A26A04
:1023500001F0030393421CD1E26AC1F305118A42E2
:1023600017D1216BC0F30802491E8A4211D1616B5B
:10237000C0F34622491E91420BD1A16BC0F3064225
:10238000491E914205D1E16BC0F30660491E8142AE
:1023900001D00120D0E7A16C4E46D9F80000C0F36F
:1023A000CC00814219D0DAF80000554620F0010037
:1023B000CAF80000FEF742FC4FEA0007FEF73EFCB9
:1023C000B842FBD0A26C306820EA0B0040EAC200A1
:1023D0003060286840F0010028600020ACE7401E13
:1023E000B0F1807F10B501D3012010BD4FF0E02483
:1023F00060610F21601701F061FC0020A0610721DE
:10240000216110BD7047704770470000F0B590F82B
:102410003C20012A3BD01F4E012480F83C40022280
:1024200080F83D2002681C4D5368B242D2F808C0C3
:1024300001D0AA4203D14F6823F470033B430F68D5
:1024400023F070031F4357600268B24213D0B2F109
:10245000804F10D0114B9A420DD0114B9A420AD0A6
:10246000104B9A4207D0AA4205D00F4B9A4202D095
:102470000E4B9A4204D189682CF080031943916075
:10248000002180F83D4080F83C100846F0BD022055
:10249000F0BD0000000001400004014000040040C5
:1024A00000080040000C00400018004000400140BF
:1024B00010B5040003D094F83D0010B107E00120EE
:1024C00010BD002084F83C00204600F023F80220D4
:1024D00084F83D002068211D01F012F8012084F8E5
:1024E000480084F83E0084F83F0084F8400084F8F7
:1024F000410084F8420084F8430084F8440084F8E2
:10250000450084F8460084F8470084F83D00002028
:1025100010BD000010B586B0044614216846FDF7D2
:1025200011FF1F4A21681F48914224D1016841F0E0
:1025300002010160006800F00200059019480838A7
:10254000016841F00801016000680021042200F0E8
:102550000800059002200092CDE90101CDE90310A9
:1025600011486946FEF748FA00221D201146FEF781
:10257000DDFB1D2010E00D4A91420FD1016841F0B2
:102580002001016000680022114600F02000059043
:102590003720FEF7CBFB3720FEF7BAFB06B010BDA5
:1025A00000040040E8440258000C025800140040A7
:1025B00090F83D10012901D001207047174A0221EF
:1025C00080F83D100168CB6843F00103CB600068E0
:1025D000904214D0B0F1804F11D0114988420ED0F2
:1025E000104988420BD01049884208D00F498842D0
:1025F00005D00F49884202D00E49884207D1816830
:102600000D4A1140062906D0B1F5803F03D001687C
:1026100041F001010160002070470000000001400E
:102620000004004000080040000C0040000401408D
:1026300000180040004001400700010070B504464A
:1026400090F83C000025012814D03A4B012684F86C
:102650003C60022084F83D0022689068184020F415
:102660007F409060086870282FD010DC10F00F0FAA
:1026700003D022E04FF0020070BD4FEA2012072A7B
:102680001BD2DFE802F0535353534B394100B0F1F2
:10269000101F4BD009DCB0F5805F0FD0B0F5005FA4
:1026A0001ED0B0F5801F08D140E0A0F58011203980
:1026B0003CD010293AD0202938D0012584F83D603B
:1026C000002084F83C00284670BD4A682068D1E9A3
:1026D000021300F077FF2068816841F0770109E07C
:1026E0004A682068D1E9021300F06CFF2068816815
:1026F00041F480418160E1E7CA684968206800F0E0
:1027000075FF2068502106E0CA684968206800F01B
:102710007EFF2068602100F05FFFCFE7CA6849684C
:10272000206800F063FF20684021F4E7226801463A
:102730001046F0E788FFCEFF704770B5044600688A
:1027400000250169C943890715D4C168C9438907B0
:1027500011D4EA1E02610121217720688069800777
:10276000204602D0FFF7E8FF04E000F0A7F820467B
:1027700000F0A5F8257720680169C943490717D4F7
:10278000C168C943490713D402216FF004020261F2
:1027900021772068806910F4407F204602D0FFF73F
:1027A000CBFF04E000F08AF8204600F088F8257797
:1027B00020680169C943090716D4C168C9430907DC
:1027C00012D404216FF00802026121772068C069E9
:1027D0008007204602D0FFF7AFFF04E000F06EF85C
:1027E000204600F06CF8257720680169C943C906C6
:1027F00017D4C168C943C90613D408216FF0100269
:10280000026121772068C06910F4407F204602D021
:10281000FFF792FF04E000F051F8204600F04FF877
:10282000257720680169C943C90708D1C168C94330
:10283000C90704D1891E0161204600F041F82068D3
:102840000169C943090609D4C168C943090605D409
:102850006FF0800101612046FFF7D5FD2068016916
:10286000C943C90509D4C168C943090605D46FF431
:10287000807101612046FFF7C5FD20680169C943E9
:10288000490609D4C168C943490605D46FF040011F
:102890000161204600F040F820680169C9438906BB
:1028A0000BD4C168C943890607D46FF020010161C8
:1028B0002046BDE87040FFF7A7BD70BD7047704768
:1028C00070B50F4A01680F4C914202D16168491CF2
:1028D000616000680C49884210D10C4D2968486A33
:1028E0002060C96A626801FB0200A06008A001F0D4
:1028F000D5F90020206060602968486270BD000042
:1029000000040040000000240014004024000024C3
:10291000656E640D0A000000704730B590F88410B1
:10292000012918D0012280F884202421C0F88810C1
:102930000022202401680B680D6823F0005325F065
:1029400001050D60426601680B60C0F8884080F8A0
:102950008420104630BD022030BD7047704770B5EE
:10296000044690F8840001281DD0012284F88420B8
:102970002420C4F8880020680568026822F001025B
:1029800002602068826822F060620A43826020460A
:1029900000F050FE2268202100201560C4F8881045
:1029A00084F8840070BD022070BD70B5044690F8B4
:1029B000840001281DD0012284F884202420C4F83A
:1029C000880020680568026822F001020260206821
:1029D000826822F060420A438260204600F02AFEAC
:1029E0002268202100201560C4F8881084F8840033
:1029F00070BD022070BD7047704770472DE9F041EF
:102A000007680025044640F60F030226F869396876
:102A1000BA6818420AD183067ED501F0200302F07D
:102A2000805C53EA0C0377D0616F74E1CF4BDFF821
:102A300040C3134001EA0C0C53EA0C0C6CD05FEA63
:102A4000C07C0CD05FEAC15C09D54FF0010CC7F81F
:102A500020C0D4F8907047F00107C4F89070870741
:102A600009D5D70707D027683E62D4F8906046F0B2
:102A70000406C4F8906046070AD5D60708D0276830
:102A800004263E62D4F8906046F00206C4F89060D6
:102A900006070CD501F020061E4308D0266808233F
:102AA0003362D4F8903043F00803C4F89030030543
:102AB0000BD54B0109D526684FF400633362D4F877
:102AC000903043F02003C4F89030D4F89030002BBD
:102AD0003DD0800609D501F0200002F08051084366
:102AE00003D0616F09B1204688472168D4F890006F
:102AF0008968490602D410F0280F2AD0204600F039
:102B00007FFE2068806840061ED52068083050E8A7
:102B1000001F21F0400100E021E040E80012002AFF
:102B2000F3D1D4F8800078B192490165D4F88000DF
:102B3000FDF70EFE00280AD0D4F88000016D00E0F9
:102B40002046BDE8F04108472046FFF756FFBDE8A4
:102B5000F0812046FFF751FFC4F89050F7E7D4F812
:102B60006CC02023BCF1010F7ED15FEAC06C7BD525
:102B70005FEAC16C78D51020386220688068400612
:102B800073D5D4F880107C4A0868904234D07A4AD1
:102B90001832904230D0784A303290422CD0764A67
:102BA0004832904228D0744A6032904224D0724A0F
:102BB0007832904220D0704A903290421CD06E4AB7
:102BC000A832904218D06D4A904215D06B4A183204
:102BD000904211D0694A303290420DD0674A483253
:102BE000904209D0654A6032904205D0634A7832FB
:102BF000904201D0614A903240680004000CA6D097
:102C0000B4F85C208242A2D9A4F85E00C869B0F58D
:102C1000807F2FD0216851E8000F20F4807041E8B8
:102C20000002002AF6D12068083050E8001F21F089
:102C3000010140E80012002AF5D12068083050E870
:102C4000001F21F0400140E80012002AF5D1C4F82D
:102C50008C30E566216851E8000F20F0100041E853
:102C60000002002AF6D101E040E00BE0D4F8800039
:102C7000FDF7BEFB2667B4F85C00B4F85E10401A9E
:102C800081B22FE0B4F85C00B4F85E10B4F85E20B6
:102C9000401A81B2002AB2D00029B0D0226852E88E
:102CA000000F20F4907042E80007002FF6D1344F57
:102CB000206800F1080050E8002F02EA070240E80F
:102CC000002CBCF1000FF3D1C4F88C30E5666567C9
:102CD000206850E8002F22F0100240E80023002B6B
:102CE000F6D126672046FFF738FE30E7C60209D541
:102CF000560207D54FF4801038622046BDE8F041F7
:102D0000FFF77ABE06060AD501F0800602F400023B
:102D1000164304D0A16F00297FF412AF17E74206D3
:102D200011D54A060FD52046026852E8001F21F04F
:102D3000400142E80014002CF6D1C0F888308567C5
:102D400000F0FAF803E7020206D54A0004D520464F
:102D5000BDE8F041FFF74FBEC001C6D50029C4DA77
:102D60002046BDE8F041FFF7F9BD0000010000106A
:102D700020010004EB37000810000240100402405C
:102D8000FEFFFFEF10B5040003D0D4F8880010B1A7
:102D900007E0012010BD002084F88400204600F0E8
:102DA00027F82420C4F888002068016821F0010178
:102DB0000160204600F04EFD0128EBD0A06A10B162
:102DC000204600F059FC2068416821F490414160A0
:102DD0002068816821F02A0181602068016841F043
:102DE000010101602046BDE8104000F0A9BC0000D0
:102DF00010B5B6B00446142130A8FDF7A3FAC021DF
:102E00006846FDF79FFA1D492068884233D10020AB
:102E10001F9001210446CDE900106846FEF738F9FD
:102E200008B1FDF7E3FA1648016841F010010160AE
:102E3000006800F01000359011481038016841F02A
:102E400001010160006830AB022100F00100359003
:102E50004FF4C060072283E813000A4830A9CDE987
:102E60003342FDF7C9FD002225201146FDF75EFF24
:102E70002520FDF74DFF36B010BD000000100140C9
:102E8000F0440258000002582DE9F8430446D0F8F7
:102E90008800984616460D46202802D00220BDE83C
:102EA000F883A5B19EB10021C4F890102120C4F888
:102EB00088001834FDF7C2FE814654F8100CA6872E
:102EC000E6872027183CB0F5805F02D003E00120A0
:102ED000E5E7206910B12E46002510E000260EE03F
:102EE0008021204600F08CFEC0B9DEB116F8010B3F
:102EF00021688862B4F85600401EA4F85600B4F861
:102F000056004B464FF00002CDF800800028E7D174
:102F10004FF04001204600F073FE48B1C4F88870BD
:102F20000320BCE735F8020B2168C0F30800E0E796
:102F3000C4F888700020B2E77047FEE730B587B06C
:102F400014216846FDF7FEF91A48016841F00401B2
:102F50000160016801F004010591016841F0800100
:102F60000160016801F080010591016841F00101F3
:102F70000160016801F001010591016841F008015B
:102F8000016000684FF400540B4D002200F008006F
:102F9000214605902846FDF745FE01210020CDE998
:102FA0000041CDE9021069462846FDF725FD07B02E
:102FB00030BD0000E04402580008025810B588B047
:102FC000194800244FF6FF7216498023009401949B
:102FD00002940394049405940694C0E90014C0E993
:102FE000024204618361FFF763FA08B1FDF7FEF95D
:102FF0004FF400506946CDE900040B480294039455
:10300000FFF71CFB08B1FDF7F1F9074804A9049488
:103010000694FFF7FBF9002801D0FDF7E7F908B0A7
:1030200010BD000000040040240000243EB51148FB
:10303000002442F20F7245F6BF53009480210194A0
:10304000029481610A4DC0E90242C0E90053FFF7D2
:103050002FFA08B1FDF7CAF90648694600940294B0
:10306000FFF7D4F9002801D0FDF7C0F93EBD0000FC
:1030700000140040700000241848002110B5164CC0
:103080000C224FF4E1330460C0E90131C160C0E9B2
:1030900004128161C161016241628162FFF772FEC7
:1030A00008B1FDF7A3F90D480021FFF77EFC08B138
:1030B000FDF79CF909480021FFF751FC08B1FDF725
:1030C00095F90648FFF729FC002803D0BDE8104019
:1030D000FDF78CB910BD000000100140BC000024B9
:1030E000FEE7FEE7704700002DE9F047454D044636
:1030F00089464FF0000A2868C04380070AD0414E35
:10310000283E306820F080603060FDF797FD07466C
:10311000B04608E00120BDE8F08700BFFDF78EFD56
:10312000C01B022867D8D8F800000001F6D4206838
:1031300029684FF4FE0721F47C313E0241EA003059
:103140002860207AA389B4F804C040022D4D2D498F
:103150005B1E227CACF1010C1035091DA0F500703E
:1031600080B2521ECCF3080C07EA034340EA0C007D
:10317000184306EA0262104328600868626920F07A
:10318000C000104308600A68A06922F020020243D0
:103190000A60281D0A6822F010020A6002684FF6D1
:1031A000F873E4699A4342EAC40202600868B9F11C
:1031B000000F40F010020A6011D00868B9F1010F49
:1031C00011D040F400100860D8F80000444640F0E8
:1031D0008060C8F80000FDF731FD05460DE0086885
:1031E00040F40020EFE740F48010ECE7FDF726FD07
:1031F000401B022801D903208DE720680001F5D586
:10320000504688E7284402582DE9F047454D0446CA
:1032100089464FF0000A2868C04380070AD0414E13
:10322000283E306820F080503060FDF707FD0746EB
:10323000B04608E00120BDE8F08700BFFDF7FEFCC6
:10324000C01B022867D8D8F800008000F6D4208878
:1032500029684FF4FE0721F07C713E0241EA0050DC
:103260002860207AA389B4F804C040022D4D2D496E
:103270005B1E227CACF1010C1835091DA0F5007015
:1032800080B2521ECCF3080C07EA034340EA0C005C
:10329000184306EA0262104328600868626920F455
:1032A0004060104308600A68A06922F4007202437B
:1032B0000A60281D0A6822F480720A6002684FF6CC
:1032C000F873E4699A4342EAC40202600868B9F1FB
:1032D000000F40F480720A6011D00868B9F1010F44
:1032E00011D040F080700860D8F80000444640F0EB
:1032F0008050C8F80000FDF7A1FC05460DE0086805
:1033000040F48000EFE740F40000ECE7FDF796FCA6
:10331000401B022801D903208DE720688000F5D5E5
:10332000504688E7284402587047FDF78DBC0000DE
:1033300030B59DB04C216846FDF704F8202113A854
:10334000FDF700F80220FDF723FD2D4900242D484C
:103350000A6822F001020A600A68026842F44042E8
:103360000260026802F440421B9202689204FCD59B
:10337000254A136843F002031360126802F0020248
:103380001B92026842F44042026002680A6842F0FE
:1033900001020A60096801F001011B9101688904BA
:1033A000FCD50220009040250495012103910422C0
:1033B0000B923C23CDE90904CDE90C300FAB0E9004
:1033C0000C2183E8130068461294FEF747FD08B10C
:1033D00072B6FEE708221A95CDE91625D30113AA85
:1033E0003F200321CDE9185382E81300042113A8DC
:1033F000FEF724FB002801D072B6FEE71DB030BDF9
:103400002C04005818480258F44402582C48F0B5CF
:103410002C4A016841F470010160106800F00F004F
:10342000072804D2106820F00F00C01D1060264944
:103430000020254C10340B68244D43F001030B6031
:1034400020600B682B400B60136803F00F03072B01
:1034500004D9136823F00F03DB1D13601A4C1C4AB8
:1034600018341C4B261D371D2060174C1A4D28346C
:103470003060261D3860371D23603B1D35601C1DE4
:103480003A60251D2E1D1860331D226028603260B1
:1034900018600A680C4B114C22F4802260330A60D9
:1034A000186020686FF30F00B0F1005F03D20C4981
:1034B0000120C1F8080143F2D2000A490860F0BDBA
:1034C00088ED00E000200052004402587FEDF6EA4B
:1034D00080020101000202020000FF010010005CF6
:1034E00000800051004000520148FFF726B900005B
:1034F000240000240148FFF720B9000070000024D8
:103500002DE9F047274B4FF0804A274D026898423B
:10351000264E274F274C09D0504507D0A84205D04A
:10352000B04203D0B84201D0A04205D1D1F804C0C6
:1035300022F070024CEA0202DFF87CC0DFF87C80E7
:103540009842DFF87C900FD050450DD0A8420BD0A8
:10355000B04209D0B84207D0A04205D0604503D0A0
:10356000404501D0484503D1CD6822F440722A433A
:103570004D6922F080022A43026098428A68C26242
:103580000A68826207D0A04205D0604503D040455A
:1035900001D0484501D10969016301214161BDE8BC
:1035A000F0870000000001400004004000080040D7
:1035B000000C004000040140004001400044014074
:1035C0000048014042EA032283680A4323F47F4112
:1035D0000A43826070470000034B82681A400A4326
:1035E00042F00701816070478FFFCFFF10B5036A7B
:1035F000046A23F00A0324F00104046284690B4383
:1036000024F0F00141EA02118161036210BD10B59E
:10361000036A23F0100303628369046A23F470438E
:1036200024F0A00443EA0232826144EA01110162FB
:1036300010BD000030B5416EB9B101680D4B03F10A
:1036400008048A688968C2F34262490F5D5C615C64
:103650002D01B5FBF1F1A0F86A10995CA25C09019B
:10366000B1FBF2F1A0F8681030BD0121A0F86A109A
:10367000F8E70000043F000890F82810C90706D0BA
:103680000168C36A4A6822F400321A434A6090F81B
:103690002810890706D50168036B4A6822F4803236
:1036A0001A434A6090F82810490706D50168436B11
:1036B0004A6822F480221A434A6090F828100907C9
:1036C00006D50168836B4A6822F400421A434A60B7
:1036D00090F82810C90606D50168C36B8A6822F4E1
:1036E00080521A438A6090F82810890606D501682E
:1036F000036C8A6822F400521A438A6090F82810FA
:10370000490611D50168436C4A6822F480121A43B5
:103710004A60416CB1F5801F06D10168836C4A682C
:1037200022F4C0021A434A6090F82810090606D510
:103730000168C26C486820F400201043486070475C
:103740002DE9F84300250446C0F89050FDF776FABD
:103750008046206820266FF07E470068000713D55A
:103760000022434631042046009700F049FA58B140
:10377000216851E8000F20F0800041E80002002A93
:10378000F6D1C4F8886021E020680068400722D59F
:10379000002243464FF480012046009700F030FAA3
:1037A000C8B1206850E8001F21F4907140E8001271
:1037B000002AF6D12068083050E8001F21F00101EE
:1037C00040E80012002AF5D1C4F88C60032084F888
:1037D0008450BDE8F883C4F88860C4F88C60E5665E
:1037E0002567002084F88450F3E710B5806B002132
:1037F000A0F85E10A0F85610FFF7FFF810BD00000B
:1038000010B5026852E8001F21F4907142E80013DD
:10381000002BF6D10E4B0268083252E8001F194007
:1038200042E80014002CF6D1C16E012908D10268CB
:1038300052E8001F21F0100142E80013002BF6D1DE
:1038400000212022C0F88C20C166416710BD000015
:10385000FEFFFFEF2DE9F04304468068D84E87B0A5
:10386000D84B2168D4E90427D4F81CC010430A6857
:10387000002547EA0C073843324002430A602068BB
:10388000E268416821F44051114341602268A16916
:103890009A4201D0206A01439768DFF82CC3CB4ECF
:1038A000CB4807EA0C070F4397602168676ACA6A2A
:1038B00022F00F023A43CA622268B2420ED1006877
:1038C00000F03800182873D047DCB8B3082879D046
:1038D00010286FD178E028287ED17BE0BD498A424C
:1038E00009D1006800F00700062875D2DFE800F073
:1038F000546A6C6E7072B8498A4209D1006800F04F
:103900000700062868D2DFE800F0475D5F61636565
:10391000B2498A4209D1006800F0070006285BD24C
:10392000DFE800F03A5052545658AD498A420BD164
:10393000006800F0070006284ED200E010E0DFE843
:1039400000F02B4143454749A6498A420AD1006805
:1039500000F03800182839D0B7DD2028BBD13CE072
:1039600001203AE0A0498A4209D1006800F007002E
:10397000062831D2DFE800F01026282A2C2E9B4999
:103980008A420BD1006800F00700062824D2DFE845
:1039900000F003191B1D1F2100201EE09A421BD1BD
:1039A0008B48001D006800F00700062814D202E0D2
:1039B0000CE007E010E0DFE800F0030507090B0D5D
:1039C00002200AE0042008E0082006E0102004E0BD
:1039D000202002E0402000E080208549DFF81482AA
:1039E0009A42854A4FF400434FEA21174FF00006F0
:1039F0004ED110281AD006DC022809D004280BD09A
:103A000008287CD10DE020283ED0402877D13DE029
:103A1000FDF7E8F9014610E06846FDF7F5F9019970
:103A20000BE003A8FDF792FA049906E010688006FF
:103A300005D51068C0F3C100C140002970D0606A8C
:103A4000676838F8102007EB4703B1FBF2F08342B8
:103A500055D8B0EB073F52D8002308461946FCF76B
:103A600039FC02467808130E120243EA01211018AD
:103A70003A4671410023FCF72DFC604AA0F54071E5
:103A800091423CD821688FE03946D8E71946D6E7FD
:103A9000D4F81CC04FF6EF799C4546D1082819D0C0
:103AA00005DC58B101280CD0042875D10DE0102890
:103AB00015D0202835D040286ED134E0FEF70EF91D
:103AC00001E0FEF71DF9014610E06846FDF79CF99C
:103AD00001990BE003A8FDF739FA049906E0106894
:103AE000800604D51068C0F3C100C140C1B1636A4B
:103AF000606838F81330B1FBF3F1490000E04BE0A7
:103B000001EB5001B1FBF0F0A0F11001494543D8A1
:103B10004FF6F0732168C0F342021840104343E0AF
:103B200043E03946E3E71946E1E7082819D005DC08
:103B300058B101280CD004282ED10DE0102815D042
:103B400020282BD0402827D12AE0FEF7C7F801E033
:103B5000FEF7D6F8014610E06846FDF755F90199E1
:103B60000BE003A8FDF7F2F9049906E0106880065F
:103B700004D51068C0F3C100C140B1B1636A606888
:103B800038F81330B1FBF3F101EB5001B1FBF0F069
:103B9000A0F11001494505D9012506E03946EDE7B8
:103BA0001946EBE7216880B2C8600120A4F86A00DA
:103BB000A4F8680028466667A66707B0BDE8F083EA
:103BC000F369FFCF000C0058FFF4FF110010014013
:103BD000544402580044004000480040004C00405B
:103BE000005000400014014000780040007C00407C
:103BF0000090D003EC3E000800440258FFFC0F0088
:103C00002DE9F047994617460E460446089D4FF0A9
:103C100000082FE0681C2DD0FDF710F8A0EB09007C
:103C2000A84214D89DB120680168490722D5C1690E
:103C3000C94309070DD4082505622046FFF7E0FDBA
:103C4000C4F89050012084F88480BDE8F0870320F8
:103C5000FBE7C069C04300050CD421684FF4006045
:103C600008622046FFF7CCFD2021C4F8901084F8AC
:103C70008480ECE72068C06936EA000004D00020A8
:103C8000B842C7D00020E0E70120F9E70148FEF77D
:103C9000B5BE0000BC000024FEE700000FB4054BD9
:103CA00010B503A9044A029800F028F810BC5DF88A
:103CB00014FB0000513E00082000002409070028E2
:103CC0004FEA116104DB00F1E02080F80014704736
:103CD00000F00F0000F1E02080F8141D704702E0B2
:103CE00008C8121F08C1002AFAD170477047002087
:103CF00001E001C1121F002AFBD170472DE9FF4FDF
:103D000089B09B460446002506E025280BD05A467C
:103D10000B999047641C6D1C20780028F5D10DB0DC
:103D20002846BDE8F08F0027B8460122474900E049
:103D3000074314F8013F203B02FA03F00842F7D191
:103D400020782E2819D114F8010F47F004072A28EB
:103D50000ED06FF02F022078A0F1300109290CD885
:103D600008EB880102EB410100EB0108641CF2E75B
:103D70000A98641C50F8048B0A9020780028CED052
:103D8000642808D0692806D075281ED05A460B9999
:103D900090476D1C58E00A994FF00A0901C90A9131
:103DA000002802DA40422D2102E0390504D52B21FA
:103DB0008DF82010012103E0F90704D02021F7E756
:103DC0008A4608AE0DE00021FAE70A994FF00A0989
:103DD00001C90A91F7E74946FCF7BFFA303106F806
:103DE000011D0028F7D1ADEB060000F1200978078E
:103DF00001D44FF00108C84502DDA8EB090000E03E
:103E000000208046002706E008A85A46C05D0B99AE
:103E100090476D1C7F1C5745F6DB04E030205A4666
:103E20000B9990476D1CB8F10001A8F10108F5DC71
:103E300005E016F8010B5A460B9990476D1CB9F135
:103E40000001A9F10109F4DC641C65E709280100FF
:103E500013B5044801224FF6FF736946FFF714F8C3
:103E600000981CBDBC00002470B50B4D4FF40054ED
:103E7000002221462846FCF7D5FE4FF4FA7630465C
:103E8000FCF7A8FD012221462846FCF7CBFE304670
:103E9000BDE87040FCF79EBD00080258FCF7DCFE50
:103EA000FFF746FAFFF74AF8FFF7C0F8FFF7E4F824
:103EB000FFF784F80748FEF77BFB0748FEF778FB1F
:103EC000064C00BFFFF7D0FFA16805A0FFF7E6FE94
:103ED000F8E7000070000024240000240000002403
:103EE0004672653A25640D0A0000000001000200D8
:103EF0000400060008000A000C001000200040002A
:103F00008000000101010103070100000804020410
:103F10000801010100000000010203040102030482
:103F200006070809443F00080000002424000000A0
:103F3000DE3C0008683F0008240000242C05000037
:103F4000EE3C00080000000000000000000000003F
:103F50000100000010000000000000000090D003ED
:083F60000090D00300000000F6
:040000050800029954
:00000001FF
