:020000040800F2
:10000000B8140024B10200085B2C00087F2B000804
:10001000592C0008BD030008C53600080000000088
:10002000000000000000000000000000A12E0008F9
:10003000BF030008000000005D2C0008A32E00088C
:10004000CB020008CB020008CB020008CB0200085C
:10005000CB020008CB020008CB020008CB0200084C
:10006000CB020008CB020008CB020008CB0200083C
:10007000CB020008CB020008CB020008CB0200082C
:10008000CB020008CB020008CB020008CB0200081C
:10009000CB020008CB020008CB020008CB0200080C
:1000A000CB020008CB020008CB020008CB020008FC
:1000B000CB020008CB020008CB020008CB020008EC
:1000C000CB020008CB020008CB020008CB020008DC
:1000D000CB020008B9360008CB020008CB020008AA
:1000E000CB020008CB02000800000000CB02000891
:1000F000CB020008CB020008CB020008CB020008AC
:10010000CB020008CB020008CB020008CB0200089B
:10011000CB020008CB020008CB020008CB0200088B
:10012000CB020008CB020008CB020008CB0200087B
:10013000CB020008CB020008CB020008CB0200086B
:1001400000000000000000000000000000000000AF
:10015000CB020008CB020008CB020008CB0200084B
:10016000CB020008CB020008CB020008CB0200083B
:10017000CB020008CB020008CB020008CB0200082B
:10018000CB020008CB020008CB020008CB0200081B
:10019000CB020008CB020008CB020008CB0200080B
:1001A000CB020008CB020008CB020008CB020008FB
:1001B000CB020008CB020008CB020008CB020008EB
:1001C000CB020008CB020008CB020008CB020008DB
:1001D000CB020008CB020008CB020008CB020008CB
:1001E000CB020008CB020008CB020008CB020008BB
:1001F000CB020008CB020008CB020008CB020008AB
:10020000CB020008CB020008CB020008CB0200089A
:10021000CB020008CB020008CB020008CB0200088A
:10022000CB020008CB020008CB020008000000004F
:10023000CB020008CB02000800000000CB0200083F
:10024000CB020008CB020008CB020008CB0200085A
:10025000CB020008CB020008CB020008CB0200084A
:10026000CB020008CB020008CB020008CB0200083A
:10027000CB020008CB020008CB02000800000000FF
:10028000CB020008CB020008CB02000800000000EF
:1002900000000000CB020008DFF810D000F07CF86E
:1002A00000480047913E0008AFF30080B8140024D6
:1002B0000648804706480047FEE7FEE7FEE7FEE700
:1002C000FEE7FEE7FEE7FEE7FEE7FEE7852F000814
:1002D000990200082DE9F05F0546002092469B46F2
:1002E00088460646814640241BE02846414647464C
:1002F000224600F041F853465A46C01A914110D3A5
:1003000011461846224600F028F82D1A67EB01081E
:100310004F4622460120002100F01FF817EB00098C
:100320004E41201EA4F10104DFDC484631462A4636
:100330004346BDE8F09FD2B201E000F8012B491E10
:10034000FBD270470022F6E710B513460A46044672
:100350001946FFF7F0FF204610BD202A04DB203AA3
:1003600000FA02F1002070479140C2F1200320FA08
:1003700003F3194390407047202A04DB203A21FA06
:1003800002F00021704721FA02F3D040C2F12002AE
:100390009140084319467047064C074D06E0E06857
:1003A00040F0010394E8070098471034AC42F6D3BC
:1003B000FFF776FF3041000850410008FEE7704724
:1003C00072B6FEE72DE9F84F044600F021FC0090DC
:1003D0003CB194F83500022806D0802161650020E8
:1003E000E4E00120BDE8F88FC74DC74EC649183577
:1003F00020683036DFF81483DFF814938842DFF882
:1004000014A3DFF814B32ED0A8422CD0B0422AD0C7
:10041000404528D0484526D0504524D0584522D0C4
:10042000BD4A183290421ED0BC4A90421BD0BB4AF3
:100430001832904217D0B94A3032904213D0B74A9E
:10044000483290420FD0B54A603290420BD0B34A46
:100450007832904207D0B14A9032904203D0AF4AEE
:10046000A832904209D1026822F01E020260206880
:10047000426922F08002426103E0026822F00E022B
:10048000026027688F4238464DD0A8424BD0B04218
:1004900049D0404547D0484545D0504543D05845C0
:1004A00041D09D4A183290423DD09C4A90423AD069
:1004B0009A4A1832904236D0984A3032904232D01E
:1004C000964A483290422ED0944A603290422AD0C6
:1004D000924A7832904226D0904A9032904222D06E
:1004E0008E4AA83290421ED08D4A90421BD08C4A30
:1004F0001432904217D08A4A2832904213D0884A48
:100500003C3290420FD0864A503290420BD0844AFF
:100510006432904207D0824A7832904203D0804AB7
:100520008C32974204D1206E026822F480720260FD
:1005300075492068884228D0A84226D0B04224D0ED
:10054000404522D0484520D050451ED058451CD0AB
:1005500071491831884218D07049884215D06F49C6
:100560001831884211D06D49303188420DD06B4925
:100570004831884209D069496031884205D06749CD
:100580007831884201D065499031016821F001013C
:1005900001600EE000F03CFB0099401A052808D9E4
:1005A000202262650321002084F8351084F834008D
:1005B00017E73868C007EDD1534A012120689042FF
:1005C0002ED0A8422CD0B0422AD0404528D0484551
:1005D00026D0504524D0584522D04F4B183398424E
:1005E0001ED04E4B98421BD04C4B1833984217D01C
:1005F0004A4B3033984213D0484B483398420FD07F
:10060000464B603398420BD0444B7833984207D026
:10061000424B9033984203D0404BA833984208D1C4
:1006200094F85C703F23A06D07F01F07BB40836008
:1006300007E094F85C30A06D03F01F0301FA03F3A8
:100640004360206890424DD0A8424BD0B04249D080
:10065000404547D0484545D0504543D0584541D006
:100660002D4A183290423DD02C4A90423AD02B4A23
:100670001832904236D0294A3032904232D0274A3E
:10068000483290422ED0254A603290422AD0234AE6
:100690007832904226D0214A9032904222D01F4A8E
:1006A000A83290421ED01E4A90421BD01C4A1432DF
:1006B000904217D01A4A2832904213D0184A3C323E
:1006C00090420FD0164A503290420BD0144A6432F6
:1006D000904207D0124A7832904203D0104A8C32AE
:1006E00090420BD1D4E919024260E06E30B1026849
:1006F00022F480720260D4E91C024260002084F877
:10070000351084F834006DE61000024058000240B5
:100710007000024088000240A00002401004024025
:10072000085402582DE9F05F28B190F835100229DD
:1007300004D0802141650120BDE8F09F904C904B92
:100740000168183C18338E4ADFF83C92A1428D4C68
:10075000DFF838E28E4FDFF83CB2DFF83CA28F4D75
:100760008F4E31D091422FD099422DD0A1422BD023
:10077000494529D0714527D0B94225D0DFF810C2AC
:100780000CF1180C61451FD0DFF808C2ACF1600C09
:10079000614519D0DFF8FCC1ACF1480C614513D0BC
:1007A000DFF8F0C1ACF1300C61450DD0DFF8E4C1E9
:1007B000ACF1180C614507D0594505D0514503D01F
:1007C000A94201D0B1422CD1DFF8B4C14FF00408E6
:1007D00080F83580ACF1180C61451DD091421BD0DA
:1007E000994219D0A14217D0494515D0714513D06F
:1007F000B94211D06648183081420DD06548603842
:10080000814209D063484838814205D06148303878
:10081000814201D05F481838086820F00100086064
:10082000ABE0D1F800C02CF00E08DFF854C1C1F8DD
:100830000080ACF1180C0168614527D0914225D0A9
:10084000994223D0A14221D049451FD071451DD0E6
:10085000B9421BD0DFF838C10CF1180C614515D036
:10086000DFF830C1ACF1600C61450FD0DFF824C176
:10087000ACF1480C614509D0DFF818C1ACF1300C7F
:10088000614503D0DFF80CC1ACF1180CD1F800C001
:100890002CF0010CC1F800C0DFF8E4804FF0010C2F
:1008A0000168A8F11808414546D0914244D09942C8
:1008B00042D0A14240D049453ED071453CD0B942DA
:1008C0003AD0334A1832914236D0324A603A914295
:1008D00032D0304A483A91422ED02E4A303A914294
:1008E0002AD02C4A183A914226D0594524D0514555
:1008F00022D0A94220D0B1421ED02A4A91421BD018
:10090000284A1432914217D0264A2832914213D0F5
:10091000244A3C3291420FD0224A503291420BD0AD
:10092000204A6432914207D01E4A7832914203D065
:100930001C4A8C32914218D1016E0A6822F48072EE
:100940000A6090F85C20816D02F01F020CFA02F23E
:100950004A60D0E919124A60C16E31B10A6822F4C6
:1009600080720A60D0E91C124A600022016D80F892
:1009700035C080F8342001B188470020DCE6000053
:1009800028000240580002407000024088000240E7
:10099000A00002407004024088040240A00402400B
:1009A000B80402400854025870B5044600F030F90B
:1009B0000546601C02D004480078044400F028F981
:1009C000401BA042FAD370BD080000242DE9F84F67
:1009D00003247D4D00234FF001094FF0B04B4FF041
:1009E0000F0AE9E009FA03F73A4076D00E7906F0EB
:1009F0000306012E01D0022E18D1D0F808C04FEA0C
:100A0000430ECE6804FA0EF82CEA080C06FA0EF62D
:100A100046EA0C068660D0F804C00E792CEA070C72
:100A2000C6F300169E4046EA0C0646600E79F64371
:100A3000B6070BD0C6684FEA43088F6804FA08FC73
:100A400026EA0C0607FA08F73743C7600E7906F066
:100A50000306022E12D1DE080F694FEA437C00EB39
:100A60008606B646366A4FEADC6C0AFA0CF807FAD4
:100A70000CF726EA08063743CEF820700F7906688F
:100A80004FEA430807F0030704FA08FC07FA08F7DF
:100A900026EA0C06374307604E6816F4403F1CD028
:100AA0004A4E376847F00207376036689F0706F0FE
:100AB0000206009623F0030606F1B046B6463F0F45
:100AC000D6F80864DFF808810AFA07FC404526EAF0
:100AD0000C0603D14FF0000C41E06CE0DFF8F4C0ED
:100AE000604502D14FF0010C39E0DFF8ECC0604501
:100AF00002D14FF0020C32E0DFF8E0C0604502D1D5
:100B00004FF0030C2BE0DFF8D8C0604502D14FF066
:100B1000040C24E0DFF8CCC0604502D14FF0050C96
:100B20001DE0DFF8C4C0604502D14FF0060C16E0AE
:100B3000DFF8B8C0604502D14FF0070C0FE0DFF8D6
:100B4000B0C0604502D14FF0080C08E0DFF8A4C047
:100B5000604502D14FF0090C01E04FF00A0C0CFA8D
:100B600007FC4CEA060CCEF808C44F68DBF80060BE
:100B7000FF0226EA020600D516435F46CBF8006066
:100B8000D1F804C0DBF804605FEA8C2C26EA020688
:100B900000D516437E606E684F6826EA0206BF03E2
:100BA00000D516436E602E684F6826EA0206FF03E2
:100BB00000D516432E605B1C0A6832FA03F67FF4F8
:100BC00011AFBDE8F88F000080000058F4440258CF
:100BD000000002580004025800080258000C025895
:100BE000001002580014025800180258001C025845
:100BF00000200258002402580AB18161704709049C
:100C0000FBE7000001480068000C70470010005C22
:100C1000014880687047000008000024024881688D
:100C2000027811448160704708000024032010B549
:100C300000F0D4F801F0AEF80F4A104914681368B8
:100C4000C4F3032203F00F038A5CC95C02F01F02A5
:100C500001F01F01D0400A4A20FA01F11160094950
:100C600008600F2000F010F808B1012010BD00F05E
:100C700079F8002010BD000018440258FC3F00081D
:100C8000180000241400002470B50D4D0446287887
:100C9000A0B14FF47A71B1FBF0F00A490968B1FBD9
:100CA000F0F001F0D4FB48B9102C07D20022214605
:100CB000501E00F073F800206C6070BD012070BD04
:100CC0000800002414000024F0B5154C4378211DC1
:100CD0000A1D23600378F3B143680B60057BC67A75
:100CE000817A437B2D07847B45EA0665C77B90F8B4
:100CF00009C0067A90F800E045EAC14040EA834026
:100D000040EA444040EA074040EA0C2040EA4600FE
:100D100040EA0E0001E0002008601060F0BD000015
:100D200098ED00E0BFF35F8F044800210368034A99
:100D300023F48033036070321160704724ED00E0CB
:100D4000074A40F00100064970321060086840F41C
:100D500080300860BFF34F8FBFF36F8F7047000084
:100D600024ED00E0054808B5016841F0020101608A
:100D7000006800F00200009008BD0000F444025832
:100D8000002809DB410900F01F028900012001F160
:100D9000E0219040C1F80001704700000E4BF0B414
:100DA0001B680D46C3F30223C3F10706042E00D9C6
:100DB0000426191D072901D2002300E0DB1E0124AF
:100DC00004FA06F19C40491E2940641E99401440D3
:100DD0002143F0BC02F0A0BC0CED00E0064900F09D
:100DE000070210B54FF6FF040868044B204040EAA4
:100DF00002201843086010BD0CED00E00000FA0569
:100E0000134970B50A68D243520705D5096801F045
:100E10000701814213D118E00A6822F00702024359
:100E20000A60FFF7F5FE0A4D4FF47A760446083D56
:100E300007E000BFFFF7ECFE001BB04201D9012024
:100E400070BD2868C0438004F4D4002070BD000049
:100E50000C48025810B500F057FF05490968054ACB
:100E6000C1F30211515C01F01F01C84010BD000028
:100E700020440258FC3F0008494930B5484C0B1D3E
:100E80000A68143409681D68246802F00303C5F376
:100E90000012C1F30531C4F3CC04002914FB02F2A3
:100EA00000EE102AF8EE400A75D03F4A9FED3D1A39
:100EB000B7EE000A6BB1DFED3D1A012B01D0022B1A
:100EC00064D002EE101A1168F8EE422A81EEA22ACE
:100ED00021E0334C283C23689B0612D5344B246810
:100EE00001EE901A1168C4F3C104F8EE612AE340E0
:100EF00001EE903AC1F30801F8EE611A81EEA22AE0
:100F00000BE001EE901ADFED2B2A00BFF8EE611A1C
:100F1000116882EEA12AC1F3080101EE901A11684E
:100F2000F8EE611A40EE811A71EE800A62EE200A34
:100F3000C1F3462101EE101AB8EE411A31EE001A43
:100F4000C0EE811ABCEEE11A80ED001A1168C1F3FF
:100F5000064101EE101AB8EE411A31EE001AC0EE49
:100F6000811ABCEEE11A80ED011A1168C1F3066125
:100F700001EE101AB8EE411A31EE000A80EE801A26
:100F8000BCEEC10A80ED020A30BD04E001EE901A09
:100F9000DFED092ABAE70021016041608160F3E7D3
:100FA0002844025800000039384402580024744A8A
:100FB0000090D0030024744C20BCBE4B494930B58E
:100FC000484C0B1D0A681C3409681D68246802F02F
:100FD0000303C5F30022C1F30551C4F3CC04002977
:100FE00014FB02F200EE102AF8EE400A75D03F4AD8
:100FF0009FED3D1AB7EE000A6BB1DFED3D1A012BF4
:1010000001D0022B64D002EE101A1168F8EE422AC9
:1010100081EEA22A21E0334C283C23689B0612D59E
:10102000344B246801EE901A1168C4F3C104F8EE41
:10103000612AE34001EE903AC1F30801F8EE611A2B
:1010400081EEA22A0BE001EE901ADFED2B2A00BF01
:10105000F8EE611A116882EEA12AC1F3080101EECF
:10106000901A1168F8EE611A40EE811A71EE800A4A
:1010700062EE200AC1F3462101EE101AB8EE411AC1
:1010800031EE001AC0EE811ABCEEE11A80ED001AB2
:101090001168C1F3064101EE101AB8EE411A31EEA3
:1010A000001AC0EE811ABCEEE11A80ED011A116837
:1010B000C1F3066101EE101AB8EE411A31EE000AD2
:1010C00080EE801ABCEEC10A80ED020A30BD04E059
:1010D00001EE901ADFED092ABAE7002101604160B4
:1010E0008160F3E728440258000000394044025868
:1010F0000024744A0090D0030024744C20BCBE4BE2
:101100002DE9FE4F0546DFF8E48350F8081B002464
:10111000F64FC943019005F12800264608F124083E
:10112000009008011DD4A86E50B1B0F5801F0CD0FE
:10113000B0F5001F0ED0B0F5401F1ED001240FE007
:10114000386840F40030386017E00198022101F05F
:1011500087FD03E00098022101F012FE04000CD08C
:1011600026462888C043C00523D4A86D05281ED272
:10117000DFE800F00C11161B1B00AA6ED8F8001057
:1011800021F440111143C8F80010EAE7386840F430
:101190000030386009E00198002101F061FD03E0B2
:1011A0000098002101F0ECFD044674B100E0012438
:1011B00026462888C043800528D4E86D80281ED0A4
:1011C0000CDC90B140280ED114E0AA6DD8F80010C4
:1011D00021F007011143C8F80010EAE7C02813D036
:1011E000B0F5807F10D001240FE0386840F4003063
:1011F000386009E00198002101F032FD03E0009819
:10120000002101F0BDFD04469CB126462888DFF888
:10121000DC92C04309F12C0940052CD4D5F8A80074
:10122000B0F5800F20D00DDCA0B1B0F5001F0FD1BC
:1012300015E0EA6DD8F8001021F4E0711143C8F808
:101240000010E3E7B0F5C00F13D0B0F5000F10D0D9
:1012500001240FE0386840F40030386009E001985C
:10126000002101F0FDFC03E00098002101F088FD61
:1012700004467CB126462888C04300052DD4D5F805
:10128000AC00B0F1007F21D00EDCA8B1B0F1807FBE
:1012900010D116E0D5F8A820D9F8001021F460018B
:1012A0001143C9F80010E6E7B0F1407F13D0B0F168
:1012B000806F10D001240FE0386840F400303860AF
:1012C00009E00198002101F0CBFC03E00098002127
:1012D00001F056FD044674B126462868C0438001DB
:1012E0001FD4E86CD8B110280FD0202812D0302895
:1012F00015D0012414E0D5F8AC20D9F8001021F065
:10130000E0611143C9F80010E7E7386840F40030A5
:10131000386004E00198022101F0A2FC044674B197
:1013200026462888C043C0042BD4286EB0F5005F41
:1013300020D00DDCA0B1B0F5805F0FD115E06B4877
:10134000EA6C2030016821F0300111430160E8E7C8
:10135000B0F5405F13D0B0F5804F10D001240FE0FE
:10136000386840F40030386009E00198002101F04D
:1013700077FC03E00098002101F002FD04468CB1E7
:1013800026462888C043800429D4686EB0F5403FC3
:1013900023D010DC08B3B0F5803F14D0B0F5003F87
:1013A0000FD115E02A6ED8F8001021F4E041114366
:1013B000C8F80010E5E7B0F5802F0ED0B0F5A02FEB
:1013C0000BD001240AE00198012101F049FC03E05F
:1013D0000098012101F0D4FC044694B126462888E7
:1013E000C04340042AD4D5F8B000B0F1405F23D008
:1013F00010DC08B3B0F1805F14D0B0F1005F0FD102
:1014000015E06A6ED8F8001021F4E0211143C8F805
:101410000010E4E7B0F1804F0ED0B0F1A04F0BD038
:1014200001240AE00198012101F01AFC03E0009870
:10143000012101F0A5FC044674B126462888C0436A
:1014400000041FD4286FD8B1B0F1805F0ED0B0F186
:10145000005F10D0012414E0D5F8B020D9F80010B6
:1014600021F0E0411143C9F80010E7E7386840F483
:101470000030386004E00198012101F0F1FB0446DE
:1014800074B126462868C043C0011ED4A86CD0B1F0
:1014900001280ED0022811D0032814D0012413E013
:1014A0002A6FD8F8001021F040511143C8F80010FD
:1014B000E8E7386840F40030386004E00198022121
:1014C00001F0CEFB0446ACB126462868DFF81CB01C
:1014D000C043ABF11C0B400252D40548016841F4F3
:1014E00080710160FFF794FB824611E02C440258A2
:1014F00000480258FA48AA6C016821F00301114320
:101500000160E2E7FFF784FBA0EB0A00642835D80E
:10151000F4480068C005F5D58CBBDFF8C4A3B5F866
:10152000B4100AF1240ADAF8000001F4407100F462
:101530004070884211D0DAF80010DAF8002021F467
:10154000407142F48032CAF80020DAF8002022F418
:101550008032CAF80020CAF80010D5F8B400B0F5FF
:10156000807F1AD1FFF754FB029012E0FFF750FB87
:101570000299411A41F2883081420AD90324264651
:101580002878DFF85CA3C0430AF1080AC00721D01D
:101590003CE0DAF800008007E8D5D5F8B410C1F3D4
:1015A0000120032858460DD0016821F47C510160C8
:1015B000B5F8B420DAF80010C2F30B021143CAF8F0
:1015C0000010DDE7C84A036802EA111223F47C51D7
:1015D0001143ECE7E86F182816D005DCA0B1082805
:1015E00008D0102804D10AE020280DD028280BD0DC
:1015F00001240AE00198012101F032FB03E0009888
:10160000012101F0BDFB044664B126462878C043A1
:1016100080071ED4A86F062819D2DFE800F0160C48
:1016200011161616EA6FDAF8001021F0380111438E
:10163000CAF80010EAE70198012101F011FB03E06C
:101640000098012101F09CFB04467CB100E00124DC
:1016500026462878C04340071FD4D5F894000628B2
:1016600019D2DFE800F0160C11161616AA6FDAF878
:10167000001021F007011143CAF80010E9E70198B2
:10168000012101F0EDFA03E00098012101F078FB5F
:101690000446A4B100E0012426462878C043800611
:1016A0002BD4D5F89000B0F1405F24D011DC10B3FA
:1016B000B0F1805F15D0B0F1005F10D116E0D5F821
:1016C0009420D9F8001021F007011143C9F8001047
:1016D000E3E7B0F1804F0ED0B0F1A04F0BD0012462
:1016E0000AE00198002101F0BBFA03E00098022112
:1016F00001F046FB044694B126462878C0434006D4
:101700002BD4D5F89C00B0F5406F24D011DC10B379
:10171000B0F5806F15D0B0F5006F10D116E0D5F898
:101720009020DAF8001021F0E0411143CAF80010CF
:10173000E3E7B0F5805F0ED0B0F5A05F0BD00124D9
:101740000AE00198002101F08BFA03E000980221E1
:1017500001F016FB044694B126462878C0430006E3
:101760002BD4D5F8A000B0F5C04F24D011DC10B3B5
:10177000B0F5005F15D0B0F5804F10D116E0D5F868
:101780009C20D9F8001021F4E0511143C9F8001051
:10179000E3E7B0F5004F0ED0B0F5204F0BD0012499
:1017A0000AE00198002101F05BFA03E000980221B1
:1017B00001F0E6FA044654B126462878C0430007F3
:1017C0001ED4D5F88400B0F5805F0AD00FE0D5F8BC
:1017D000A020D9F8001021F460411143C9F800108D
:1017E000EBE70098022101F0CBFA00B10126D5F811
:1017F0008420DAF8001021F440511143CAF8001097
:101800002878C043C00613D4D5F89800B0F5807F7F
:1018100005D10098022101F0B3FA00B10126D5F8F4
:101820009820D9F8001021F440711143C9F8001034
:101830002868C043000316D4D5F8A40038B1B0F529
:10184000803F09D0B0F5003F0BD001240AE0019899
:10185000002101F005FA03E00098022101F090FA5E
:1018600004468CB126462868C043400322D4D5F8EC
:101870008800B0F5801F11D0B0F5001F13D0B0F56F
:10188000401F15D0012414E0D5F8A420D9F8001089
:1018900021F440311143C9F80010E4E7386840F4FE
:1018A0000030386004E00098012101F069FA044634
:1018B0005CB126462868C043C00323D4286DA8B174
:1018C000B0F5803F17D001241BE0D5F88820DAF866
:1018D000001021F440111143CAF80010EAE700009B
:1018E0004C44025800480258CFFFFF00386840F4CB
:1018F0000030386004E00198022101F0B1F904469B
:10190000E4B126462868C043800005D4009802212F
:1019100001F036FA00B101262868C04380031BD4C9
:10192000D5F88000B0B1B0F5807F0FD0B0F5007F62
:1019300010D0B0F5407F0DD001240CE05A482A6D3C
:10194000016821F4803111430160DBE7386840F41D
:1019500000303860ECB326462868C043C00207D484
:101960006A6FD8F8001021F000411143C8F8001048
:101970002868C043C00008D4D5F8B820DBF80010B0
:1019800021F480411143CBF800102868C043800245
:1019900007D4EA6ED8F8001021F080711143C8F81E
:1019A00000102868C04340000CD4DBF8001021F47C
:1019B0000041CBF80010DBF80010D5F8BC20114333
:1019C000CBF800102868C04308D437486A6D016816
:1019D00000E018E021F04051114301602868C04345
:1019E000000208D4D5F88C20DAF8001021F4400168
:1019F0001143CAF8001028790024C04300F0010008
:101A000020430AD00FE0D5F88020DAF8001021F446
:101A100040711143CAF800109EE70198002101F0BF
:101A20001FF900B106462879C04300F002002043A8
:101A300005D10198012101F013F900B1064628797A
:101A4000C04300F00400204305D10198022101F0B9
:101A500007F900B106462879C04300F0080020438A
:101A600005D10098002101F08BF900B106462879D4
:101A7000C04300F01000204305D10098012101F07F
:101A80007FF900B106462879C04300F020000443E6
:101A900004D10098022101F073F900B916B10120B8
:101AA000BDE8FE8F0020FBE74C4402582DE9F05FB3
:101AB00004000F467ED0DFF83882D8F8000000F02E
:101AC0000F00B8420CD2D8F8001021F00F013943B2
:101AD000C8F80010D8F8000000F00F00B84269D133
:101AE0002078844D40070AD52069296801F07001EB
:101AF000884204D9296821F07001014329602078C7
:101B00007C4E361D00070AD56069316801F070010E
:101B1000884204D9316821F0700101433160207896
:101B2000C0060AD5A069316801F4E061884204D991
:101B3000316821F4E061014331602078DFF8B4B10D
:101B400080060BF1080B0CD5E1695846DBF8002044
:101B500002F07002914204D9026822F070020A4336
:101B60000260207880070AD5E068296801F00F013B
:101B7000884204D9296821F00F01014329602078A7
:101B8000C0073ED05B49A2682868183920F470600D
:101B9000104328606068022818D0032819D009680B
:101BA000012819D0490700294ADADFF848A1AAF12B
:101BB000080A00E044E0DAF8002022F007020243BD
:101BC000CAF80020FFF724F8814612E0096889036B
:101BD000E9E709688901E6E7C905E4E7FFF718F8CE
:101BE000A0EB090141F28830814202D90320BDE80F
:101BF000F09F6168DAF8000000F03800B0EBC10F28
:101C0000ECD1207880070AD5E068296801F00F013F
:101C1000884204D2296821F00F0101432960D8F8D5
:101C20000010404601F00F01B9420BD9016821F0C4
:101C30000F0139430160006800F00F00B84201D085
:101C40000120D4E7207840070AD52069296801F0EF
:101C50007001884204D2296821F070010143296093
:101C6000207800070AD56069316801F07001884268
:101C700004D2316821F07001014331602078C00640
:101C80000AD5A069316801F4E061884204D2316864
:101C900021F4E06101433160207880060CD5E169D0
:101CA0005846DBF8002002F07002914204D202682C
:101CB00022F070020A43026000F06CF80E492A68B4
:101CC0002B68C2F3032203F00F038A5CC95C02F0A5
:101CD0001F0201F01F01D040084A20FA01F11160F3
:101CE0000749086007480068BDE8F05FFEF7CCBF11
:101CF0000020005218440258FC3F0008180000243D
:101D0000140000240C00002430B500F043F80B4A06
:101D10000B490C4B15681468C5F3032204F00F043B
:101D20008A5C095D02F01F0201F01F01D040064AE3
:101D300020FA01F119601060084630BD18440258BD
:101D4000FC3F0008180000241400002400B5FFF731
:101D5000DBFF05490968054AC1F30211515C01F036
:101D60001F01C84000BD00001C440258FC3F000891
:101D700000B5FFF7C9FF05490968054AC1F302210B
:101D8000515C01F01F01C84000BD00001C44025816
:101D9000FC3F0008454970B545480968434B103B76
:101DA00011F0380208D00111082A03D0102A0BD0F4
:101DB000182A0BD0084670BD19688906FBD519682A
:101DC000C1F3C101C84070BD3A4870BD3749374DB5
:101DD00018310C1D24350A68096826682D6802F040
:101DE000030406F00102C1F30511C5F3CC0515FB90
:101DF00002F200EE102AB8EE400AE9B32F4ADFEDF6
:101E00002E0AB7EE001A6CB1DFED2D1A012C01D0AD
:101E1000022C43D002EE101A1068F8EE422A81EE2E
:101E2000A22A1EE01C68A40611D51B6801EE901AB8
:101E30001168C3F3C103F8EE612AD84001EE900A9D
:101E4000C1F30800F8EE611A81EEA22A0BE001EE60
:101E5000901ADFED1C2A00BFF8EE611A106882EEBE
:101E6000A12AC0F3080001EE900AF8EE611A40EED4
:101E7000201A31EE810A00E015E022EE000A106817
:101E8000C0F34620401C00EE900AF8EE600A80EE97
:101E9000201ABCEEC10A10EE100A70BD01EE901AB5
:101EA000DFED092AD8E7002070BD00001044025879
:101EB0000090D00340787D01000000393044025882
:101EC0000024744A0024744C20BCBE4B2DE9F05F02
:101ED00004007DD0FF4F2078FE4D1837DFF8F493D3
:101EE000103DC00748D0D9F80000396800F038002C
:101EF000102815D0182803D101F0030002280FD0B4
:101F00006068B0F5803F12D010B1B0F5A02F18D0A6
:101F1000286820F480302860286820F4802009E0B8
:101F20002868800328D560680028D2D024E028687B
:101F300040F480302860606888B1FEF769FE06468C
:101F400009E0286840F480202860F0E7FEF760FE92
:101F5000801B64286FD828688003F7D50CE0FEF753
:101F600057FE064605E000BFFEF752FE801B6428C0
:101F7000F0D828688003F7D4207841F20308D54EC2
:101F80000C3E800769D5D9F80000396810F0380098
:101F90000ED0182801D188070AD0E06890B32968CC
:101FA00021F0190101432960FEF732FE824631E03B
:101FB0002868400702D5E06800288AD0E1682868D0
:101FC00020F0190008432860FEF722FE824607E051
:101FD000DFE000BFFEF71CFEA0EB0A000228B9D824
:101FE00028684007F6D500BFFEF70CFE40451BD819
:101FF0002069402812D0316821F47C3141EA003058
:1020000030602AE018E000BFFEF702FEA0EB0A00F5
:1020100002289FD828684007F6D5E5E7306820F405
:102020007C3040F40030EBE7207C316821F0FE4149
:1020300041EA0060E4E70DE1286820F00100286033
:10204000FEF7E6FD824605E0FEF7E2FDA0EB0A00A2
:1020500002288DD828684007F6D42078C0065DD5C0
:10206000D9F80000DFF86CB2396800F03800ABF145
:10207000040B082810D0182803D101F00300012810
:102080000AD0E0690028286838D040F08000286035
:10209000FEF7BEFD824623E02868C00523D5E0692F
:1020A000802876D11FE0206A202821D0316821F0D5
:1020B000F84141EA8060306030E000BF94F82010C1
:1020C000DBF8002022F07C5242EA0161CBF80010DC
:1020D00024E000BFFEF79CFDA0EB0A00022898D880
:1020E0002868C005F6D5FEF78DFD4045E6D8DAE74D
:1020F000306820F0F84040F08040DCE720F08000BD
:102100002860FEF785FD064605E000BFFEF780FD6E
:10211000801B02289DD82868C005F7D420780007C6
:1021200029D56C486169643000298046016811D066
:1021300041F001010160FEF76BFD064605E000BFBE
:10214000FEF766FD801B0228C9D8D8F8000080077A
:10215000F6D510E021F001010160FEF759FD0646B9
:1021600005E000BFFEF754FD801B022872D8D8F8A6
:1021700000008007F6D42078800623D5A0690028C7
:10218000286810D040F480502860FEF741FD0646D4
:1021900005E036E1FEF73CFD801B02285AD828688E
:1021A0008004F7D50EE020F480502860FEF730FD63
:1021B000064604E0FEF72CFD801B02284AD828685A
:1021C0008004F7D4207840074FD5DFF80C81D8F889
:1021D000001041F48071C8F80010FEF719FD0646A2
:1021E00005E000BFFEF714FD801B642832D8D8F844
:1021F0000000C005F6D5374EA068603601280AD029
:1022000008B1052813D0306820F001003060306834
:1022100020F0040002E0306840F001003060A06867
:1022200041F2883A90B1FEF7F3FC80460AE030684C
:1022300040F004003060EEE7FEF7EAFCA0EB080196
:10224000514507D830688007F6D50EE0FEF7E0FC70
:10225000804607E084E000BFFEF7DAFCA0EB08014F
:1022600051457DD830688007F6D4606AB0B3DFF896
:102270006480D9F8001008F120084FF6F87B08F1C7
:102280000409C1F3C2010329A8F1040A69D0022894
:10229000286820F08070286003D0FEF7B9FC04465F
:1022A00084E0FEF7B5FC064605E000BFFEF7B0FC93
:1022B000801B022877D828688001F7D4E26A40F2B0
:1022C000F331386854F8283F884340EA0210184335
:1022D000386004E01044025800480258B5E0217B01
:1022E000434622894FF4FE0C208A4FF0FE474902F4
:1022F000267D521E401EA1F50071C2F308088AB265
:10230000761E0CEA004042EA08020243504607EA01
:1023100006610A431A60DAF8002022F00102CAF8C6
:102320000020D9F80020266A22EA0B0242EAC602FF
:10233000C9F80020DAF80010A26921F00C0111435D
:10234000CAF800100168E26921F00201114301603E
:10235000016841F480310160016841F4003101E01D
:1023600021E027E00160016841F4802101600168FB
:1023700041F001010160286840F080702860FEF79C
:1023800047FC044605E000BFFEF742FC001B0228A4
:1023900009D828688001F7D557E000BFFEF738FC60
:1023A000001B022802D90320BDE8F09F28688001A5
:1023B000F4D44AE039680128D8F8000021D0A26A94
:1023C00001F0030393421CD1E26AC1F305118A4272
:1023D00017D1216BC0F30802491E8A4211D1616BEB
:1023E000C0F34622491E91420BD1A16BC0F30642B5
:1023F000491E914205D1E16BC0F30660491E81423E
:1024000001D00120D0E7A16C4E46D9F80000C0F3FE
:10241000CC00814219D0DAF80000554620F00100C6
:10242000CAF80000FEF7F4FB4FEA0007FEF7F0FBE6
:10243000B842FBD0A26C306820EA0B0040EAC20030
:102440003060286840F0010028600020ACE7401EA2
:10245000B0F1807F10B501D3012010BD4FF0E02412
:1024600060610F21601701F057F90020A06107217A
:10247000216110BD30B590F88410012918D00122D7
:1024800080F884202421C0F88810002220240168CC
:102490000B680D6823F0005325F001050D604266BE
:1024A00001680B60C0F8884080F88420104630BD79
:1024B000022030BD7047704770B5044690F8840024
:1024C00001281DD0012284F884202420C4F888002B
:1024D00020680568026822F00102026020688268B4
:1024E00022F060620A438260204600F0B9FD226853
:1024F000202100201560C4F8881084F8840070BD85
:10250000022070BD70B5044690F8840001281DD0EB
:10251000012284F884202420C4F8880020680568FB
:10252000026822F0010202602068826822F06042A4
:102530000A438260204600F093FD2268202100209B
:102540001560C4F8881084F8840070BD022070BD46
:1025500070477047704700002DE9F041076800257B
:10256000044640F60F030226F8693968BA68184233
:102570000AD183067ED501F0200302F0805C53EA85
:102580000C0377D0616F74E1CF4BDFF840C3134089
:1025900001EA0C0C53EA0C0C6CD05FEAC07C0CD046
:1025A0005FEAC15C09D54FF0010CC7F820C0D4F830
:1025B000907047F00107C4F89070870709D5D707D6
:1025C00007D027683E62D4F8906046F00406C4F84D
:1025D000906046070AD5D60708D0276804263E62D1
:1025E000D4F8906046F00206C4F8906006070CD557
:1025F00001F020061E4308D0266808233362D4F871
:10260000903043F00803C4F8903003050BD54B011C
:1026100009D526684FF400633362D4F8903043F054
:102620002003C4F89030D4F89030002B3DD08006C1
:1026300009D501F0200002F08051084303D0616FFA
:1026400009B1204688472168D4F890008968490676
:1026500002D410F0280F2AD0204600F0E7FD2068B1
:10266000806840061ED52068083050E8001F21F021
:10267000400100E021E040E80012002AF3D1D4F844
:10268000800078B192490165D4F88000FEF74AF8DD
:1026900000280AD0D4F88000016D00E02046BDE893
:1026A000F04108472046FFF755FFBDE8F08120467E
:1026B000FFF750FFC4F89050F7E7D4F86CC0202320
:1026C000BCF1010F7ED15FEAC06C7BD55FEAC16CC3
:1026D00078D51020386220688068400673D5D4F819
:1026E00080107C4A0868904234D07A4A183290426E
:1026F00030D0784A303290422CD0764A48329042DC
:1027000028D0744A6032904224D0724A7832904283
:1027100020D0704A903290421CD06E4AA83290422B
:1027200018D06D4A904215D06B4A1832904211D0A1
:10273000694A303290420DD0674A4832904209D0FF
:10274000654A6032904205D0634A7832904201D0A7
:10275000614A903240680004000CA6D0B4F85C20B6
:102760008242A2D9A4F85E00C869B0F5807F2FD05C
:10277000216851E8000F20F4807041E80002002A2F
:10278000F6D12068083050E8001F21F0010140E830
:102790000012002AF5D12068083050E8001F21F00F
:1027A000400140E80012002AF5D1C4F88C30E566FB
:1027B000216851E8000F20F0100041E80002002AD3
:1027C000F6D101E040E00BE0D4F88000FDF7FAFD1F
:1027D0002667B4F85C00B4F85E10401A81B22FE0AE
:1027E000B4F85C00B4F85E10B4F85E20401A81B210
:1027F000002AB2D00029B0D0226852E8000F20F49D
:10280000907042E80007002FF6D1344F206800F1A5
:10281000080050E8002F02EA070240E8002CBCF153
:10282000000FF3D1C4F88C30E5666567206850E886
:10283000002F22F0100240E80023002BF6D126677B
:102840002046FFF737FE30E7C60209D5560207D506
:102850004FF4801038622046BDE8F041FFF779BEA2
:1028600006060AD501F0800602F40002164304D0E1
:10287000A16F00297FF412AF17E7420611D54A066F
:102880000FD52046026852E8001F21F0400142E8BF
:102890000014002CF6D1C0F88830856700F06EF97E
:1028A00003E7020206D54A0004D52046BDE8F04100
:1028B000FFF74EBEC001C6D50029C4DA2046BDE8E8
:1028C000F041FFF7F8BD00000100001020010004F6
:1028D000173200081000024010040240FEFFFFEF14
:1028E00010B5040003D0D4F8880010B107E001202F
:1028F00010BD002084F88400204600F027F8242032
:10290000C4F888002068016821F0010101602046B8
:1029100000F0B6FC0128EBD0A06A10B1204600F010
:10292000C1FB2068416821F49041416020688168C2
:1029300021F02A0181602068016841F001010160F5
:102940002046BDE8104000F011BC000010B5B6B044
:102950000446142130A8FDF7F5FCC0216846FDF7B8
:10296000F1FC1D492068884233D100201F900121CD
:102970000446CDE900106846FEF7C2FB08B1FDF73A
:102980001FFD1648016841F010010160006800F069
:102990001000359011481038016841F001010160C4
:1029A000006830AB022100F0010035904FF4C060A8
:1029B000072283E813000A4830A9CDE93342FEF725
:1029C00005F8002225201146FEF7E8F92520FEF73C
:1029D000D7F936B010BD000000100140F044025895
:1029E000000002582DE9F84F0446D0F88C009B46B1
:1029F00016460D46202802D00220BDE8F88FC5B14A
:102A0000BEB10027C4F890702220C4F88C00E7669D
:102A10002034FEF7FDF8824654F8180CA6874FF4D0
:102A20008053E687FF21203C984207D1226912B1EA
:102A300019E00120E1E740F2FF1114E04FF07F02BE
:102A400078B1B0F1805F11D0A4F860709842B4F80A
:102A500060704FF0200801D1206970B12E4600252A
:102A60000CE0266936B9A4F86010EFE7216909B1D6
:102A70003F21F8E7A4F86020E8E7002607F0FF0907
:102A8000B4F85E00F0B10022534620212046CDF874
:102A900000B000F0CBFD18B1C4F88C800320ACE787
:102AA0002068406A56B100EA090006F8010B00BF31
:102AB000B4F85E00401EA4F85E00E1E7384025F857
:102AC000020BF5E7C4F88C80002096E72DE9F84367
:102AD0000446D0F88800984616460D46202802D0B5
:102AE0000220BDE8F883A5B19EB10021C4F8901082
:102AF0002120C4F888001834FEF78AF8814654F87B
:102B0000100CA687E6872027183CB0F5805F02D01E
:102B100003E00120E5E7206910B12E46002510E012
:102B200000260EE08021204600F080FDC0B9DEB115
:102B300016F8010B21688862B4F85600401EA4F80C
:102B40005600B4F856004B464FF00002CDF8008016
:102B50000028E7D14FF04001204600F067FD48B162
:102B6000C4F888700320BCE735F8020B2168C0F375
:102B70000800E0E7C4F888700020B2E77047FEE77D
:102B800030B587B014216846FDF7DCFB16480168B4
:102B900041F004010160016801F004010591016840
:102BA00041F080010160016801F080010591016838
:102BB00041F00101016000684FF400540B4D002208
:102BC00000F00100214605902846FEF715F8012186
:102BD0000020CDE90041CDE9021069462846FDF705
:102BE000F5FE07B030BD0000E0440258000802586E
:102BF0001848002110B5164C0C224FF4E133046044
:102C0000C0E90131C160C0E904128161C1610162A2
:102C100041628162FFF764FE08B1FDF7D1FB0D4808
:102C20000021FFF76FFC08B1FDF7CAFB094800213E
:102C3000FFF742FC08B1FDF7C3FB0648FFF71AFC9B
:102C4000002803D0BDE81040FDF7BABB10BD00005E
:102C50000010014024100024FEE7FEE7704700004A
:102C60002DE9F047454D044689464FF0000A286893
:102C7000C04380070AD0414E283E306820F0806073
:102C80003060FDF7C5FF0746B04608E00120BDE80B
:102C9000F08700BFFDF7BCFFC01B022867D8D8F83B
:102CA00000000001F6D4206829684FF4FE0721F4E3
:102CB0007C313E0241EA00302860207AA389B4F8D2
:102CC00004C040022D4D2D495B1E227CACF1010C4D
:102CD0001035091DA0F5007080B2521ECCF3080C0F
:102CE00007EA034340EA0C00184306EA0262104375
:102CF00028600868626920F0C000104308600A6814
:102D0000A06922F0200202430A60281D0A6822F00E
:102D100010020A6002684FF6F873E4699A4342EAC7
:102D2000C40202600868B9F1000F40F010020A60A6
:102D300011D00868B9F1010F11D040F400100860FB
:102D4000D8F80000444640F08060C8F80000FDF765
:102D50005FFF05460DE0086840F40020EFE740F40F
:102D60008010ECE7FDF754FF401B022801D9032037
:102D70008DE720680001F5D5504688E728440258C1
:102D80002DE9F047454D044689464FF0000A286872
:102D9000C04380070AD0414E283E306820F0805062
:102DA0003060FDF735FF0746B04608E00120BDE87A
:102DB000F08700BFFDF72CFFC01B022867D8D8F8AA
:102DC00000008000F6D4208829684FF4FE0721F027
:102DD0007C713E0241EA00502860207AA389B4F851
:102DE00004C040022D4D2D495B1E227CACF1010C2C
:102DF0001835091DA0F5007080B2521ECCF3080CE6
:102E000007EA034340EA0C00184306EA0262104353
:102E100028600868626920F44060104308600A680E
:102E2000A06922F4007202430A60281D0A6822F495
:102E300080720A6002684FF6F873E4699A4342EAC6
:102E4000C40202600868B9F1000F40F480720A60A1
:102E500011D00868B9F1010F11D040F080700860FE
:102E6000D8F80000444640F08050C8F80000FDF754
:102E7000CFFE05460DE0086840F48000EFE740F41F
:102E80000000ECE7FDF7C4FE401B022801D9032037
:102E90008DE720688000F5D5504688E72844025821
:102EA0007047FDF7BBBE000030B59DB04C216846B1
:102EB000FDF748FA202113A8FDF744FA0220FDF798
:102EC0009FFF2D4900242D480A6822F001020A6064
:102ED0000A68026842F440420260026802F440421A
:102EE0001B9202689204FCD5254A136843F0020342
:102EF0001360126802F002021B92026842F4404220
:102F0000026002680A6842F001020A60096801F082
:102F100001011B9101688904FCD502200090402525
:102F200004950121039104220B921523CDE9090494
:102F3000CDE90C300FAB0E900C2183E813006846EE
:102F40001294FEF7C3FF08B172B6FEE713AB3F2041
:102F5000032183E813004FF480621A950221CDE922
:102F60001645CDE9185213A8FEF7A0FD002801D0A0
:102F700072B6FEE71DB030BD2C0400581848025848
:102F8000F44402582C48F0B52C4A016841F4700111
:102F90000160106800F00F00072804D2106820F0CC
:102FA0000F00C01D106026490020254C10340B680E
:102FB000244D43F001030B6020600B682B400B6035
:102FC000136803F00F03072B04D9136823F00F03D2
:102FD000DB1D13601A4C1C4A18341C4B261D371D70
:102FE0002060174C1A4D28343060261D3860371D7C
:102FF00023603B1D35601C1D3A60251D2E1D186089
:10300000331D22602860326018600A680C4B114C36
:1030100022F4802260330A60186020686FF30F008A
:10302000B0F1005F03D20C490120C1F8080143F25E
:10303000D2000A490860F0BD88ED00E0002000528F
:10304000004402587FEDF6EA80020101000202020C
:103050000000FF010010005C0080005100400052A1
:1030600030B5416EB9B101680D4B03F108048A68AF
:103070008968C2F34262490F5D5C615C2D01B5FB5A
:10308000F1F1A0F86A10995CA25C0901B1FBF2F1C0
:10309000A0F8681030BD0121A0F86A10F8E7000020
:1030A000EC3F000890F82810C90706D00168C36AF1
:1030B0004A6822F400321A434A6090F828108907BF
:1030C00006D50168036B4A6822F480321A434A60CD
:1030D00090F82810490706D50168436B4A6822F426
:1030E00080221A434A6090F82810090706D5016823
:1030F000836B4A6822F400421A434A6090F8281011
:10310000C90606D50168C36B8A6822F480521A4347
:103110008A6090F82810890606D50168036C8A68D1
:1031200022F400521A438A6090F82810490611D5FB
:103130000168436C4A6822F480121A434A60416C69
:10314000B1F5801F06D10168836C4A6822F4C00281
:103150001A434A6090F82810090606D50168C26C27
:10316000486820F400201043486070472DE9F84378
:1031700000250446C0F89050FDF74AFD80462068BF
:1031800020266FF07E470068000713D500224346D3
:1031900031042046009700F049FA58B1216851E8FF
:1031A000000F20F0800041E80002002AF6D1C4F8A8
:1031B000886021E020680068400722D5002243464D
:1031C0004FF480012046009700F030FAC8B1206823
:1031D00050E8001F21F4907140E80012002AF6D157
:1031E0002068083050E8001F21F0010140E800127B
:1031F000002AF5D1C4F88C60032084F88450BDE81F
:10320000F883C4F88860C4F88C60E5662567002000
:1032100084F88450F3E710B5806B0021A0F85E10AD
:10322000A0F85610FFF796F910BD000010B502681F
:1032300052E8001F21F4907142E80013002BF6D1F0
:103240000E4B0268083252E8001F194042E8001491
:10325000002CF6D1C16E012908D1026852E8001F86
:1032600021F0100142E80013002BF6D100212022AA
:10327000C0F88C20C166416710BD0000FEFFFFEF63
:103280002DE9F04304468068D84E87B0D84B2168BA
:10329000D4E90427D4F81CC010430A68002547EA83
:1032A0000C073843324002430A602068E2684168F4
:1032B00021F44051114341602268A1699A4201D032
:1032C000206A01439768DFF82CC3CB4ECB4807EA4E
:1032D0000C070F4397602168676ACA6A22F00F02E1
:1032E0003A43CA622268B2420ED1006800F0380048
:1032F000182873D047DCB8B3082879D010286FD1CC
:1033000078E028287ED17BE0BD498A4209D1006857
:1033100000F00700062875D2DFE800F0546A6C6EF2
:103320007072B8498A4209D1006800F00700062887
:1033300068D2DFE800F0475D5F616365B2498A42A9
:1033400009D1006800F0070006285BD2DFE800F032
:103350003A5052545658AD498A420BD1006800F099
:10336000070006284ED200E010E0DFE800F02B4115
:1033700043454749A6498A420AD1006800F038000F
:10338000182839D0B7DD2028BBD13CE001203AE035
:10339000A0498A4209D1006800F00700062831D20E
:1033A000DFE800F01026282A2C2E9B498A420BD1F8
:1033B000006800F00700062824D2DFE800F00319B7
:1033C0001B1D1F2100201EE09A421BD18B48001DAF
:1033D000006800F00700062814D202E00CE007E0C5
:1033E00010E0DFE800F0030507090B0D02200AE0FA
:1033F000042008E0082006E0102004E0202002E07D
:10340000402000E080208549DFF814829A42854AF6
:103410004FF400434FEA21174FF000064ED1102819
:103420001AD006DC022809D004280BD008287CD149
:103430000DE020283ED0402877D13DE0FDF70AFD81
:10344000014610E06846FDF717FD01990BE003A85F
:10345000FDF7B4FD049906E01068800605D51068F4
:10346000C0F3C100C140002970D0606A676838F8B5
:10347000102007EB4703B1FBF2F0834255D8B0EBC5
:10348000073F52D8002308461946FCF723FF02469F
:103490007808130E120243EA012110183A467141CE
:1034A0000023FCF717FF604AA0F5407191423CD819
:1034B00021688FE03946D8E71946D6E7D4F81CC012
:1034C0004FF6EF799C4546D1082819D005DC58B154
:1034D00001280CD0042875D10DE0102815D0202823
:1034E00035D040286ED134E0FEF730FC01E0FEF725
:1034F0003FFC014610E06846FDF7BEFC01990BE079
:1035000003A8FDF75BFD049906E01068800604D56A
:103510001068C0F3C100C140C1B1636A606838F887
:103520001330B1FBF3F1490000E04BE001EB500137
:10353000B1FBF0F0A0F11001494543D84FF6F0730C
:103540002168C0F342021840104343E043E039468B
:10355000E3E71946E1E7082819D005DC58B101284E
:103560000CD004282ED10DE0102815D020282BD007
:10357000402827D12AE0FEF7E9FB01E0FEF7F8FB3F
:10358000014610E06846FDF777FC01990BE003A8BF
:10359000FDF714FD049906E01068800604D5106854
:1035A000C0F3C100C140B1B1636A606838F813303C
:1035B000B1FBF3F101EB5001B1FBF0F0A0F1100110
:1035C000494505D9012506E03946EDE71946EBE7FF
:1035D000216880B2C8600120A4F86A00A4F86800DD
:1035E00028466667A66707B0BDE8F083F369FFCF9A
:1035F000000C0058FFF4FF11001001405444025821
:103600000044004000480040004C00400050004092
:103610000014014000780040007C00400090D0037E
:10362000D43F000800440258FFFC0F002DE9F0478A
:10363000994617460E460446089D4FF000082FE0B5
:10364000681C2DD0FDF7E4FAA0EB0900A84214D8BD
:103650009DB120680168490722D5C169C94309079E
:103660000DD4082505622046FFF7E0FDC4F8905010
:10367000012084F88480BDE8F0870320FBE7C0695F
:10368000C04300050CD421684FF400600862204656
:10369000FFF7CCFD2021C4F8901084F88480ECE77B
:1036A0002068C06936EA000004D00020B842C7D0C4
:1036B0000020E0E70120F9E70148FEF74DBF0000D8
:1036C00024100024FEE700000FB4054B10B503A939
:1036D000044A029800F03EFB10BC5DF814FB0000A9
:1036E000453E00081C00002403B4019841000098E6
:1036F00050EAC12018BF04204A0D18BF40F0010055
:1037000040F2FF72B2EB515F08BF40F002000128A7
:1037100008BF052002B07047090700284FEA116171
:1037200004DB00F1E02080F80014704700F00F0087
:1037300000F1E02080F8141D704700000000000038
:1037400010B529499FED261B2DED020B84B005987D
:1037500020F000408842DCBF00209DED040B2EDDF0
:103760002249884209D1049840B94FF0010000F085
:10377000EBFA00F0C1FA06B010BD05DB9DED040BBD
:1037800030EE000B06B010BD68469DED040B00F056
:103790002FF810F003000DD0012814D09DED021B6E
:1037A0009DED000B022816D000F0AAF906B0B1EE8C
:1037B000400B10BD9DED021B9DED000B012000F0A4
:1037C00047FA06B010BD9DED021B9DED000B00F009
:1037D00097F906B010BD012000F03AFAE6E70000C4
:1037E0000000000000000000FB21E93F0000F07F26
:1037F0002DE9F14F04462DED020B2DED048B94B015
:103800009FED9D0B80ED020B199E9D4826F0004513
:1038100085420ADC9DED180B002084ED000B14B0EE
:10382000BDEC048B03B0BDE8F08F96489FED969BEE
:103830009FED978BA84225DD97489FED991B9FED43
:103840009A2B9DED180B002E0DDD30EE490B8542B5
:1038500012BF30EE480B30EE410B30EE420B84EDE0
:10386000000B0120DBE730EE090B854212BF30EE82
:10387000080B30EE010B30EE020B84ED000B4FF025
:10388000FF30CCE78A48A84253DB9DED180B51EC82
:10389000100B00F0CAFA41EC100BB0EE401B9FED8C
:1038A000862B9FED870B290DDFF81CC201EE020B62
:1038B0000120FDEEC00B10EE903A00EE903AB8EE0B
:1038C000E02BB0EE410B02EE490B22EE081BFC444C
:1038D000032830EE411B84ED001B1DD011EE902A11
:1038E00000EB4015113DC2F30A528A1A954213DAD1
:1038F0000CEB0012B0EE403B92ED000B401C20EEB2
:10390000021B33EE410B33EE403B33EE411B92ED95
:10391000023B12EE031BDBE7002EA8BF1846BFF6E2
:103920007EAF94ED000B5842B1EE400B84ED000BDE
:1039300075E7C6F3130040F4801EC6F30A50A0F2E8
:10394000F530471100F01F05C5F12000DDF860B02B
:10395000139000200890099005200DF1080C5B4998
:10396000002D07EB0002794408BF51F8221009D05E
:1039700051F8223001EB8201AB404A68139922FAD8
:1039800001F11943A1FB0E26A1FB0B131A449A4225
:1039900034BF0123002303EB06080CEB8003D3E9BB
:1039A00001A60E448E4234BF0121002192448A4474
:1039B00011B1924502D903E0924501D2012100E004
:1039C0000021C3E901A641444CF82010011EA0F1DA
:1039D0000100C4DC04989DED050A00F10050810F40
:1039E00004989FED3B4B800001EE100ADDED060AC6
:1039F0009DED072AB8EEC13BB8EE401BB8EE600B58
:103A0000B8EE422B002021EE041B9FED334B20EE3D
:103A1000040B9FED334B22EE042B30EE024B34EEC1
:103A2000014B34EE034B8DED004B00909DED004BB0
:103A3000199834EE433B10F0004F33EE411B31EE4A
:103A4000400B32EE401B9DED000B9FED272B20EE2F
:103A5000020B9FED272B01EE020B9DED001B9FED4E
:103A6000262B01EE020B1CBF4942B1EE400B84ED48
:103A7000000B0846D3E60000000000000000000034
:103A8000FB21E93F7CD9024000004054FB21F93F73
:103A90003163621A61B4D03DFB21F93F00000000A0
:103AA0000000601A61B4D03D7370032E8A19A33BE5
:103AB000FB2139410000000083C8C96D305FE43F3D
:103AC000000000000000E03F6E0700000607000055
:103AD000000000000000103E000000000000103C4C
:103AE000000000000000103A3326A611460B113CDE
:103AF000182D4454FB21F93D00000054FB21F93DF1
:103B000010B52DED040B2DED068B82B0B0EE41AB60
:103B100009989FED299B20F00044B4F1795F0FDAFA
:103B20009DED080BBDEEC00B10EE100A002801BF82
:103B3000B0EE490B02B0BDEC068B04B008BF10BD5F
:103B40009DED080B1E48062120EE008BB0EE480BC1
:103B5000784400F045F820EE080B9DED081B1C484A
:103B6000844228EE000B01EE4A0B9FED171B28EE56
:103B7000011BBCBF31EE400B39EE400B16DB154884
:103B8000A042BCBF9FED142B8DED002B06DBA4F5EE
:103B900000100190002000909DED002B31EE421BA3
:103BA00039EE422B31EE400B32EE400B02B0BDEC51
:103BB000068B04B010BD0000000000000000F03FC4
:103BC000BC04000000000000000000000000E03F16
:103BD0003333D33F0000E93F000000000000D23F34
:103BE000491E00EBC102B0EE401B92ED000B31F01C
:103BF00006020DD0491E00EBC102B0EE403B92ED33
:103C0000002B31F00602B0EE420B03EE010BF1D1B6
:103C1000022914D004290AD0062918BF704790ED54
:103C20000A2B00EE012B90ED080B02EE010B90ED3C
:103C3000062B00EE012B90ED040B02EE010B90ED34
:103C4000022B00EE012B90ED000B02EE010B7047F2
:103C500031B504462DED040B2DED068BB0EE419BE6
:103C600007989DED060B20F00040B0F1795F0DDA6A
:103C700051EC100BFFF738FD042808BF00F048F89E
:103C80009DED060BBDEC068B05B030BD20EE008B24
:103C90001348052128EE00ABB0EE480B7844FFF73F
:103CA0009FFF9FED111B8CB19FED112B29EE022B75
:103CB0000AEE402B9DED060B18EE029B0AEE419B8F
:103CC00030EE490BBDEC068B05B030BD08EE001B95
:103CD0009DED060B0AEE010BBDEC068B05B030BD69
:103CE0006804000000000000495555555555C5BFF2
:103CF000000000000000E03F9FED031B81EE010B80
:103D000070470000000000000000000000000000FC
:103D10009FED030B20EE000B704700000000000039
:103D2000000000000000001002E008C8121F08C1D7
:103D3000002AFAD170477047002001E001C1121F2C
:103D4000002AFBD17047000001490860704700005D
:103D5000200000242DE9F84F9946924688460546F2
:103D6000002706E025280AD051464A4690476D1C98
:103D70007F1C28780028F5D13846BDE8F88F00234D
:103D800015F8011F18462E2915D115F8011F042317
:103D90002A290DD06FF02F022978A1F13004092CC7
:103DA00009D800EB800002EB400008446D1CF3E7EB
:103DB00058F8040B6D1C2A78002ADDD0632A07D03E
:103DC000732A0FD0104651464A4690477F1C2AE07E
:103DD00018F8042B8DF8002000218DF801106E4694
:103DE000012103E058F8046B4FF0FF315A074FF000
:103DF000000401D409E0641C84420BDA8C42FADB33
:103E0000325D002AF7D105E0641C8C42FCDB305D9A
:103E10000028F9D1274404E016F8010B51464A4620
:103E20009047641EF8D26D1CA3E782B0CDE9000173
:103E300021F0004001909DED000B02B051EC100B01
:103E40007047000013B5044801224FF6FF7369461E
:103E5000FEF73CFE00981CBD2410002470B5012222
:103E60000A4D540328462146FCF7C6FE4FF49676C9
:103E70003046FCF799FD002221462846FCF7BCFE9F
:103E80003046BDE87040FCF78FBD000000080258C6
:103E90002DED068B84B000240094019402940394C9
:103EA000FCF740FF01208DF80C001F218DF8081051
:103EB00087228DF809208DF80D008DF800006846E6
:103EC0008DF80A408DF80E408DF8014001948DF870
:103ED0000B408DF80F40FCF7F7FE0420FCF730FF95
:103EE000FCF7A4FEFEF7E0FFFEF74AFEFEF780FEB9
:103EF000174D4FF480669FED148A9FED149AF1EEF2
:103F0000048AB0EE08AB600000EE100AB8EEC00AFA
:103F100020EE080A20EE280A20EE090AB7EEC00AB1
:103F2000FFF70EFC20EE0A0B05EB8400641CB44284
:103F3000B7EEC00B80ED000AE5DB00BFFFF78EFF98
:103F400000F008F8FAE70000DB0F49400000803A73
:103F5000240000242DE9F0411A4914231A480122B3
:103F6000FEF740FD174E761E10B97078242826D033
:103F70003078012821D1134C4FF48068134F641C12
:103F80005FF0000557F82500206011A02178FFF7A9
:103F90009BFB61780EA0FFF797FBA1780CA0FFF7C1
:103FA00093FBE1780AA0FFF78FFB0120FCF7FCFCF4
:103FB0006D1C4545E6DB00203070BDE8F081012036
:103FC0003070D8E7010000242410002424000024CD
:103FD00025630000010002000400060008000A003A
:103FE0000C001000200040008000000101010103CE
:103FF000070100000804020408010101000000009C
:10400000010203040102030406070809000000007E
:104010004C5555555555A53F7751C1166CC156BFE6
:104020009015CB19A001FA3EAD529C804F7E92BEF6
:10403000C4B1B4BD9EEE213ED43888BEE9FAA8BD15
:1040400000004054FB21F93F3163621A61B4D03D56
:104050000000601A61B4D03D7370032E8A19A33B2F
:104060000000002E8A19A33BC14920259A837B3981
:1040700000000000000000006E83F9A22915444EE4
:10408000D15727FCC0DD34F5999562DB4190433C64
:10409000AB6351FE61C5BBDE3A6E24B7E0D24D4240
:1040A000EA2E49061C92D1091CEB1DFE3EA729B140
:1040B000F53582E88444BB2E26709CE9417E5FB4CE
:1040C00039D69139F43953838B5F849C3B28F9BDF1
:1040D000FF97F81F0F9805DE8B112FEF1F6D0A5AFF
:1040E000CF7E366DB709CB27663F464F2DEA5F9EE0
:1040F000C7BA27757BF1E5EBF739073DEA92528A9B
:10410000B15FFB6B085D8D1FA6F810111111813F87
:10411000D561C119A0012ABF7DFEB157E31DC73E7D
:10412000EB9C2B8AE6E55ABE7CD5CF5A3AD9E53DC1
:10413000504100080000002424000000283D000831
:10414000744100082400002494140000383D000845
:10415000000000000000000001000000100000004E
:10416000000000000090D0030090D0030000000089
:04417000000000004B
:040000050800029954
:00000001FF
