:020000040800F2
:10000000903E0024B10200082B6D0008296A000808
:10001000296D0008F5230008D178000800000000D1
:10002000000000000000000000000000716F0008E8
:100030003D280008000000002D6D0008756F0008C5
:10004000CB020008CB020008CB020008CB0200085C
:10005000CB020008CB020008CB020008CB0200084C
:10006000CB020008CB020008CB020008F9230008ED
:10007000CB020008CB020008CB020008CB0200082C
:10008000CB020008CB020008CB020008CB0200081C
:10009000CB020008CB020008CB020008CB0200080C
:1000A000CB020008CB020008CB020008CB020008FC
:1000B000CB020008CB020008CB020008CB020008EC
:1000C000CB020008CB020008CB020008CB020008DC
:1000D000CB020008CB020008CB020008CB020008CC
:1000E000CB020008CB02000800000000CB02000891
:1000F000CB020008CB020008CB020008CB020008AC
:10010000CB020008CB02000841710008CB020008B6
:10011000CB020008CB0200084D710008CB0200089A
:10012000CB020008CB020008CB020008CB0200087B
:10013000CB020008CB020008CB020008CB0200086B
:1001400000000000000000000000000000000000AF
:10015000CB020008CB020008CB020008CB0200084B
:10016000CB020008CB020008CB020008CB0200083B
:10017000CB020008CB020008CB020008CB0200082B
:10018000CB020008CB020008CB020008CB0200081B
:10019000CB020008CB020008CB020008CB0200080B
:1001A000CB020008CB020008CB020008CB020008FB
:1001B000CB020008CB020008CB020008CB020008EB
:1001C000CB020008CB020008CB020008CB020008DB
:1001D000CB020008CB020008CB020008CB020008CB
:1001E000CB020008CB020008CB020008CB020008BB
:1001F000CB020008CB020008CB020008CB020008AB
:10020000CB020008CB020008CB020008CB0200089A
:10021000CB020008CB020008CB020008CB0200088A
:10022000CB020008CB020008CB020008000000004F
:10023000CB020008CB02000800000000CB0200083F
:10024000CB020008CB020008CB020008CB0200085A
:10025000CB020008CB020008CB020008CB0200084A
:10026000CB020008CB020008CB020008CB0200083A
:10027000CB020008CB020008CB02000800000000FF
:10028000CB020008CB020008CB02000800000000EF
:1002900000000000CB020008DFF810D000F05CFB8B
:1002A0000048004739850008AFF30080903E0024E5
:1002B0000648804706480047FEE7FEE7FEE7FEE700
:1002C000FEE7FEE7FEE7FEE7FEE7FEE765700008F3
:1002D000990200082DE9F05F0546002092469B46F2
:1002E00088460646814640241BE02846414647464C
:1002F000224600F032F953465A46C01A914110D3B3
:1003000011461846224600F019F92D1A67EB01082C
:100310004F4622460120002100F010F917EB00099A
:100320004E41201EA4F10104DFDC484631462A4636
:100330004346BDE8F09FD2B201E000F8012B491E10
:10034000FBD270470022F6E710B513460A46044672
:100350001946FFF7F0FF204610BDF0B480EA010215
:10036000D40F4200B2EB410F02D2024608461146BA
:100370004A0042D0C30DDDB2C1F3C752AD1A202DE1
:1003800035DAC1F3160141F4000204B15242C5F15D
:10039000200602FA06F12A411044B3EBD05F23D0C5
:1003A000C4B1012DA0EBC35009DCF0BC4FF00042FA
:1003B00002EAC352DBB200F5000000F0E7B84000EB
:1003C00000F1807000EBC350A0F1807040EAD17062
:1003D000490009E0490841EAC071A0EBC35000F5AB
:1003E0000000400800EBC350F0BC00F0C6B861420A
:1003F000012202EB4101001BF6E7F0BC704781F0DF
:100400000041AAE780F00040A7E780EA010210B5AA
:1004100002F00043400022D04A001FD0010E01EB41
:100420001261C0F35600C2F3560240F4000042F4D9
:100430000002A0FB022000047F39140400D0401CFD
:1004400050EA124001D44000491EC2B20C0604EB2F
:10045000D010401C4008802A02D003E0002010BDCC
:1004600020F00100002900DA0020184310BD30B44C
:1004700080EA010202F0004530F0004221F0004025
:1004800013D090B1C30DD40DC2F31601C0F3160002
:10049000E41A41F4000140F400027D34914201D39A
:1004A000641C00E04900002C02DA30BC00207047D8
:1004B0004FF400000023914201D3891A03434008FE
:1004C0004FEA4101F7D151B1914202D14FF00041C1
:1004D00005E002D24FF0010101E06FF0010103EBF2
:1004E000C450284430BC00F048B8002801DBC0F1FB
:1004F0000040002901DBC1F10041814201D201200D
:1005000070470020704796230022114600F03EB845
:1005100030B50B46014600202022012409E021FAD3
:1005200002F59D4205D303FA02F5491B04FA02F5D0
:100530002844151EA2F10102F1DC30BD202A04DBA3
:10054000203A00FA02F1002070479140C2F12003E6
:1005500020FA03F3194390407047202A04DB203A25
:1005600021FA02F00021704721FA02F3D040C2F1D3
:10057000200291400843194670470029A8BF7047E0
:10058000401C490008BF20F00100704710B4B0FAC9
:1005900080FC00FA0CF050EA010404BF10BC704764
:1005A00049B1CCF1200421FA04F411FA0CF118BF7E
:1005B000012121430843A3EB0C01CB1D4FEA00614D
:1005C0004FEA102042BF002010BC704700EBC35020
:1005D00010440029A4BF10BC7047401C490008BF4C
:1005E00020F0010010BC70472DE9FE4F804681EAE3
:1005F0000300C00F0C46009021F0004123F000459D
:10060000B8EB0200A94105D24046214690461C465F
:100610000B46024623F00040104347D0270DC7F396
:100620000A00C3F30A510290401A019040286BDA85
:10063000C3F3130040F4801B0098924620B10023BE
:10064000D2EB030A63EB0B0B01985946C0F1400251
:100650005046FFF773FF06460D4650465946019A2D
:1006600000F08CF910EB08006141002487EA115278
:1006700084EAE7731A4340D0009A62B3019A012AD0
:100680004FEA075215DC001B61EB02014FF00042FC
:1006900002EA0752CDE90042001C41F580113246C2
:1006A0002B4600F08CF903B0BDE8F08F40462146A0
:1006B000F9E7001B61EB0201001C41F580130018F3
:1006C0005B412018A2F5001747EB030140EAD57003
:1006D000B6196D4111E06D084FEA360645EAC0755E
:1006E0004FEA0752001B61EB0201001C41F580112B
:1006F00049084FEA30000019514132462B4603B0F9
:10070000BDE8F04F00F04CB90098012240000023F2
:10071000D0EB020263EBE073009821464FEAE074ED
:10072000B8EB000061EB0401E9E783F000435BE70D
:1007300081F0004158E72DE9FE4F81EA030404F0FF
:10074000004421F0004100944FF0000B23F00043DF
:1007500050EA01045ED052EA03045BD0C3F30A54AA
:10076000C1F30A552C44A4F2F3340194A0FB0254C3
:10077000C1F3130141F48011C3F3130343F4801355
:1007800001FB024400FB034E840A970A44EA8154A9
:1007900047EA8357A4FB076802958D0A05FB078586
:1007A0004FEA932C04FB0C542705029D4FEA065890
:1007B00047EA1637B5EB08056EEB070C870E920E6D
:1007C00047EA811742EA8312A7FB0201B6EB0B014D
:1007D00064EB00042B0D43EA0C335E1844EB1C5011
:1007E000DA465146E7FB0201C5F313044FEA0B3327
:1007F00043EA14534FEA0432019C43EA0603A4F18E
:100800000C040294009CCDE900B400F0D8F803B0C9
:10081000BDE8F08F00200146F9E72DE9F04D81EAAF
:10082000030404F0004B21F0004514464FF0000A89
:1008300023F0004150EA050220D054EA01021DD005
:10084000C5F30A570246C5F31303C1F31300C1F3FE
:100850000A5640F4801543F48013A7EB0608101BDA
:10086000D64608F2FD3873EB050002D308F1010803
:1008700001E092185B41B8F1000F03DA0020014655
:10088000BDE8F08D00204FF48011064684460EE04E
:10089000171B73EB050705D3121B63EB0503064318
:1008A0004CEA010C49084FEA300092185B4150EACB
:1008B0000107EDD152EA030012D082EA040083EA74
:1008C0000501084305D0101BAB4106D201220023CD
:1008D00006E000224FF0004302E06FF001025310E7
:1008E0001AEB06004CEB085110EB0A0041EB0B0130
:1008F000BDE8F04D00F054B8C1F30A52C1F3130142
:1009000040F2FF3341F480119A4202DA002001469E
:10091000704740F233439A42A2F2334202DC524221
:10092000FFF71BBEFFF70ABE30B5041E71F10004CD
:1009300004DB4FF00044404264EB0101141E73F1EC
:10094000000405DB1C464FF00043524263EB0403F6
:10095000994208BF904230BD064C074D06E0E06862
:1009600040F0010394E8070098471034AC42F6D3F6
:10097000FFF796FC7CB400089CB40008202A06DB34
:10098000CB17203A41FA02F043EAE07306E041FA5D
:1009900002F3D040C2F1200291400843194670474B
:1009A00010B5141E73F1000408DA401C41F1000177
:1009B00092185B411A4301D120F0010010BD2DE9CE
:1009C000F04D92469B4611B1B1FA81F202E0B0FAC5
:1009D00080F220329046FFF7B1FD04460F4640EA10
:1009E0000A0041EA0B0153465A46084313D0114608
:1009F00053EA010019D0C8F140025046FFF7ADFD9F
:100A000005460E46504659464246FFF797FD0843B5
:100A100005D0012004E020463946BDE8F08D0020D5
:100A2000054346EAE0762C4337430A986305E40A17
:100A3000A0EB08000022FD0A44EA47540A3002D520
:100A400000200146E9E7010510196941DDE9084583
:100A500000196941BDE8F04DA2E70000B0B50029DA
:100A600021D0002302EB430C32F813E0BCF802C0A3
:100A700002332EF0030E2CF0030C50F80E4050F809
:100A80000C508B4240F80E5000EB0E0540F80C4025
:100A900000EB0C04D5F804C0D4F804E0C5F804E079
:100AA000C4F804C0DED3B0BD2DE9F047B0F800A013
:100AB00091460746012A98460D460ED1BAF1000F1D
:100AC00042D02E1D544600BF31684FF00040FFF762
:100AD00096FC46F8080B013CF6D1BAF1FF0F0CDD8D
:100AE000BAF5806F13DBBAF5805F27D0BAF5006FD7
:100AF00014D0BAF5806F1CD026E0BAF13F0F12DC9B
:100B0000BAF1100F15D0BAF1200F07D01CE0BAF5DA
:100B1000807F03D0BAF5007F10D015E03846294613
:100B200000F0A8F910E0BAF1400F07D0BAF1800F39
:100B30000AD13846294600F037F805E07A680123E3
:100B40002846514600F020FEB8F1000F04D0B989C4
:100B50002846BA68FFF782FFB9F1010F21D150464C
:100B6000FFF7D1FC01464FF07E50FFF780FCBAF151
:100B7000000F16D0064600BFD5E900173046FFF734
:100B800044FC286030463946FFF73FFC01464FF0F1
:100B90000040FFF734FCBAF1010A686005F108056E
:100BA000EAD1BDE8F08700002DE9F04F99B0038845
:100BB00000220291B2EBD30F426801EB8301139143
:100BC00000904FEA5300019000F04381D808139938
:100BD000019B4FF0000B01EB83011191029901EB96
:100BE00083011091414212920F91DDF8089059F85B
:100BF0000B3009EB0B080A93D8E901600E90D8F886
:100C00000C000D90139901EB0B0051F80B70446828
:100C1000189003970994D0E902500490109800EBC3
:100C20000B0A50F80B001590DAF804000690DAF879
:100C300008000890DAF80C000C90119901EB0B00F9
:100C400051F80B1016901491416805918168079135
:100C500002EB0B01C068179139460B901846FFF75D
:100C60007CFB49F80B0030462146B146FFF775FB87
:100C70000E9E2946C8F804003046FFF76EFB0D9C17
:100C8000049FC8F8080020463946FFF766FBC8F8FD
:100C90000C000A980399FFF7B2FB0A90484609999D
:100CA000FFF7ADFB099030462946FFF7A8FB0E90F1
:100CB00020463946FFF7A3FB0D90DDE91410FFF73E
:100CC0004CFB1099DDF81880DDF8149041F80B000A
:100CD00040464946FFF741FB089D079FCAF80400BC
:100CE00028463946FFF739FB0C9C0B9ECAF80800D2
:100CF00020463146FFF731FBCAF80C00DDE914014C
:100D0000FFF77DFB049048464146FFF778FB0690CD
:100D100038462946FFF773FB159030462146FFF70A
:100D20006EFB1299149051F80B40179821460A9EB9
:100D300045683046FFF769FB0C902946099F384605
:100D4000FFF763FB814638462146FFF75EFB82468C
:100D500030462946FFF759FB80460C984946FFF775
:100D6000FCFA139941F80B0050464146FFF747FB48
:100D70001899049E486030462946FFF746FB069FB7
:100D8000804638462146FFF740FB814638462946D3
:100D9000FFF73BFB054630462146FFF736FB04468E
:100DA00040464946FFF72BFB119941F80B002046BE
:100DB0002946FFF7D2FA169948601798D0E90245FC
:100DC0000E9E21463046FFF720FB0D9F8046384699
:100DD0002946FFF71AFB824638462146FFF715FBE6
:100DE000814630462946FFF710FB064640465146ED
:100DF000FFF7B3FA189F3146B8604846FFF7FFFA8D
:100E0000159E2946F8603046FFF7FFFA149F80468A
:100E100038462146FFF7F9FA814638462946FFF75A
:100E2000F4FA054630462146FFF7EFFA04464046FD
:100E30004946FFF7E4FA169E2946B0602046FFF7C0
:100E40008CFA0F990BF1100B129A0131F0607FF4BC
:100E5000CBAEDDE901400223214600F095FC00986D
:100E6000022342682146139819B0BDE8F04F00F004
:100E70008BBC00002DE9F04FB5B002888B465608B8
:100E8000339201EB860101EB860951F826401346A7
:100E9000B20009EB86082592CDF814808A460390AB
:100EA000406806909808029004912146DBE90057BB
:100EB0002846FFF752FA309028462146FFF79FFA5E
:100EC000D9F804400546319038462146FFF745FAE7
:100ED000349038462146FFF792FA07462D90DAF80B
:100EE000041028462991FFF738FAD8F80440214623
:100EF000FFF785FA5BF826A02F9038465146FFF79A
:100F00007EFA59F826804146FFF727FA2E9051467F
:100F1000309D2846FFF773FA4146FFF770FA2C9090
:100F2000299F34983946FFF76AFA2146FFF767FA96
:100F30002B9039463198FFF762FA2146FFF70DFAF8
:100F40002A9051462D98FFF708FA4146FFF757FAC5
:100F5000249028465146FFF700FA4146FFF7FDF975
:100F6000CBF8000039463498FFF7F7F92146FFF730
:100F7000F4F96FF00101339A01EB9201CBF8040010
:100F800006EB46026FF003036FF0070503EB8207E1
:100F90009400299705EB820200273192A7EB5101BB
:100FA000DDF894C02D9105EB0611309105EBC601DB
:100FB00005EB86003491CDE932B02F98F5004BF85F
:100FC000260004992E98486003EB061028902C9870
:100FD00041F8260003EBC60027902B98C9F80400BF
:100FE00003EB860026900023CDF804902A9849F858
:100FF000260000260598249941609BE1329A2898A2
:10100000CDF83C9002EB0009CDF8BC90299802EB9A
:10101000000BCDF874B02A9800F108010C912698C5
:1010200016180996279802EB0008CDF838802B98FF
:1010300000F11001119133982E97139414582C98A5
:1010400000F118011E913198155820462946FFF7E6
:1010500084F90746089020462946FFF7D0F93468FE
:101060000546DBF800601C9020463146FFF775F915
:10107000079020463146FFF7C2F9D8F80060804655
:10108000D9F800A030465146FFF7B9F90446284682
:101090002146FFF762F90B90329D349855F8009085
:1010A00040464946FFF7ABF9309955F801B059462B
:1010B000FFF753F90A9038464946FFF7A0F9594619
:1010C000FFF79DF910903146079D2846FFF797F9E5
:1010D0005146FFF794F90D9020461C99FFF78FF9C0
:1010E0001C9058464946FFF78AF94146FFF787F9B1
:1010F000129028463146FFF730F95146FFF72DF997
:1011000009990860DDF8C8A034985AF800100898CA
:10111000FFF723F930995AF80110FFF71EF93399B8
:101120004AF801000C9804682A982146219EC56857
:101130003046FFF76AF9209F804638462946FFF778
:1011400064F9834638462146FFF75FF98146304609
:101150002946FFF75AF9064640465946FFF7FDF87B
:101160001499086048463146FFF749F90F990A9FDC
:10117000086038462946FFF748F90B9E80463046FE
:101180002146FFF742F9814630462946FFF73DF9EF
:10119000054638462146FFF738F904464046494699
:1011A000FFF72DF90E99086020462946FFF7D5F87C
:1011B00034994AF80100119805682B982946249E15
:1011C00044693046FFF721F9229F80463846214680
:1011D000FFF71BF9834638462946FFF716F9814683
:1011E00030462146FFF711F9064640465946FFF7BB
:1011F000B4F81599086048463146FFF700F913998D
:101200000D9F086038462946FFF7FFF801464FF06A
:101210000040FFF7F4F8109E804630462146FFF765
:10122000F4F8814630462946FFF7EFF80546384680
:101230002146FFF7EAF8044640464946FFF7DFF843
:101240001D99086020462946FFF7D9F831994AF8D8
:1012500001001E9804682C9821461F9EC5693046DF
:10126000FFF7D3F8239F804638462946FFF7CDF88D
:10127000834638462146FFF7C8F88146304629465E
:10128000FFF7C3F8064640465946FFF766F8169939
:10129000086048463146FFF7B2F82E99129F086061
:1012A00038462946FFF7B1F81C9E80463046214655
:1012B000FFF7ABF8814630462946FFF7A6F805460A
:1012C00038462146FFF7A1F8044640464946FFF755
:1012D00096F82F99086020462946FFF73EF828998E
:1012E0000839DDF894C0199D0CF1080C1B9C0835D9
:1012F000179E0834189B18361A9F10332891083708
:1013000030994AF801000839309129980838299015
:101310003198083831903498083834902798083834
:1013200027902D9801302D903398083833902698C7
:10133000083826900699C8192A9032981A97C21927
:1013400007191B9413974419199500EB0C0957F8CA
:10135000085FC8181D951294CDF894C018932B906F
:101360008819CDF8449017962C901E9254F8085F77
:1013700059F808AF2946D2E9026B3046FEF7EDFF77
:101380002F9030462946FFF73AF81594064654F850
:10139000045F239058462946FEF7DFFF2E905846FB
:1013A0002946FFF72CF8CDF85090054659F8048FE0
:1013B0001C9030464146FEF7D0FF169757F804BF01
:1013C0005946FFF71CF82190284651465646FFF72C
:1013D00016F8DDF874A05146FEF7BFFF20903146A5
:1013E0002F98FFF70CF85146FFF709F82490414673
:1013F0002E98FFF704F85946FFF701F8229041466E
:101400002398FEF7FCFF5946FEF7A7FF1F903146D1
:101410001C98FEF7A2FF5146FEF7F1FF23903146DC
:101420002F98FEF79AFF5146FEF797FF1E9DA86082
:10143000D9F800102E98FEF790FF3968FEF78DFF5F
:101440002D990029E8607FF4D9AD2A98D0E90245AA
:10145000219E21463046FEF7D8FF209F8046384621
:101460002946FEF7D2FF814638462146FEF7CDFFDA
:10147000044630462946FEF7C8FF05464046494621
:10148000FEF76BFF119E2946B0602046FEF7B7FFBE
:10149000F0602B98D0E90445249E21463046FEF7A3
:1014A000B4FF229F804638462946FEF7AEFF8146AC
:1014B00038462146FEF7A9FF044630462946FEF786
:1014C000A4FF054640464946FEF747FF129E2946BF
:1014D000B0602046FEF793FFF0602C98D0E90645F7
:1014E000DDF87CB021465846FEF78FFF239E8046EC
:1014F00030462946FEF789FF074630462146FEF76B
:1015000084FF044658462946FEF77FFF05464046BD
:101510003946FEF722FF139E2946B0602046FEF7AB
:101520006EFF029D0423F06029463298069A00F06F
:101530002BF9039C042362682946049800F024F9DF
:10154000626804230198294600F01EF962680423AA
:101550000598294635B0BDE8F04F00F015B90000F8
:101560002DE9F04381B00023B3EB920F90460C4677
:10157000054652D04FEA9800C0F10009D5E90007AE
:101580000146FEF742FF064638463946FEF73DFF64
:1015900001463046FEF7E1FE07F020F82060D5E96D
:1015A00002060146FEF731FF074630463146FEF798
:1015B0002CFF01463846FEF7D0FE07F00FF86060BA
:1015C000D5E904060146FEF720FF074630463146BE
:1015D000FEF71BFF01463846FEF7BFFE06F0FEFF92
:1015E000A06005F12007A8690146ED69FEF70DFF2F
:1015F000064628462946FEF708FF01463046FEF714
:10160000ACFE04F1100606F0E9FF19F10109E060F3
:101610003D463446B2D134463D4618F0030017D05B
:10162000474200BFD5E900060146FEF7EEFE8046C0
:1016300030463146FEF7E9FE01464046FEF78DFE94
:1016400006F0CCFF44F8040B013705F10805E9D199
:1016500001B0BDE8F08300002DE9F04F89B04E1EC7
:1016600005924FF0000BBBEB960F82460F465AF8DF
:10167000049B984664D001210190CDE90378B0081D
:10168000029661F3010640424FF0000B00960427DA
:101690000890DAE90085DAF8080041460690DAF8A1
:1016A0000C0007904846FEF720FF00284C464846AD
:1016B00018BF44464146FEF718FF002818BFA7F19F
:1016C000030B20462946FEF710FF00282646204639
:1016D00018BF2E462946FEF708FF002818BFA7F1BD
:1016E000020B069D30462946FEF7FFFE00283446D1
:1016F000304618BF2C462946FEF7F7FE002818BFD3
:10170000A7F1010B079D20462946FEF7EEFE0028B3
:10171000A146204618BFA9462946FEF7E6FE002846
:10172000089818BFBB46043701300AF1100AAFD140
:101730000DF10808DDE9001098E8C00100EB810A0E
:1017400016F0030017D046424D4600BF5AF8044B2E
:1017500048462146FEF7C9FE002818BF25464846E0
:101760002146FEF7C2FE002818BF07EB060B013624
:10177000A946EBD100E04D4605980560C8F800B0D9
:1017800009B0BDE8F08F00002DE9F04FB5B003922D
:10179000CDE901030B461891DF08DDF80480F8005D
:1017A00005971E90A0EBD300C0002F9007EB4700D9
:1017B00002011D9207EB8702DE00D5007C014FEA93
:1017C000C00B380100221B90CDE919631C94CDE9B0
:1017D0001FB500BF08EB04002E9230901E9E58F8F3
:1017E0000440D8E90070299038462146FEF7B5FD3F
:1017F000814638462146FEF702FE2D9008EB060092
:10180000349008EB050B209858F8067058F80050F3
:1018100038462946CDF8B0B0FEF79FFD82463846DF
:101820002946FEF7ECFD2A901B9808EB000158F8BA
:10183000005023911D9908EB010058F80170319078
:1018400028463946FEF789FD064628463946FEF702
:10185000D6FD2B901F9840442F9933901F9858F82D
:10186000005008EB010058F80170329028463946C4
:10187000FEF773FD044628463946FEF7C0FD279063
:1018800048463146FEF7BBFD259048463146FEF7F7
:1018900064FD054650462146FEF7B1FD26905046B0
:1018A0002146FEF75AFD044628462146FEF755FD1F
:1018B000C8F8000028462146FEF7A1FD1C9948F80B
:1018C000010030984568299C29462046FEF745FDD1
:1018D000824620462946FEF792FD34994D68DBF892
:1018E0000460299028463146FEF737FD8346284696
:1018F0003146FEF784FDDDF88C9024903198D9F8BC
:101900000450466828463146FEF727FD074628461C
:101910003146FEF774FD3399289032984D68466839
:1019200028463146FEF719FD044628463146FEF7A3
:1019300066FD229050463946FEF761FD0546504649
:101940003946FEF70AFD064658462146FEF757FD82
:10195000074658462146FEF700FD0446304621461C
:10196000FEF7FBFCC8F8040030462146FEF747FDB1
:101970003099259C486020463946FEF7EEFC1B99BD
:1019800048F8010020463946FEF739FD1D99269C8E
:1019900048F8010028462146FEF731FDC9F8040049
:1019A00020462946FEF7D9FC31992A9C279D48609C
:1019B00020462946FEF723FD40F2F349C3F6357968
:1019C0004946FEF722FD824620462946FEF7C5FC21
:1019D0004946FEF71AFD249C0546229F20463946BB
:1019E000FEF70DFD4946FEF710FD06462046394636
:1019F000FEF7B3FC4946FEF708FD2D9C074620463E
:101A00005146FEF7FCFC834620465146FEF7A5FCF6
:101A10002B9C824620462946FEF7F1FC3190204659
:101A20002946FEF79AFC299C054620463146FEF7DA
:101A3000E6FC309020463146FEF78FFCDDF8A090A2
:101A4000044648463946FEF7DAFC0646484639461B
:101A5000FEF783FC074650463946FEF77EFC1E998A
:101A600048F8010050463946FEF7C9FC2F9948F85E
:101A7000010058463146FEF770FC209948F80100F5
:101A800058463146DDF87CB0FEF7B9FC48F80B004B
:101A900020462946FEF7B3FC349948602846214683
:101AA000209DFEF75AFC3299309E319C48603046AA
:101AB0002146FEF7A4FC2C99486020463146FEF7EB
:101AC0004CFC2E9A1A9B1C9C1A44DDE918168A427B
:101AD000339FB0447860FFF47DAE402BC0F0BF82EE
:101AE0000298002580B2019E012704900598C0EB62
:101AF000C000C000099000BF04980544039B4FEA52
:101B0000051853F8350017904FEAC50A53F8080036
:101B100005EB4502169005EB85004FEAC00E53F821
:101B200030001390C5EBC5004FEA451C0895C50071
:101B300053F8300011900AF1040018584FEAC20916
:101B4000109008F1040018580F9009F1040018587B
:101B50000E900CF1040018580D900EF1040053F88B
:101B60003210120118580C90101D1858159153F886
:101B70000C100B90281D1491995818583346129147
:101B80000A900696079700BF18192E9734932F9046
:101B90008468D3E90260289030462146FEF7DDFBD9
:101BA000804630462146FEF72AFC34991E9A11449D
:101BB000209A32918C68349901EB02092B90D9F864
:101BC000085020462946CDF8B090FEF7C6FB824665
:101BD00020462946FEF713FC34991B9A11441D9A9E
:101BE00030918C683499114429908D682046319148
:101BF0002946FEF7B2FB074620462946FEF7FFFBC3
:101C000034998B443499099A1144DBF808408D6863
:101C1000339129462A902046CDF8B4B0FEF79DFBBB
:101C2000064620462946FEF7EAFB269040463946FE
:101C3000FEF7E5FB219040463946FEF78EFB054650
:101C400050463146FEF7DBFB229050463146FEF708
:101C500084FB064628463146FEF77FFB34998860B0
:101C600028463146FEF7CBFB23902F98C568289C69
:101C700029462046FEF771FB064620462946FEF718
:101C8000BEFB3299CF68D9F80C40289038462146DF
:101C9000FEF763FB054638462146FEF7B0FB309958
:101CA00025903198CC68C76820463946FEF755FB29
:101CB000814620463946FEF7A2FB27903398DBF891
:101CC0000C40C76820463946FEF747FB824620464F
:101CD0003946FEF794FB249030464946FEF78FFBC9
:101CE000804630464946FEF738FB064628465146B0
:101CF000FEF785FB044628465146FEF72EFB219F42
:101D0000054638462146FEF728FB814638462146DF
:101D1000FEF775FB219030462946FEF71EFB3499ED
:101D2000C86030462946FEF76AFB229C05464046BD
:101D30002146FEF764FB834620464146FEF70DFB35
:101D4000149EDDF88C80229030464146FEF75DFB04
:101D5000DDF834A0044650462946FEF756FB0746F8
:101D600030462946FEF751FB054650464146FEF7F0
:101D70004CFB064620463946FEF7EFFA2F9C3146CB
:101D8000A0602846FEF73BFB169E4946E0603046C1
:101D9000FEF73BFB0F9F044638465946FEF735FBDE
:101DA000054630465946FEF730FB0646384649465A
:101DB000FEF72BFB074628462146FEF7CEFA309C5D
:101DC0003946A0603046FEF71AFBE060129E219C67
:101DD00030462146FEF719FB0B9F8046229D384670
:101DE0002946FEF712FB814630462946FEF70DFBD9
:101DF000064638462146FEF708FB07464846414658
:101E0000FEF7ABFA319C3946A0603046FEF7F7FA90
:101E1000E060299C269D20462946FEF7F0FA40F214
:101E2000F346C3F635763146FEF7EFFA8046204694
:101E30002946FEF792FA3146FEF7E7FA259C8146DD
:101E4000249D20462946FEF7DAFA3146FEF7DDFAF0
:101E5000074620462946FEF780FA3146FEF7D5FAB6
:101E60002B9C064620464146FEF7C9FA824620468C
:101E70004146FEF772FA2A9D044628464946FEF777
:101E8000BEFA299028464946FEF767FA289D814602
:101E900028463946FEF7B3FA2A9028463946FEF717
:101EA0005CFA279D074628463146FEF7A8FA804689
:101EB00028463146FEF751FA064620463146FEF7DF
:101EC0004CFA834620463146FEF799FA2B9050464D
:101ED0004146FEF742FA309050464146FEF78FFAEF
:101EE000319038464946FEF78AFA824648463946D6
:101EF000FEF733FA2A9D8046299C28462146FEF7A4
:101F00007EFA2F9020462946FEF727FA179C814635
:101F100020465946FEF779FA109E0546304651464E
:101F2000FEF773FA074620465146FEF76EFA04465E
:101F300030465946DDF87CB0FEF767FA064628467B
:101F40003946FEF70AFA329D3146A8602046FEF770
:101F500056FA119E2B9CE86030462146FEF755FA52
:101F60000A9F824638464146FEF74FFA05463046FC
:101F70004146FEF74AFA064638462146FEF745FA3C
:101F8000074650462946FEF7E8F9339C3946A060DB
:101F90003046FEF734FAE060139E309C304621460E
:101FA000FEF733FA0C9F8046DDF8BCA03846514658
:101FB000FEF72BFA054630465146FEF726FA06464E
:101FC00038462146FEF721FA074640462946FEF7E5
:101FD000C4F92C9C3946A0603046FEF710FAE06048
:101FE000159E319C30462146FEF70FFA0E9F804623
:101FF00038464946FEF709FA054630464946FEF797
:1020000004FA064638462146FEF7FFF907464046E1
:102010002946FEF7A2F92D9D3946A8603046FEF705
:10202000EEF92E9F1A9A349B17441899E8608F4254
:1020300019981C9C0344FFF4A7AD079F013705982E
:10204000069E874206F10806089DFFF455AD0298EA
:102050003F2A4FEAC000059B02903FF69DAB35B08A
:10206000BDE8F08F70B53A4905460068884202D055
:10207000384A904202D1D1F8080302E03648D0F83D
:10208000080310F4403F11D003F0FAFC04466868DE
:10209000B0F5803F06D0B0F5003F03D0B0F5403F2B
:1020A00027D101E0000C18E0A40822E000214FF441
:1020B000002002F07DFD044668688103890B18D179
:1020C00081140C2915D2DFE801F014060606060675
:1020D000060B0D0F1113800C4000B4FBF0F408E068
:1020E000240906E0640904E0A40902E0E40900E030
:1020F000240A02F03BFA41F20301884208D817484B
:1021000084422868816813D821F48071816070BD91
:1021100013496008884204D82868816821F4407116
:10212000F4E71049884206D82868816821F4407194
:1021300041F48071EAE70C4988422868816804D834
:1021400021F4407141F40071E0E741F44071DDE7B2
:10215000002002400021024000600258002D3101A1
:10216000105E5F0020BCBE0040787D012DE9F0418B
:102170000027044600680D4604F05BFC0646206814
:1021800004F053FC30435DD020682F4EC1688901B4
:1021900005D5617D012902D1217D01290BD0022DB8
:1021A0001DD0206804F045FCB8B120688168C1F3F7
:1021B000400169B111E02549012502E08F4232D288
:1021C0007F1C0268D2435206F8D440210160E8E740
:1021D0008168314041F010018160012D11D02068EB
:1021E00004F023FC48B120688168C1F3400121B9A3
:1021F0008168314041F020018160022D08D0032D1B
:1022000004D0042502F0B8F9064617E00C25F9E7DA
:102210000825F7E702F0B0F9801B05280ED92068E1
:10222000806828420AD0606D40F010006065A06DA3
:1022300040F00100A0650120BDE8F08120688068C1
:102240002842E7D10020F7E7C0FFFF7F00DC0C0049
:1022500010B5846B616D11F0500F06D0616DC90629
:1022600025D5204600F0BEFD10BD606D40F4007025
:10227000606520680168090707D504F0E2FB90B1AA
:102280002068C068800403D50DE0C06880070AD1CB
:10229000606D20F480706065606DC00403D4606D73
:1022A00040F001006065204600F09AFD10BDE16C31
:1022B000C96CBDE81040084710B5806B416D41F016
:1022C00040014165816D41F00401816500F08AFDA6
:1022D00010BD10B5806B00F084FD10BD70B50446D4
:1022E000006881688268C1F3400112F0010F28D0B4
:1022F00039BB816801F00D01012914D18168124AAE
:102300001140891C816021680320086002F034F9C3
:10231000054612E002F030F9401B02280DD9206872
:102320008068C00709D0606D40F010006065A06D46
:1023300040F00100A065012070BD20688068C007E2
:10234000E8D1002070BD0000C0FFFF7F70B50446DB
:102350000068816811F0010F40D18168204A114264
:102360002DD18168D5432940491C816002F004F9D0
:102370001C49064620681C4B884201D0984201D176
:102380001A4A00E01A4A9268984202F01F0200D0EE
:10239000014681421DD0E2B120E0816811F0010FB9
:1023A00003D181682940491C816002F0E5F8801B57
:1023B00002280ED920680068C043C00709D0606DAC
:1023C00040F010006065A06D40F00100A0650120A4
:1023D00070BD20680168C943C907DED1002070BD07
:1023E0003F00008000200240002102400023024004
:1023F00000630258FEE70000014801F0E5B8000064
:102400009C380024294A016891423AD0274A183260
:10241000914236D0254A3032914232D0234A483256
:1024200091422ED0214A603291422AD01F4A7832FE
:10243000914226D01D4A9032914222D01B4AA832A6
:1024400091421ED01A4A91421BD0194A1832914229
:1024500017D0174A3032914213D0154A4832914270
:102460000FD0134A603291420BD0114A7832914218
:1024700007D00F4A9032914203D00D4AA8329142C0
:1024800011D1CAB21823103AB2FBF3F26FF309016B
:10249000032A02F00703074AD25CC26500D9091D6E
:1024A00081650846704721F0FF01F9E710000240FE
:1024B000100402401A86000830B5224A0123016840
:1024C0009142CAB21BD01F4C1434A14217D01D4CEC
:1024D0002834A14213D01B4C3C34A1420FD0194CDC
:1024E0005034A1420BD0174C6434A14207D0154C94
:1024F0007834A14203D0134C8C34A1420CD1142166
:10250000114C083AB2FBF1F10F4A803201F01F057D
:1025100004EB8101AB4010E00C4D1824103A0D443F
:10252000B2FBF4F1A82D00D80831094A01F01F04CC
:1025300002EB8101064AA3408032603080E80E0041
:1025400030BD00000854025800580258F0FBFDBF8F
:102550000008024010B50279531E072B2DD8174CE6
:102560000168A1421BD0154C1434A14217D0134C62
:102570002834A14213D0114C3C34A1420FD00F4C4F
:102580005034A1420BD00D4C6434A14207D00B4C07
:102590007834A14203D0094C8C34A14203D10849BC
:1025A000074C443102E00749064C443104EB8202F7
:1025B000C0E91B2101219940416710BD0854025810
:1025C000FC580258FC08024010B583694FF0C074F3
:1025D000826A0146002053B1B3F5005F15D072B195
:1025E000012A0CD0022A0AD0032A09D104E01AB128
:1025F000012A06D0022A03D1C96AC90100D50120E7
:1026000010BDC96AA142FAD010BD002AF7D0012A34
:10261000F2D0022AF3D0032AF3D010BD2DE9F04FF7
:10262000804E804FDFF8FC911836DFF8F8A148376C
:102630000468856D0AF1300ADFF8ECB14C45DFF82B
:10264000ECC1DFF8ECE16DD0B4426BD0544569D0F9
:10265000BC4267D0DFF8D081A8F11808444561D0AA
:102660005C455FD064455DD074455BD0DFF8C481C4
:10267000444557D0DFF8BC8108F11808444551D0D3
:10268000DFF8B08108F1300844454BD0DFF8A48171
:1026900008F14808444545D0DFF8988108F1600802
:1026A00044453FD0DFF88C8108F17808444539D0A3
:1026B000DFF8808108F19008444533D0DFF8748159
:1026C00008F1A80844452DD0DFF86C81444529D095
:1026D000DFF8648108F11408444523D0DFF85881FD
:1026E00008F1280844451DD0DFF84C8108F13C086A
:1026F000444517D0DFF8408108F15008444511D017
:10270000DFF8348108F1640844450BD0DFF82881F4
:1027100008F17808444505D0DFF81C8108F18C08E1
:10272000444509D1D0E91948C4F80480C46E1CB1ED
:10273000D0E91C48C4F8048004684C452ED0B4424B
:102740002CD054452AD0BC4228D0374E183EB44233
:1027500024D05C4522D0644520D074451ED0354E2F
:10276000B4421BD0334E1836B44217D0314E3036F7
:10277000B44213D02F4E4836B4420FD02D4E60369F
:10278000B4420BD02B4E7836B44207D0294E903647
:10279000B44203D0274EA836B44215D190F85C60FD
:1027A0003F2406F01F06B440AC600468256825F499
:1027B000802525602EE09A600068C160BDE8F08F3A
:1027C00099600068C260F9E71B4EB4421BD01A4EF4
:1027D0001436B44217D0184E2836B44213D0164ED1
:1027E0003C36B4420FD0144E5036B4420BD0124E89
:1027F0006436B44207D0104E7836B44203D00E4E41
:102800008C36B442DAD190F85C60012406F01F06E1
:10281000B4406C60046863608368402B0368CFD168
:10282000C9E700001000024088000240A0000240FA
:10283000B80002401004024008540258704772B6B3
:10284000FEE70000F8B50027044615460E4600973F
:1028500090F8500001280BD0012084F85000204649
:10286000FFF73CFD0100606D04D040F010002DE04A
:102870000220F8BD20F4885040F002006065206816
:1028800006F4803205F08043134D1A4383682B40D1
:102890001A4342F000428260104A20680EE0009B1A
:1028A0005B1C0093934209D3606D84F8507020F054
:1028B000020040F0100060650120F8BD8368DB0F66
:1028C000EDD1606D20F0020040F001006065084627
:1028D00084F85070F8BD0000C0FFFE3F00F8C3252B
:1028E0002DE9F0470F4690F850109AB004460129A0
:1028F0004FF0000915D00026DFF8F880012084F899
:10290000500015961696216841450ED13A4D009516
:10291000284604F092F88246206804F08EF860B1F0
:102920000EE002201AB0BDE8F087606D84F85060B8
:1029300040F0200060650120F4E7BAF1000F09D0F3
:10294000616D4FF0010941F020006065484684F850
:102950005060E7E720684146884201D0A84201D193
:10296000264800E0264840F61F72D7F800C0254BE5
:10297000BCF1000F23D0D0F808C0D7F804802CF4A5
:10298000404C4CEA080CC0F808C0D4F800C08C4594
:1029900001D0AC4507D18968AB6801F0010103F0B3
:1029A0000103194302E0996801F001010029CDD12A
:1029B000BD683968836829439343194317E08768E2
:1029C00027F44047876027688F4201D0AF4207D184
:1029D0008968AB6801F0010103F00103194302E0CB
:1029E000996801F001010029B0D1816891438160AB
:1029F000ACE700000020024000210240002302401A
:102A000000630258006002582DE9F84F4FF0000BA8
:102A10000446E54E0D46CDF800B05F4690F85000F4
:102A2000DFF888A3012808D04FF0010984F85090FE
:102A3000206803F0FEFF18B169E10220BDE8F88FBD
:102A400021682868CA69030328D090FAA0F0B0FA78
:102A500080F000BF00F01F0309FA03F00243CA61CF
:102A6000D5E900124FF00C0C20681F23C1F38461DC
:102A70000CEA921C02F01F02604493409140026BEA
:102A80009A430A430263206803F0D3FF804620681C
:102A900003F0CBFF58EA000003D07FE0C0F384606E
:102AA000D8E72068AA68296803F0D3FFC0490968FD
:102AB000B9EB117F06D121686869C968C1F3820149
:102AC000490008E02068C168C906C1686869F5D591
:102AD00001F0100149088840296904292ED0226894
:102AE0002B6802EB810103F0F8420B6E024303F006
:102AF000004010430866697E22682869012917D0C2
:102B00005FF0000102EB8000026E22F000420A43F7
:102B10000266287E21682A6901280CD000200B69F2
:102B200002F01F02904023F4F04202430A6135E0B4
:102B30004FF00041E6E74FF40060F0E720682978A5
:102B4000026E02F0F842B2EB816F03D1016E21F008
:102B50000041016620682978426E02F0F842B2EB2B
:102B6000816F03D1416E21F00041416620682978D0
:102B7000826E02F0F842B2EB816F03D1816E21F0D8
:102B80000041816620682978C26E02F0F842B2EBFB
:102B9000816F03D1C16E21F00041C1662068816858
:102BA00011F0010F76D150F8C02F95F80CC0814B71
:102BB00029680CF0180C23FA0CF3C1F313080B402E
:102BC00022EA08021A4302607B48E968814277D111
:102BD000286801031BD090FAA0F1B1FA81F1491CD9
:102BE00001F01F0109294FEA003131D8002911D025
:102BF00090FAA0F1B1FA81F101F1010101F01F0198
:102C000009FA01F209D100BFC0F3846109E0C0F301
:102C10008461E4E7C0F38461EEE790FAA0F1B1FAD1
:102C200081F101F1010101F01F0142EA816102D14C
:102C3000C0F3846003E090FAA0F0B0FA80F000F1F5
:102C4000010000F01F0000EB400041EA005133E0BA
:102C500000290ED090FAA0F1B1FA81F101F1010141
:102C600001F01F0109FA01F206D100BFC0F384612F
:102C700006E0C0F38461F1E790FAA0F1B1FA81F1C6
:102C800001F1010101F01F0142EA816103D1C0F3AA
:102C9000846004E040E090FAA0F0B0FA80F0474A87
:102CA00000F1010000F01F0000EB400002EB0050BB
:102CB00041EA000141F00071AA68206803F0C9FEF2
:102CC000D5F800C0BCF1000F26DA3D4B20683D4925
:102CD000DFF8F490984201D0B04201D10A4600E0FA
:102CE0004A469268984202F0E07201D0B04209D19F
:102CF0009D68D6F8088005F0010508F0010845EA4E
:102D0000080503E0DAF8085005F0010545B1606DEB
:102D1000012740F020006065384684F850B08DE609
:102D20002A4DAC451CD115021AD45045F4D1984215
:102D300002D0B04200D049468B6842F4000023F034
:102D4000E07202438A60234921480968B1FBF0F030
:102D50004000801C00E0401E00900028FBD1DBE713
:102D60001D4DAC450CD1D5010AD45045D4D1984263
:102D700002D0B04200D049468B6842F080700EE02D
:102D8000164DAC45C8D15502C6D45045C4D1984261
:102D900002D0B04200D049468B6842F4800023F054
:102DA000E07202438A60B7E70021024000600258E7
:102DB0000010005CFFFF0F000000FF47000020FE36
:102DC000002002400023024000630258000084CB30
:102DD000400D030028000024000052C70000B8CFB7
:102DE0007047704770470000F8B54FF000060400C8
:102DF0003546009602D0606D10B107E00120F8BDA5
:102E0000204600F005F9A66584F8506020688168C6
:102E1000C1F3407119B18168704A11408160206826
:102E20008168C1F3007181B981686D4A114041F038
:102E3000805181606C496B480968B1FBF0F0401C1F
:102E400000E0401E00900028FBD120688168C1F39B
:102E5000007141B9616D012541F010016165A16DFD
:102E600041F00101A16503F0E4FD616DC90600D4E4
:102E700020B1606D012540F0100093E0606D20F4FA
:102E8000807040F0020060652068816811F0010FD9
:102E90001FD1564A564B904201D0984207D19168B3
:102EA0009E6801F0010106F00106314303E051493B
:102EB000896801F0010161B9904201D0984201D1C5
:102EC0004D4800E04D488268616822F47C120A4354
:102ED000826001F04BFB41F20301884202D9A068F5
:102EE00010280CD0617D227FA368206B490341EA42
:102EF000024118430843217F01290CD010E0607D76
:102F0000227F216B400340EA024241F0100010434F
:102F100040F00C00EFE7218C394A02EB41410843B5
:102F2000616A29B1A26A01F47871014342EA0100A1
:102F30002168344BCA681A400243CA60206803F013
:102F400078FD0646206803F070FD30431DD12168EE
:102F500044F20303267DE26AC86842EA8632984357
:102F60001043C86094F8380001281ED02068016919
:102F700021F0010101612068626B016921F070415B
:102F8000114301612046FFF76DF8E06801282068D1
:102F90001CD0016B21F00F010163606D20F0020075
:102FA00040F0010060652846F8BD2068A28F164FEA
:102FB000D4E9101C154E07EB0247A36C026941EAE5
:102FC0000C013B43324019431143D3E7A269016B23
:102FD000521E21F00F011143DEE70000C0FFFF5F2A
:102FE000C0FFFF7F400D03002800002400200240A6
:102FF0000021024000600258002302400063025892
:103000000000FEFF03C0F0FF0100FFFF1EF800FC00
:10301000F0B5B7B00546142130A8FDF793F9C021EB
:103020006846FDF78FF92A49286888424ED1002268
:103030004FF0200C0220144604234FF400218DE8A9
:103040000E000926CDE90360C027299206AA059043
:103050003901099182E88110684601F00DFF08B13D
:10306000FFF7EDFB1B48016841F02001016000689B
:1030700000F02000359017480830016841F0010148
:103080000160006830AA032100F0010035900120A2
:1030900082E81300104830A901F04CF90F4F104896
:1030A00001153860C7E90164CB00C7E9034107F1A6
:1030B0001401C214384681E81C003C627C6200F0B6
:1030C000F7FD08B1FFF7BBFBEF64BD6337B0F0BDA0
:1030D00000200240D8440258000002589C380024C6
:1030E000100002402DE9F047384E04460068914632
:1030F000DFF8DC808A46B04201D0404501D1354935
:1031000000E03549896801F01F0503F092FC0028B2
:1031100059D194F85000012855D001204FF00007F4
:1031200084F8500025B1052D02D0092D00D003E010
:103130002046FFF70BF918B184F85070BDE8F0870E
:10314000616D40F6016320689943404541F4807108
:10315000616500D00646864200D01DB9606D20F43E
:1031600080106065606DC00404D5A06D20F006007D
:10317000A06500E0A7651C20E16C184ACA63E26CF8
:1031800017491164E26C1749D1642168086084F81A
:1031900050702068416841F0100141602068E16A88
:1031A000C26822F003020A43C26021684B46E06C09
:1031B0005246403100F05EFF21680B4B8A681A408E
:1031C000121D8A60BAE70220B8E700000020024022
:1031D00000210240002302400063025851220008EF
:1031E000D3220008B9220008C0FFFF7F70B5044653
:1031F00090F85000012809D0012084F850000321E4
:103200002046FEF7B3FF050002D027E0022070BD84
:103210002068C16821F00301C160E06C90F83510AE
:10322000022907D100F020F8050003D0606D40F0BE
:10323000400060652068416821F01001416020462F
:1032400015B1FFF74BF809E0FFF748F8050005D185
:10325000606D20F4885040F001006065002084F823
:103260005000284670BD00002DE9F84F044601F0DB
:1032700083F900903CB194F83500022806D08021F3
:1032800061650020E4E00120BDE8F88FC74DC74E1E
:10329000C649183520683036DFF81483DFF81493F8
:1032A0008842DFF814A3DFF814B32ED0A8422CD044
:1032B000B0422AD0404528D0484526D0504524D099
:1032C000584522D0BD4A183290421ED0BC4A904286
:1032D0001BD0BB4A1832904217D0B94A30329042C4
:1032E00013D0B74A483290420FD0B54A603290426C
:1032F0000BD0B34A7832904207D0B14A9032904214
:1033000003D0AF4AA832904209D1026822F01E02CF
:1033100002602068426922F08002426103E0026894
:1033200022F00E02026027688F4238464DD0A84234
:103330004BD0B04249D0404547D0484545D0504594
:1033400043D0584541D09D4A183290423DD09C4AC6
:1033500090423AD09A4A1832904236D0984A303247
:10336000904232D0964A483290422ED0944A6032EF
:1033700090422AD0924A7832904226D0904A903297
:10338000904222D08E4AA83290421ED08D4A90425E
:103390001BD08C4A1432904217D08A4A283290426D
:1033A00013D0884A3C3290420FD0864A5032904225
:1033B0000BD0844A6432904207D0824A78329042DD
:1033C00003D0804A8C32974204D1206E026822F4E6
:1033D0008072026075492068884228D0A84226D0B1
:1033E000B04224D0404522D0484520D050451ED080
:1033F00058451CD071491831884218D0704988420C
:1034000015D06F491831884211D06D49303188424A
:103410000DD06B494831884209D0694960318842F2
:1034200005D067497831884201D0654990310168FB
:1034300021F0010101600EE001F09EF80099401AB0
:10344000052808D9202262650321002084F8351060
:1034500084F8340017E73868C007EDD1534A0121DA
:10346000206890422ED0A8422CD0B0422AD04045AD
:1034700028D0484526D0504524D0584522D04F4B1F
:10348000183398421ED04E4B98421BD04C4B1833E9
:10349000984217D04A4B3033984213D0484B4833A8
:1034A00098420FD0464B603398420BD0444B783350
:1034B000984207D0424B9033984203D0404BA833F8
:1034C000984208D194F85C703F23A06D07F01F0765
:1034D000BB40836007E094F85C30A06D03F01F03ED
:1034E00001FA03F34360206890424DD0A8424BD0CC
:1034F000B04249D0404547D0484545D0504543D0DB
:10350000584541D02D4A183290423DD02C4A904225
:103510003AD02B4A1832904236D0294A3032904263
:1035200032D0274A483290422ED0254A603290420B
:103530002AD0234A7832904226D0214A90329042B3
:1035400022D01F4AA83290421ED01E4A90421BD061
:103550001C4A1432904217D01A4A2832904213D093
:10356000184A3C3290420FD0164A503290420BD04B
:10357000144A6432904207D0124A7832904203D003
:10358000104A8C3290420BD1D4E919024260E06EAD
:1035900030B1026822F480720260D4E91C024260F9
:1035A000002084F8351084F834006DE610000240E5
:1035B000580002407000024088000240A000024013
:1035C00010040240085402582DE9FC5F0446F74EEF
:1035D0000020DFF8D88300904FF41652F44808F129
:1035E0001808A56DDFF8C493DFF8C0A3016809F1DE
:1035F000300920680AF1480AB1FBF2F1B0420191AA
:103600002F68D5F800C0DFF8ACB335D0414688420A
:1036100032D0484530D050452ED058452CD0E549C1
:103620001831884228D0E3493031884224D0E1491A
:103630004831884220D0E04988421DD0DE49183107
:10364000884219D0DC493031884215D0DA494831F6
:10365000884211D0DFF860E30EF1600E70450BD0A8
:10366000D54A7832904207D0D34B9033984203D05A
:10367000D149A83188427DD194F85C20082102F01C
:103680001F0201FA02F23A424AD0B04232D040451B
:1036900030D048452ED050452CD058452AD0C54A68
:1036A0001832904226D0C34A3032904222D0C14ACA
:1036B000483290421ED0C04A90421BD0BE4A1832B7
:1036C000904217D0BC4A3032904213D0BA4A4832A6
:1036D00090420FD0B84A603290420BD0B64A78324E
:1036E000904207D0B44A9032904203D0B24AA832F6
:1036F000904203D1026802F0040202E0026802F084
:1037000008026AB1026822F00402026094F85C00C8
:1037100000F01F008140A960606D40F0010060650D
:1037200094F85C00012100F01F008140394240D034
:103730002068B04234D0404532D0484530D0504562
:103740002ED058452CD09B4A1832904228D0994A06
:103750003032904224D0974A4832904220D0964A44
:1037600090421DD0944A1832904219D0924A303279
:10377000904200E0AFE113D08F4A483290420FD020
:103780008D4A603290420BD08B4A7832904207D0FB
:10379000894A9032904203D0874AA83290427DD124
:1037A000406910F0800F04D0A960606D40F0020005
:1037B000606594F85C00042100F01F0081403942EC
:1037C0003ED02068B04232D0404530D048452ED05F
:1037D00050452CD058452AD0764A1832904226D0EF
:1037E000744A3032904222D0724A483290421ED0FF
:1037F000714A90421BD0704A1832904217D06E4ADC
:103800003032904213D06C4A483290420FD06A4A0C
:10381000603290420BD0684A7832904207D0664AB4
:103820009032904203D0644AA83290424ED1006850
:1038300010F0020F04D0A960606D40F004006065D4
:1038400094F85C00102100F01F008140394258D0EC
:103850002068B04234D0404532D0484530D0504541
:103860002ED058452CD0534A1832904228D0514A75
:103870003032904224D04F4A4832904220D04E4AB3
:1038800090421DD04C4A1832904219D04A4A3032E8
:10389000904215D0484A4832904200E014E00FD0E0
:1038A000454A603290420BD0434A7832904207D06A
:1038B000414A9032904203D03F4AA832904207D109
:1038C000006800F0080006E0006872E70068B7E7EB
:1038D000006800F00400A0B1A960206801684903F5
:1038E00004D50068000308D5A16C07E00168C9058C
:1038F00003D4016821F008010160216C09B1204660
:10390000884794F85C00202100F01F008140394274
:1039100079D02068B04232D0404530D048452ED0D2
:1039200050452CD058452AD0224A1832904226D0F1
:10393000204A3032904222D01E4A483290421ED055
:103940001D4A90421BD01C4A1832904217D01A4A86
:103950003032904213D0184A483290420FD0164A63
:10396000603290420BD0144A7832904207D0124A0B
:103970009032904203D0104AA832904203D100689E
:1039800000F0100002E0006800F00200B0B3A9608F
:1039900094F835000428206801680FD049037ED5CB
:1039A000006800032BD4616C2AE000001000024084
:1039B00028000024700002401004024021F016018B
:1039C00001602068416921F080014161206C08B9E3
:1039D000A06C20B12068016821F00801016094F812
:1039E0005C303F21012003F01F0300229940A960B1
:1039F00084F8350084F83420216D65E003E0E16B44
:103A000009B120468847606D00287DD0606DC007F1
:103A100059D02068042184F83510B0422BD040459D
:103A200029D0484527D0504525D0584523D09D4919
:103A3000884220D09B49183188421CD099493031A6
:103A4000884218D09849884215D097491831884241
:103A500011D09549303188420DD093494831884280
:103A600009D091496031884205D08F497831884228
:103A700001D08D499031016821F001010160206879
:103A80000099019A491C0091914202D80168C90726
:103A9000F6D10068C00710D003200FE0FFE70168EF
:103AA000C905ACD403680121002223F01003036090
:103AB00084F8351084F83420A1E7012084F835001B
:103AC000002084F83400E16C00291DD002B02046AB
:103AD000BDE8F05F0847754988421DD0734914312D
:103AE000884219D071492831884215D06F493C313C
:103AF000884211D06D49503188420DD06B496431F4
:103B0000884209D0694900E084E07831884203D0D6
:103B100066498C3188427DD194F85C800427016825
:103B200008F01F0807FA08F717EA0C0F009746D0AD
:103B30004F0744D500980F04686003D5C8033CD4F0
:103B4000A16CC1E7880638D42068B0422DD0554911
:103B50006039884229D0484527D0504525D058455E
:103B600023D05049884220D04E49183188421CD079
:103B70004C493031884218D04B49884215D04A49C7
:103B80001831884211D04849303188420DD0464919
:103B90004831884209D0704507D0904205D09842FC
:103BA00003D04149A831884203D1016821F00801BE
:103BB00002E0016821F004010160216C84E7022722
:103BC00007FA08F717EA0C0F00974ED08F074CD56D
:103BD00000980F04686003D5C80344D4616C73E790
:103BE000880640D42068B0422FD02E4960398842E0
:103BF0002BD0484529D0504527D0584525D02949B4
:103C0000884222D02749183188421ED025493031B8
:103C1000884200E044E018D02349884215D0224968
:103C20001831884211D02049303188420DD01E49C8
:103C30004831884209D0704507D0904205D098425B
:103C400003D01949A831884203D1016821F0140139
:103C500002E0016821F00A010160012184F83510B9
:103C6000002084F83400E16B2EE7082202FA08F203
:103C700012EA0C0F14D0090712D5016821F00E01C9
:103C8000016094F85C100120002201F01F0100FA8D
:103C900001F16960606584F8350084F8342012E72A
:103CA000BDE8FC9F880002401004024008540258FE
:103CB0002DE9F05F044600F05FFC002C07467DD044
:103CC000E34E022120684FF00308DFF888934FF09D
:103CD0000005DFF884A3B042DFF880B334D0DC4ABB
:103CE0001832904230D048452ED050452CD05845FF
:103CF0002AD0DA4A1832904226D0D84A303290423E
:103D000022D0D64A483290421ED0D54A90421BD08B
:103D1000D34A1832904217D0D14A3032904213D051
:103D2000CF4A483290420FD0CD4A603290420BD0F9
:103D3000CB4A7832904207D0C94A9032904203D0A1
:103D4000C74AA83290427DD184F83510B04284F839
:103D500034502ED0BE49183188422AD0484528D048
:103D6000504526D0584524D0BC491831884220D02F
:103D7000BA49303188421CD0B8494831884218D0FD
:103D8000B749884215D0B6491831884211D0B44994
:103D9000303188420DD0B2494831884209D0B0490B
:103DA0006031884205D0AE497831884201D0AC49B3
:103DB0009031016821F00101016008E027E100BFB6
:103DC00000F0DAFBC01B052801D920211CE1206886
:103DD0000068C007F4D104F108002168D4E9053C6B
:103DE0008E4685C809681043D4E907281F43636AD3
:103DF00038439C4F40EA0C001043394040EA080029
:103E0000042B40EA010003D1D4E90B12114308430B
:103E1000954909686FF30F01B1F1005F0FD3616835
:103E2000A1F12902052A08D9163A032A05D9083A28
:103E3000012A02D94F39032901D840F48010CEF865
:103E4000000000E023E02068676A4069042F20F04A
:103E5000070047EA00070DD1D4E90A01074349B139
:103E60002046FEF7B1FB28B140206065012184F8AF
:103E70003510CCE0206847612046FEF7C3FA94F87D
:103E80005C203F2102F01F029140816054E0774A9C
:103E900090421BD0754B1433984217D0734B283384
:103EA000984213D0714B3C3398420FD06F4B503334
:103EB00098420BD06D4B6433984207D06B4B7833EC
:103EC000984203D0694B8C3398427DD184F83510E9
:103ED00084F83450664B0168A26801EA030E402A58
:103EE00073D0802A72D00022D4E90378D4E9053156
:103EF00042EAD70242EAD8085C4AD4E9077C48EA99
:103F0000D30848EAD10141EAD701524241EA1C11E3
:103F1000142341EA0E01016020681044B0FBF3F065
:103F20008000E0652046FEF76DFA94F85C200121E0
:103F300002F01F02914041602068B04257D04449CE
:103F40001831884253D0484551D050454FD058453C
:103F50004DD042491831884249D0404930318842D9
:103F600045D03E494831884241D03D4988423ED003
:103F70003B49183188423AD039493031884236D0ED
:103F800037494831884232D03549603188422ED095
:103F90003349783188422AD031499031884226D03D
:103FA0002F49A831884222D0304988421FD02F495A
:103FB000143188421BD02D492831884217D02B4913
:103FC0003C31884213D002E01DE017E018E0274999
:103FD000503188420BD025496431884207D02349AB
:103FE0007831884203D021498C31884229D120463A
:103FF000FEF762FAA06880280CD00CE0102273E76C
:104000004FF4804270E74021616584F835800120DB
:10401000BDE8F09F6560216E20790860D4E9190140
:1040200041606068401E072808D82046FEF792FAD3
:10403000E06E0560D4E91C01416002E0E566256799
:1040400065670120656584F835000020E0E7000021
:104050001000024040000240580002407000024040
:10406000100402403F8010FE0010005C085402580B
:104070000F00FEFF2DE9F84F04008C464FF00000C2
:10408000009014D094F83400012812D094F83550E0
:104090000120002184F83400012D0CD0C00260659D
:1040A0000120009084F834100098BDE8F88F0120BA
:1040B000FBE70220F9E78C4D0226206884F8356082
:1040C000A8428A4D61658A4E8A4FDFF82C82DFF85C
:1040D0002C92DFF82CA2DFF82CB226D0A84224D0F4
:1040E000B04222D0B84220D040451ED048451CD016
:1040F00050451AD0584518D08349884215D0824976
:104100001831884211D08049303188420DD07E4923
:104110004831884209D07C496031884205D07A49CB
:104120007831884201D078499031016821F001014D
:10413000016061462046FEF771FA6B4920688842AB
:104140002CD0A8422AD0B04228D0B84226D0404530
:1041500024D0484522D0504520D058451ED06A4A28
:1041600090421BD0684A1832904217D0664A3032CB
:10417000904213D0644A483290420FD0624A603273
:1041800090420BD0604A7832904207D05E4A90321B
:10419000904203D05C4AA83290420CD1026822F0CF
:1041A0001E0242F016020260206C88B1206802688C
:1041B00042F008020BE0026822F00E0242F00A020E
:1041C0000260206C20B12068026842F004020260A4
:1041D000206888424BD0A84249D0B04247D0B8426C
:1041E00045D0404543D0484541D050453FD0584543
:1041F0003DD0454A90423AD0434A1832904236D098
:10420000414A3032904232D03F4A483290422ED01A
:104210003D4A603290422AD03B4A7832904226D0C2
:10422000394A9032904222D0374AA83290421ED06A
:10423000364A90421BD0354A1432904217D0334A46
:104240002832904213D0314A3C3290420FD02F4A4C
:10425000503290420BD02D4A6432904207D02B4A04
:104260007832904203D0294A8C3290420DD1206E90
:104270000268D20303D5026842F480720260E06EE5
:1042800018B1026842F4807202602068884226D029
:10429000A84224D0B04222D0B84220D040451ED0FF
:1042A00048451CD050451AD0584518D01649884268
:1042B00015D015491831884211D013493031884240
:1042C0000DD011494831884209D00F4960318842E8
:1042D00005D00D497831884201D00B4990310168F1
:1042E00041F001010160DFE61000024028000240B9
:1042F0004000024058000240700002408800024026
:10430000A0000240B80002401004024008540258C5
:1043100070B5044600F030F90546601C02D0044830
:104320000078044400F028F9401BA042FAD370BD85
:104330001C0000242DE9F84F03247D4D00234FF08D
:1043400001094FF0B04B4FF00F0AE9E009FA03F70B
:104350003A4076D00E7906F00306012E01D0022EE7
:1043600018D1D0F808C04FEA430ECE6804FA0EF810
:104370002CEA080C06FA0EF646EA0C068660D0F81F
:1043800004C00E792CEA070CC6F300169E4046EADC
:104390000C0646600E79F643B6070BD0C6684FEAA6
:1043A00043088F6804FA08FC26EA0C0607FA08F7A7
:1043B0003743C7600E7906F00306022E12D1DE08DD
:1043C0000F694FEA437C00EB8606B646366A4FEA31
:1043D000DC6C0AFA0CF807FA0CF726EA08063743F1
:1043E000CEF820700F7906684FEA430807F00307FC
:1043F00004FA08FC07FA08F726EA0C0637430760B8
:104400004E6816F4403F1CD04A4E376847F002070A
:10441000376036689F0706F00206009623F0030611
:1044200006F1B046B6463F0FD6F80864DFF80881BB
:104430000AFA07FC404526EA0C0603D14FF0000CAF
:1044400041E06CE0DFF8F4C0604502D14FF0010CB0
:1044500039E0DFF8ECC0604502D14FF0020C32E0E9
:10446000DFF8E0C0604502D14FF0030C2BE0DFF82D
:10447000D8C0604502D14FF0040C24E0DFF8CCC076
:10448000604502D14FF0050C1DE0DFF8C4C0604567
:1044900002D14FF0060C16E0DFF8B8C0604502D13B
:1044A0004FF0070C0FE0DFF8B0C0604502D14FF0CD
:1044B000080C08E0DFF8A4C0604502D14FF0090CF9
:1044C00001E04FF00A0C0CFA07FC4CEA060CCEF89F
:1044D00008C44F68DBF80060FF0226EA020600D538
:1044E00016435F46CBF80060D1F804C0DBF80460E7
:1044F0005FEA8C2C26EA020600D516437E606E68C1
:104500004F6826EA0206BF0300D516436E602E6888
:104510004F6826EA0206FF0300D516432E605B1C97
:104520000A6832FA03F67FF411AFBDE8F88F000095
:1045300080000058F4440258000002580004025859
:1045400000080258000C02580010025800140258CB
:1045500000180258001C025800200258002402587B
:104560000AB1816170470904FBE700000148006857
:10457000000C70470010005C014880687047000024
:104580001C00002402488168027811448160704751
:104590001C000024032010B500F0D4F801F0B6FA96
:1045A0000F4A104914681368C4F3032203F00F0381
:1045B0008A5CC95C02F01F0201F01F01D0400A4A68
:1045C00020FA01F11160094908600F2000F010F88D
:1045D00008B1012010BD00F079F8002010BD0000E6
:1045E000184402584A8600082C00002428000024A1
:1045F00070B50D4D04462878A0B14FF47A71B1FB27
:10460000F0F00A490968B1FBF0F001F0DCFD48B9AF
:10461000102C07D200222146501E00F073F8002013
:104620006C6070BD012070BD1C00002428000024B7
:10463000F0B5154C4378211D0A1D23600378F3B1B2
:1046400043680B60057BC67A817A437B2D07847BA8
:1046500045EA0665C77B90F809C0067A90F800E045
:1046600045EAC14040EA834040EA444040EA07400E
:1046700040EA0C2040EA460040EA0E0001E000203B
:1046800008601060F0BD000098ED00E0BFF35F8FA0
:10469000044800210368034A23F480330360703226
:1046A0001160704724ED00E0074A40F00100064920
:1046B00070321060086840F480300860BFF34F8F9C
:1046C000BFF36F8F7047000024ED00E0054808B588
:1046D000016841F002010160006800F002000090F2
:1046E00008BD0000F4440258002809DB410900F02D
:1046F0001F028900012001F1E0219040C1F8000172
:10470000704700000E4BF0B41B680D46C3F3022344
:10471000C3F10706042E00D90426191D072901D26A
:10472000002300E0DB1E012404FA06F19C40491E30
:104730002940641E994014402143F0BC03F0DAB8CC
:104740000CED00E0064900F0070210B54FF6FF043B
:104750000868044B204040EA02201843086010BD5E
:104760000CED00E00000FA05134970B50A68D24369
:10477000520705D5096801F00701814213D118E0FD
:104780000A6822F0070202430A60FFF7F5FE0A4DAD
:104790004FF47A760446083D07E000BFFFF7ECFED1
:1047A000001BB04201D9012070BD2868C0438004BD
:1047B000F4D4002070BD00000C48025810B501F080
:1047C0005FF905490968054AC1F30211515C01F01E
:1047D0001F01C84010BD0000204402584A8600084E
:1047E0004A4930B5494C0B1D0A680C3409681D68EC
:1047F000246802F0030305F00102C1F30511C4F3BC
:10480000CC04002914FB02F200EE102AF8EE400A54
:1048100076D0414A9FED3E1ADFED3E1AB7EE000A10
:1048200023B1012B5AD0022B18D15CE0374C283C25
:1048300023689B0612D5394B246801EE901A116843
:10484000C4F3C104F8EE612AE34001EE903AC1F3EB
:104850000801F8EE611A81EEA22A07E002EE101AB2
:104860001168F8EE422A81EEA22A45E001EE901A84
:104870001168F8EE611A40EE811A71EE800A62EE5C
:10488000200AC1F3462101EE101AB8EE411A31EEAA
:10489000001AC0EE811ABCEEE11A80ED001A116810
:1048A000C1F3064101EE101AB8EE411A31EE001ABA
:1048B000C0EE811ABCEEE11A80ED011A1168C1F355
:1048C000066101EE101AB8EE411A31EE000A80EED0
:1048D000801ABCEEC10A80ED020A30BD01EE901ACA
:1048E000DFED0F2A03E001EE901ADFED0E2A1168CA
:1048F000F8EE611A82EEA12AC1F30801B6E7FFE7DC
:10490000002101604160816030BD000028440258F0
:10491000000000390024744C304402580090D00349
:104920000024744A20BCBE4B494930B5484C0B1D8D
:104930000A68143409681D68246802F00303C5F38B
:104940000012C1F30531C4F3CC04002914FB02F2B8
:1049500000EE102AF8EE400A75D03F4A9FED3D1A4E
:10496000B7EE000A6BB1DFED3D1A012B01D0022B2F
:1049700064D002EE101A1168F8EE422A81EEA22AE3
:1049800021E0334C283C23689B0612D5344B246825
:1049900001EE901A1168C4F3C104F8EE612AE340F5
:1049A00001EE903AC1F30801F8EE611A81EEA22AF5
:1049B0000BE001EE901ADFED2B2A00BFF8EE611A32
:1049C000116882EEA12AC1F3080101EE901A116864
:1049D000F8EE611A40EE811A71EE800A62EE200A4A
:1049E000C1F3462101EE101AB8EE411A31EE001A59
:1049F000C0EE811ABCEEE11A80ED001A1168C1F315
:104A0000064101EE101AB8EE411A31EE001AC0EE5E
:104A1000811ABCEEE11A80ED011A1168C1F306613A
:104A200001EE101AB8EE411A31EE000A80EE801A3B
:104A3000BCEEC10A80ED020A30BD04E001EE901A1E
:104A4000DFED092ABAE70021016041608160F3E7E8
:104A50002844025800000039384402580024744A9F
:104A60000090D0030024744C20BCBE4B494930B5A3
:104A7000484C0B1D0A681C3409681D68246802F044
:104A80000303C5F30022C1F30551C4F3CC0400298C
:104A900014FB02F200EE102AF8EE400A75D03F4AED
:104AA0009FED3D1AB7EE000A6BB1DFED3D1A012B09
:104AB00001D0022B64D002EE101A1168F8EE422ADF
:104AC00081EEA22A21E0334C283C23689B0612D5B4
:104AD000344B246801EE901A1168C4F3C104F8EE57
:104AE000612AE34001EE903AC1F30801F8EE611A41
:104AF00081EEA22A0BE001EE901ADFED2B2A00BF17
:104B0000F8EE611A116882EEA12AC1F3080101EEE4
:104B1000901A1168F8EE611A40EE811A71EE800A5F
:104B200062EE200AC1F3462101EE101AB8EE411AD6
:104B300031EE001AC0EE811ABCEEE11A80ED001AC7
:104B40001168C1F3064101EE101AB8EE411A31EEB8
:104B5000001AC0EE811ABCEEE11A80ED011A11684C
:104B6000C1F3066101EE101AB8EE411A31EE000AE7
:104B700080EE801ABCEEC10A80ED020A30BD04E06E
:104B800001EE901ADFED092ABAE7002101604160C9
:104B90008160F3E72844025800000039404402587D
:104BA0000024744A0090D0030024744C20BCBE4BF7
:104BB0002DE9F04FAC4A0546DFF8A8A280F48070DA
:104BC000DFF8AC9289B01311AA4C0843A748AAF1A8
:104BD00004064FF0805C4FF000582CD085F400772D
:104BE0000F4357D0DFF87CB285F480670F430BF199
:104BF000080B61D085F400670F4374D085F48057AB
:104C00000F436ED085F400570F434FF480394FF4B3
:104C1000003E67D085F400270F4371D085F48037BC
:104C20000F436ED085F480460E436BD085F400426E
:104C30000A4368D02AE0DAF8001001F007010529DC
:104C400024D2DFE801F075BC7D25B10006A8FFF78E
:104C5000C7FD079809B0BDE8F08F6846FFF764FE0E
:104C60000098F7E703A8FFF701FF0398F2E7206831
:104C7000C0F3C10022FA00F0ECE72268D20571D53A
:104C800061456FD11846E5E74145E3D00020E1E7F3
:104C90004846DFE7DAF8001001F4E07180294FD0D0
:104CA00004DC002944D04029F0D188E0C029EFD0AD
:104CB000B1F5807FEAD177E0DBF8001001F4600104
:104CC000B1F5800F3CD004DC91B3B1F5001FDDD10C
:104CD00075E0B1F5C00FDBD0B1F5000FD6D163E0C0
:104CE00001E018E030E0DBF8001001F0E061B1F124
:104CF000007F25D008DCD9B1B1F1807FC6D15EE05C
:104D000049E06CE079E09CE0B1F1407FC0D0B1F1C6
:104D1000806FBBD148E0DAF8001001F4E041B1F552
:104D2000005F0DD005DC19B1B1F5805FAED146E072
:104D300094E0B1F5405FABD0B1F5804FA6D133E040
:104D400020688000A2D58DE7DAF8001001F4E02198
:104D5000B1F5403F6CD006DC61B149457AD0714570
:104D600094D157E037E0B1F5802F65D0B1F5A02F91
:104D70008CD10CE000F0A6FE6CE76846FFF7D4FD8E
:104D8000019867E703A8FFF771FE049862E72168BE
:104D90008903F1D47AE7DBF8001011F440310ED02A
:104DA000494510D07145F5D13168256801F0405171
:104DB0006D077FF562AF00297FF45FAF57E720688A
:104DC0000001E7D549E720688000E3D503A8FFF795
:104DD0004DFE05983EE722689203DBD554E7306824
:104DE00010F480303AD04845D4D120680001D1D5A4
:104DF0006846FFF799FD02982CE7DBF8001001F0F8
:104E0000E041B1F1405F13D008DC71B1614521D0C0
:104E10004145BFD120688000B4D437E7B1F1804F5D
:104E20000AD0B1F1A04FB2D030E7FFF7C7FC11E7CD
:104E300020684007AED51AE72068C005AAD521E74B
:104E400008E0DAF8001011F04051A0D0614505D01B
:104E500041459FD1206800018FD417E72068800169
:104E600098D5F3E6504402580090D00340787D0175
:104E70000080BB00004402582DE9FE4F0546DFF8D4
:104E8000E48350F8081B0024F64FC943019005F154
:104E90002800264608F12408009008011DD4A86EB9
:104EA00050B1B0F5801F0CD0B0F5001F0ED0B0F59A
:104EB000401F1ED001240FE0386840F400303860F5
:104EC00017E00198022101F033FF03E0009802216E
:104ED00001F0BEFF04000CD026462888C043C00560
:104EE00023D4A86D05281ED2DFE800F00C11161B94
:104EF0001B00AA6ED8F8001021F440111143C8F825
:104F00000010EAE7386840F40030386009E00198A2
:104F1000002101F00DFF03E00098002101F098FF4F
:104F2000044674B100E0012426462888C043800569
:104F300028D4E86D80281ED00CDC90B140280ED11A
:104F400014E0AA6DD8F8001021F007011143C8F849
:104F50000010EAE7C02813D0B0F5807F10D00124FC
:104F60000FE0386840F40030386009E00198002113
:104F700001F0DEFE03E00098002101F069FF044625
:104F80009CB126462888DFF8DC92C04309F12C0941
:104F900040052CD4D5F8A800B0F5800F20D00DDC4A
:104FA000A0B1B0F5001F0FD115E0EA6DD8F80010E0
:104FB00021F4E0711143C8F80010E3E7B0F5C00F29
:104FC00013D0B0F5000F10D001240FE0386840F482
:104FD0000030386009E00198002101F0A9FE03E0EB
:104FE0000098002101F034FF04467CB12646288851
:104FF000C04300052DD4D5F8AC00B0F1007F21D01E
:105000000EDCA8B1B0F1807F10D116E0D5F8A82051
:10501000D9F8001021F460011143C9F80010E6E747
:10502000B0F1407F13D0B0F1806F10D001240FE0B9
:10503000386840F40030386009E00198002101F040
:1050400077FE03E00098002101F002FF044674B1EE
:1050500026462868C04380011FD4E86CD8B11028C8
:105060000FD0202812D0302815D0012414E0D5F814
:10507000AC20D9F8001021F0E0611143C9F800100C
:10508000E7E7386840F40030386004E00198022116
:1050900001F04EFE044674B126462888C043C00481
:1050A0002BD4286EB0F5005F20D00DDCA0B1B0F598
:1050B000805F0FD115E06B48EA6C2030016821F069
:1050C000300111430160E8E7B0F5405F13D0B0F55F
:1050D000804F10D001240FE0386840F40030386071
:1050E00009E00198002101F023FE03E0009800216F
:1050F00001F0AEFE04468CB126462888C0438004E9
:1051000029D4686EB0F5403F23D010DC08B3B0F569
:10511000803F14D0B0F5003F0FD115E02A6ED8F8CB
:10512000001021F4E0411143C8F80010E5E7B0F5A4
:10513000802F0ED0B0F5A02F0BD001240AE00198EB
:10514000012101F0F5FD03E00098012101F080FE4E
:10515000044694B126462888C04340042AD4D5F892
:10516000B000B0F1405F23D010DC08B3B0F1805F35
:1051700014D0B0F1005F0FD115E06A6ED8F80010BE
:1051800021F4E0211143C8F80010E4E7B0F1804FAA
:105190000ED0B0F1A04F0BD001240AE001980121FC
:1051A00001F0C6FD03E00098012101F051FE044624
:1051B00074B126462888C04300041FD4286FD8B194
:1051C000B0F1805F0ED0B0F1005F10D0012414E088
:1051D000D5F8B020D9F8001021F0E0411143C9F80A
:1051E0000010E7E7386840F40030386004E00198C8
:1051F000012101F09DFD044674B126462868C04394
:10520000C0011ED4A86CD0B101280ED0022811D044
:10521000032814D0012413E02A6FD8F8001021F0DD
:1052200040511143C8F80010E8E7386840F40030F6
:10523000386004E00198022101F07AFD0446ACB127
:1052400026462868DFF81CB0C043ABF11C0B4002B7
:1052500052D40548016841F480710160FFF78CF970
:10526000824611E02C44025800480258FA48AA6CC1
:10527000016821F0030111430160E2E7FFF77CF9C7
:10528000A0EB0A00642835D8F4480068C005F5D5BD
:105290008CBBDFF8C4A3B5F8B4100AF1240ADAF81D
:1052A000000001F4407100F44070884211D0DAF837
:1052B0000010DAF8002021F4407142F48032CAF87C
:1052C0000020DAF8002022F48032CAF80020CAF860
:1052D0000010D5F8B400B0F5807F1AD1FFF74CF973
:1052E000029012E0FFF748F90299411A41F2883022
:1052F00081420AD9032426462878DFF85CA3C043FC
:105300000AF1080AC00721D03CE0DAF80000800763
:10531000E8D5D5F8B410C1F30120032858460DD0C4
:10532000016821F47C510160B5F8B420DAF800106E
:10533000C2F30B021143CAF80010DDE7C84A036844
:1053400002EA111223F47C511143ECE7E86F1828AC
:1053500016D005DCA0B1082808D0102804D10AE036
:1053600020280DD028280BD001240AE00198012123
:1053700001F0DEFC03E00098012101F069FD044624
:1053800064B126462878C04380071ED4A86F06283B
:1053900019D2DFE800F0160C11161616EA6FDAF8CB
:1053A000001021F038011143CAF80010EAE7019813
:1053B000012101F0BDFC03E00098012101F048FD4E
:1053C00004467CB100E0012426462878C04340070B
:1053D0001FD4D5F89400062819D2DFE800F0160C87
:1053E00011161616AA6FDAF8001021F00701114302
:1053F000CAF80010E9E70198012101F099FC03E0E7
:105400000098012101F024FD0446A4B100E001242C
:1054100026462878C04380062BD4D5F89000B0F1FA
:10542000405F24D011DC10B3B0F1805F15D0B0F133
:10543000005F10D116E0D5F89420D9F8001021F0C3
:1054400007011143C9F80010E3E7B0F1804F0ED017
:10545000B0F1A04F0BD001240AE00198002101F027
:1054600067FC03E00098022101F0F2FC044694B1CD
:1054700026462878C04340062BD4D5F89C00B0F5CA
:10548000406F24D011DC10B3B0F5806F15D0B0F5AB
:10549000006F10D116E0D5F89020DAF8001021F056
:1054A000E0411143CAF80010E3E7B0F5805F0ED089
:1054B000B0F5A05F0BD001240AE00198002101F0B3
:1054C00037FC03E00098022101F0C2FC044694B1CD
:1054D00026462878C04300062BD4D5F8A000B0F5A6
:1054E000C04F24D011DC10B3B0F5005F15D0B0F57B
:1054F000804F10D116E0D5F89C20D9F8001021F487
:10550000E0511143C9F80010E3E7B0F5004F0ED0A9
:10551000B0F5204F0BD001240AE00198002101F0E2
:1055200007FC03E00098022101F092FC044654B10C
:1055300026462878C04300071ED4D5F88400B0F56D
:10554000805F0AD00FE0D5F8A020D9F8001021F430
:1055500060411143C9F80010EBE70098022101F007
:1055600077FC00B10126D5F88420DAF8001021F488
:1055700040511143CAF800102878C043C00613D424
:10558000D5F89800B0F5807F05D10098022101F090
:105590005FFC00B10126D5F89820D9F8001021F45D
:1055A00040711143C9F800102868C043000316D4A5
:1055B000D5F8A40038B1B0F5803F09D0B0F5003F70
:1055C0000BD001240AE00198002101F0B1FB03E0B7
:1055D0000098022101F03CFC04468CB12646286864
:1055E000C043400322D4D5F88800B0F5801F11D005
:1055F000B0F5001F13D0B0F5401F15D0012414E002
:10560000D5F8A420D9F8001021F440311143C9F88D
:105610000010E4E7386840F40030386004E0009897
:10562000012101F015FC04465CB126462868C04300
:10563000C00323D4286DA8B1B0F5803F17D0012452
:105640001BE0D5F88820DAF8001021F4401111434E
:10565000CAF80010EAE700004C440258004802581B
:10566000CFFFFF00386840F40030386004E0019854
:10567000022101F05DFB0446E4B126462868C043E0
:10568000800005D40098022101F0E2FB00B1012660
:105690002868C04380031BD4D5F88000B0B1B0F5B2
:1056A000807F0FD0B0F5007F10D0B0F5407F0DD0D7
:1056B00001240CE05A482A6D016821F4803111431D
:1056C0000160DBE7386840F400303860ECB3264610
:1056D0002868C043C00207D46A6FD8F8001021F0D0
:1056E00000411143C8F800102868C043C00008D426
:1056F000D5F8B820DBF8001021F480411143CBF835
:1057000000102868C043800207D4EA6ED8F8001061
:1057100021F080711143C8F800102868C043400090
:105720000CD4DBF8001021F40041CBF80010DBF8BA
:105730000010D5F8BC201143CBF800102868C043F6
:1057400008D437486A6D016800E018E021F0405144
:10575000114301602868C043000208D4D5F88C20AA
:10576000DAF8001021F440011143CAF8001028793A
:105770000024C04300F0010020430AD00FE0D5F818
:105780008020DAF8001021F440711143CAF80010AB
:105790009EE70198002101F0CBFA00B10646287976
:1057A000C04300F00200204305D10198012101F01F
:1057B000BFFA00B106462879C04300F00400204338
:1057C00005D10198022101F0B3FA00B1064628790B
:1057D000C04300F00800204305D10098002101F0EB
:1057E00037FB00B106462879C04300F01000204383
:1057F00005D10098012101F02BFB00B10646287964
:10580000C04300F02000044304D10098022101F0BD
:105810001FFB00B916B10120BDE8FE8F0020FBE799
:105820004C4402582DE9F05F04000F467ED0DFF8AB
:105830003882D8F8000000F00F00B8420CD2D8F837
:10584000001021F00F013943C8F80010D8F800000B
:1058500000F00F00B84269D12078844D40070AD586
:105860002069296801F07001884204D9296821F073
:1058700070010143296020787C4E361D00070AD54F
:105880006069316801F07001884204D9316821F003
:105890007001014331602078C0060AD5A0693168E3
:1058A00001F4E061884204D9316821F4E0610143E8
:1058B00031602078DFF8B4B180060BF1080B0CD50D
:1058C000E1695846DBF8002002F07002914204D9E9
:1058D000026822F070020A430260207880070AD52D
:1058E000E068296801F00F01884204D9296821F095
:1058F0000F01014329602078C0073ED05B49A268B0
:105900002868183920F47060104328606068022805
:1059100018D0032819D00968012819D0490700298F
:105920004ADADFF848A1AAF1080A00E044E0DAF810
:10593000002022F007020243CAF80020FEF71CFEF6
:10594000814612E009688903E9E709688901E6E709
:10595000C905E4E7FEF710FEA0EB090141F288302B
:10596000814202D90320BDE8F09F6168DAF80000A7
:1059700000F03800B0EBC10FECD1207880070AD5D9
:10598000E068296801F00F01884204D2296821F0FB
:105990000F0101432960D8F80010404601F00F01C3
:1059A000B9420BD9016821F00F0139430160006849
:1059B00000F00F00B84201D00120D4E72078400762
:1059C0000AD52069296801F07001884204D229684B
:1059D00021F0700101432960207800070AD5606931
:1059E000316801F07001884204D2316821F0700101
:1059F000014331602078C0060AD5A069316801F4FE
:105A0000E061884204D2316821F4E06101433160F1
:105A1000207880060CD5E1695846DBF8002002F0BA
:105A20007002914204D2026822F070020A430260BE
:105A300000F06CF80E492A682B68C2F3032203F0C9
:105A40000F038A5CC95C02F01F0201F01F01D04005
:105A5000084A20FA01F11160074908600748006808
:105A6000BDE8F05FFEF7C4BD0020005218440258A4
:105A70004A8600082C00002428000024200000246E
:105A800030B500F043F80B4A0B490C4B156814680D
:105A9000C5F3032204F00F048A5C095D02F01F02C3
:105AA00001F01F01D040064A20FA01F11960106090
:105AB000084630BD184402584A8600082C000024CD
:105AC0002800002400B5FFF7DBFF05490968054AF7
:105AD000C1F30211515C01F01F01C84000BD00007C
:105AE0001C4402584A86000800B5FFF7C9FF054963
:105AF0000968054AC1F30221515C01F01F01C84049
:105B000000BD00001C4402584A860008454970B593
:105B100045480968434B103B11F0380208D0011189
:105B2000082A03D0102A0BD0182A0BD0084670BDC3
:105B300019688906FBD51968C1F3C101C84070BD59
:105B40003A4870BD3749374D18310C1D24350A6865
:105B5000096826682D6802F0030406F00102C1F30B
:105B60000511C5F3CC0515FB02F200EE102AB8EEC4
:105B7000400AE9B32F4ADFED2E0AB7EE001A6CB1E6
:105B8000DFED2D1A012C01D0022C43D002EE101AA9
:105B90001068F8EE422A81EEA22A1EE01C68A406D4
:105BA00011D51B6801EE901A1168C3F3C103F8EE1A
:105BB000612AD84001EE900AC1F30800F8EE611A9C
:105BC00081EEA22A0BE001EE901ADFED1C2A00BF45
:105BD000F8EE611A106882EEA12AC0F3080001EE07
:105BE000900AF8EE611A40EE201A31EE810A00E0C8
:105BF00015E022EE000A1068C0F34620401C00EEBB
:105C0000900AF8EE600A80EE201ABCEEC10A10EE8F
:105C1000100A70BD01EE901ADFED092AD8E70020C6
:105C200070BD0000104402580090D00340787D0100
:105C300000000039304402580024744A0024744C97
:105C400020BCBE4B2DE9F05F04007DD0FF4F2078D3
:105C5000FE4D1837DFF8F493103DC00748D0D9F84F
:105C60000000396800F03800102815D0182803D13A
:105C700001F0030002280FD06068B0F5803F12D019
:105C800010B1B0F5A02F18D0286820F4803028601B
:105C9000286820F4802009E02868800328D56068FF
:105CA0000028D2D024E0286840F480302860606862
:105CB00088B1FEF761FC064609E0286840F48020C0
:105CC0002860F0E7FEF758FC801B64286FD828682E
:105CD0008003F7D50CE0FEF74FFC064605E000BF59
:105CE000FEF74AFC801B6428F0D828688003F7D4AC
:105CF000207841F20308D54E0C3E800769D5D9F8CB
:105D00000000396810F038000ED0182801D188073B
:105D10000AD0E06890B3296821F019010143296095
:105D2000FEF72AFC824631E02868400702D5E06889
:105D300000288AD0E168286820F01900084328600C
:105D4000FEF71AFC824607E0DFE000BFFEF714FC16
:105D5000A0EB0A000228B9D828684007F6D500BF92
:105D6000FEF704FC40451BD82069402812D031685A
:105D700021F47C3141EA003030602AE018E000BFB5
:105D8000FEF7FAFBA0EB0A0002289FD8286840071C
:105D9000F6D5E5E7306820F47C3040F40030EBE7DE
:105DA000207C316821F0FE4141EA0060E4E70DE12A
:105DB000286820F001002860FEF7DEFB824605E03F
:105DC000FEF7DAFBA0EB0A0002288DD8286840070E
:105DD000F6D42078C0065DD5D9F80000DFF86CB2A3
:105DE000396800F03800ABF1040B082810D01828EF
:105DF00003D101F0030001280AD0E06900282868D7
:105E000038D040F080002860FEF7B6FB824623E0E1
:105E10002868C00523D5E069802876D11FE0206A74
:105E2000202821D0316821F0F84141EA80603060BB
:105E300030E000BF94F82010DBF8002022F07C5204
:105E400042EA0161CBF8001024E000BFFEF794FBAA
:105E5000A0EB0A00022898D82868C005F6D5FEF7FE
:105E600085FB4045E6D8DAE7306820F0F84040F09E
:105E70008040DCE720F080002860FEF77DFB0646CE
:105E800005E000BFFEF778FB801B02289DD828683C
:105E9000C005F7D42078000729D56C4861696430C3
:105EA00000298046016811D041F001010160FEF730
:105EB00063FB064605E000BFFEF75EFB801B022881
:105EC000C9D8D8F800008007F6D510E021F001010C
:105ED0000160FEF751FB064605E000BFFEF74CFBF4
:105EE000801B022872D8D8F800008007F6D42078EA
:105EF000800623D5A0690028286810D040F480507F
:105F00002860FEF739FB064605E036E1FEF734FB74
:105F1000801B02285AD828688004F7D50EE020F4A8
:105F200080502860FEF728FB064604E0FEF724FBBD
:105F3000801B02284AD828688004F7D420784007BC
:105F40004FD5DFF80C81D8F8001041F48071C8F803
:105F50000010FEF711FB064605E000BFFEF70CFB44
:105F6000801B642832D8D8F80000C005F6D5374E1B
:105F7000A068603601280AD008B1052813D030681F
:105F800020F001003060306820F0040002E030684A
:105F900040F001003060A06841F2883A90B1FEF70D
:105FA000EBFA80460AE0306840F004003060EEE72B
:105FB000FEF7E2FAA0EB0801514507D830688007E8
:105FC000F6D50EE0FEF7D8FA804607E084E000BF81
:105FD000FEF7D2FAA0EB080151457DD83068800762
:105FE000F6D4606AB0B3DFF86480D9F8001008F125
:105FF00020084FF6F87B08F10409C1F3C201032918
:10600000A8F1040A69D00228286820F0807028606E
:1060100003D0FEF7B1FA044684E0FEF7ADFA064677
:1060200005E000BFFEF7A8FA801B022877D8286891
:106030008001F7D4E26A40F2F331386854F8283F1F
:10604000884340EA02101843386004E010440258C4
:1060500000480258B5E0217B434622894FF4FE0CEC
:10606000208A4FF0FE474902267D521E401EA1F5B0
:106070000071C2F308088AB2761E0CEA004042EAB8
:1060800008020243504607EA06610A431A60DAF83A
:10609000002022F00102CAF80020D9F80020266A68
:1060A00022EA0B0242EAC602C9F80020DAF8001020
:1060B000A26921F00C011143CAF800100168E269DD
:1060C00021F0020111430160016841F48031016057
:1060D000016841F4003101E021E027E0016001683E
:1060E00041F480210160016841F0010101602868EC
:1060F00040F080702860FEF73FFA044605E000BFDC
:10610000FEF73AFA001B022809D828688001F7D563
:1061100057E000BFFEF730FA001B022802D9032027
:10612000BDE8F09F28688001F4D44AE0396801286E
:10613000D8F8000021D0A26A01F0030393421CD1D9
:10614000E26AC1F305118A4217D1216BC0F308023C
:10615000491E8A4211D1616BC0F34622491E914209
:106160000BD1A16BC0F30642491E914205D1E16BF0
:10617000C0F30660491E814201D00120D0E7A16C26
:106180004E46D9F80000C0F3CC00814219D0DAF8AD
:106190000000554620F00100CAF80000FEF7ECF9B7
:1061A0004FEA0007FEF7E8F9B842FBD0A26C30686E
:1061B00020EA0B0040EAC2003060286840F001008D
:1061C00028600020ACE7401EB0F1807F10B501D3FD
:1061D000012010BD4FF0E02460610F21601701F035
:1061E00089FB0020A0610721216110BD7047704725
:1061F00070470000F0B590F83C20012A3BD01F4EBC
:10620000012480F83C40022280F83D2002681C4DA9
:106210005368B242D2F808C001D0AA4203D14F68F5
:1062200023F470033B430F6823F070031F43576050
:106230000268B24213D0B2F1804F10D0114B9A4293
:106240000DD0114B9A420AD0104B9A4207D0AA4265
:1062500005D00F4B9A4202D00E4B9A4204D1896866
:106260002CF0800319439160002180F83D4080F8B4
:106270003C100846F0BD0220F0BD000000000140C7
:10628000000401400004004000080040000C0040F1
:10629000001800400040014010B5040003D094F8FD
:1062A0003D0010B107E0012010BD002084F83C0043
:1062B000204600F023F8022084F83D002068211DCC
:1062C00000F04AFF012084F8480084F83E0084F87A
:1062D0003F0084F8400084F8410084F8420084F8CC
:1062E000430084F8440084F8450084F8460084F8AC
:1062F000470084F83D00002010BD000010B586B0B6
:10630000044614216846FAF71DF821682448B1F1C3
:10631000804F27D0234A91422ED1016841F00801D5
:106320000160006800F0080005901D480838016809
:1063300041F00101016000680021102200F001001D
:10634000059002200092CDE90101CDE90310164825
:106350006946FDF7EFFF002232201146FEF7D2F921
:1063600032201AE0016841F001010160006800F08C
:106370000100059006B010BD0C4A9142FAD10168A7
:1063800041F01001016000680022114600F0100089
:1063900005903620FEF7B6F93620FEF7A5F9E9E7B5
:1063A000E8440258000C0040000002580010004071
:1063B00090F83D10012901D001207047144B0222B2
:1063C000016880F83D20994214D0B1F1804F11D07E
:1063D000104881420ED0104881420BD00F488142B4
:1063E00008D00F48814205D00E48814202D00E48A5
:1063F000814207D188680D4A1040062806D0B0F5C2
:10640000803F03D0086840F001000860002070471A
:10641000000001400004004000080040000C004063
:106420000004014000180040004001400700010046
:1064300090F83D10012901D001207047174A022130
:1064400080F83D100168CB6843F00103CB60006821
:10645000904214D0B0F1804F11D0114988420ED033
:10646000104988420BD01049884208D00F49884211
:1064700005D00F49884202D00E49884207D1816871
:106480000D4A1140062906D0B1F5803F03D00168BE
:1064900041F0010101600020704700000000014050
:1064A0000004004000080040000C004000040140CF
:1064B000001800400040014007000100016841F25F
:1064C00011130A6A1A4207D10A6A9B101A4203D1B1
:1064D0000A6822F001020A60012180F83D100020C4
:1064E0007047000070B5044690F83C000025012874
:1064F00014D03A4B012684F83C60022084F83D0019
:1065000022689068184020F47F40906008687028E6
:106510002FD010DC10F00F0F03D022E04FF002005C
:1065200070BD4FEA2012072A1BD2DFE802F0535356
:1065300053534B394100B0F1101F4BD009DCB0F57B
:10654000805F0FD0B0F5005F1ED0B0F5801F08D17E
:1065500040E0A0F5801120393CD010293AD0202904
:1065600038D0012584F83D60002084F83C0028469E
:1065700070BD4A682068D1E9021300F04FFE206820
:10658000816841F0770109E04A682068D1E9021387
:1065900000F044FE2068816841F480418160E1E7B9
:1065A000CA684968206800F04DFE2068502106E066
:1065B000CA684968206800F056FE2068602100F033
:1065C00037FECFE7CA684968206800F03BFE2068C4
:1065D0004021F4E7226801461046F0E788FFCEFF2D
:1065E000704770B50446006800250169C9438907F2
:1065F00015D4C168C943890711D4EA1E026101217B
:106600002177206880698007204602D0FFF7E8FFE5
:1066100004E000F0A7F8204600F0A5F825772068F0
:106620000169C943490717D4C168C943490713D44D
:1066300002216FF00402026121772068806910F462
:10664000407F204602D0FFF7CBFF04E000F08AF83D
:10665000204600F088F8257720680169C9430907BA
:1066600016D4C168C943090712D404216FF0080287
:10667000026121772068C0698007204602D0FFF7B9
:10668000AFFF04E000F06EF8204600F06CF82577CC
:1066900020680169C943C90617D4C168C943C9063E
:1066A00013D408216FF01002026121772068C069BD
:1066B00010F4407F204602D0FFF792FF04E000F084
:1066C00051F8204600F04FF8257720680169C9434A
:1066D000C90708D1C168C943C90704D1891E01612E
:1066E000204600F041F820680169C943090609D431
:1066F000C168C943090605D46FF0800101612046D5
:10670000FFF775FD20680169C943C90509D4C1684F
:10671000C943090605D46FF4807101612046FFF773
:1067200065FD20680169C943490609D4C168C943A8
:10673000490605D46FF040010161204600F036F8AB
:1067400020680169C94389060BD4C168C943890619
:1067500007D46FF0200101612046BDE87040FFF7CB
:1067600047BD70BD7047704730B50C4B02680C498F
:106770009A4202D18A68521C8A600068094A904293
:106780000BD1094800228C680068436AC56A4A60D8
:1067900005FB0433C1E90223426230BD000C004016
:1067A000000000240010004060390024704730B51C
:1067B00090F88410012918D0012280F88420242127
:1067C000C0F888100022202401680B680D6823F0AF
:1067D000005325F001050D60426601680B60C0F8AA
:1067E000884080F88420104630BD022030BD70B54E
:1067F000044690F8840001281DD0012284F88420EA
:106800002420C4F8880020680568026822F001028C
:1068100002602068826822F060620A43826020463B
:1068200000F034FD2268202100201560C4F8881093
:1068300084F8840070BD022070BD70B5044690F8E5
:10684000840001281DD0012284F884202420C4F86B
:10685000880020680568026822F001020260206852
:10686000826822F060420A438260204600F00EFDFA
:106870002268202100201560C4F8881084F8840064
:1068800070BD022070BD10B5040003D0D4F888009C
:1068900010B107E0012010BD002084F884002046DC
:1068A00000F026F82420C4F888002068016821F050
:1068B00001010160204600F0EFFD0128EBD0A06A45
:1068C00010B1204600F004FD2068416821F4904199
:1068D00041602068816821F02A0181602068016898
:1068E00041F0010101602046BDE8104000F054BDB8
:1068F00010B5B6B00446142130A8F9F723FDC02125
:106900006846F9F71FFD1949206888422BD10020FD
:106910001F9001210446CDE900106846FEF7ACFA4D
:1069200008B1FBF78CFF1248016841F010010160CB
:10693000006800F0100035900D481038016841F0F3
:1069400001010160006830AB022100F001003590C8
:106950004FF4C060072283E81300064830A9CDE950
:106960003342FDF7E7FC36B010BD000000100140D7
:10697000F0440258000002582DE9F8430446D0F8CC
:106980008800984616460D46202802D00220BDE811
:10699000F883A5B19EB10021C4F890102120C4F85D
:1069A00088001834FDF7E8FD814654F8100CA687DE
:1069B000E6872027183CB0F5805F02D003E0012075
:1069C000E5E7206910B12E46002510E000260EE014
:1069D0008021204600F036FFC0B9DEB116F8010B69
:1069E00021688862B4F85600401EA4F85600B4F836
:1069F00056004B464FF00002CDF800800028E7D14A
:106A00004FF04001204600F01DFF48B1C4F88870E7
:106A10000320BCE735F8020B2168C0F30800E0E76B
:106A2000C4F888700020B2E7FEE78068C0F3C000B9
:106A300070478068C0F3800070478068C0F38000B2
:106A40007047C06810F4406F01D0002070470120EB
:106A5000704710B5042404EAD1540723C1F304514C
:106A600020448B408A40416999431143416110BDE4
:106A700070B58AB0002468461C21079408940994D4
:106A8000F9F760FC1D4804261B490125AA02C0E94C
:106A9000001484604FF4AC61C0E90346047544758A
:106AA00085610477C0E90B544463C0E9091280F89A
:106AB0003840FCF799F908B1FBF7C1FE0F4807A968
:106AC0000794FBF70DFF08B1FBF7B9FE0C48062150
:106AD000CDE9046440F2FF7203928DE82300074879
:106AE00069468DF81940FBF78FFF002801D0FBF7AE
:106AF000A6FE0AB070BD0000002002403838002415
:106B000000002143094808B5016841F00101016016
:106B100000680022114600F0010000900B20FDF7F4
:106B2000F1FDBDE808400B20FDF7DEBDD84402585A
:106B300030B587B014216846F9F704FC164801689F
:106B400041F004010160016801F004010591016850
:106B500041F080010160016801F080010591016848
:106B600041F00101016000684FF400540B4D002218
:106B700000F00100214605902846FDF7F1FC0121B7
:106B80000020CDE90041CDE9021069462846FDF715
:106B9000D1FB07B030BD0000E044025800080258A5
:106BA00010B588B0174800247C2200944FF0804133
:106BB0000194802302940394049405940694C0E9FC
:106BC0000014C0E9024204618361FFF765FB08B16C
:106BD000FBF735FE4FF4805000900A486946FFF7F6
:106BE00081FC08B1FBF72BFE20200490054804A986
:106BF0000694FFF7FFFA002801D0FBF720FE08B04B
:106C000010BD00001439002410B588B018480024C5
:106C10001649621E00948023019402940394049404
:106C200005940694C0E90014C0E90242046183613E
:106C3000FFF732FB08B1FBF702FE4FF40050694644
:106C4000CDE900040A4802940394FFF74BFC08B115
:106C5000FBF7F5FD064804A904940694FFF7CAFA69
:106C6000002801D0FBF7EBFD08B010BD000C004080
:106C7000603900243EB51148002442F20F7245F6F7
:106C8000BF53009480210194029481610A4DC0E9B0
:106C90000242C0E90053FFF7FFFA08B1FBF7CFFD4E
:106CA0000648694600940294FFF7A4FA002801D030
:106CB000FBF7C5FD3EBD000000100040AC390024CC
:106CC0001848002110B5164C0C224FF4E133046033
:106CD000C0E90131C160C0E904128161C161016292
:106CE00041628162FFF7CFFD08B1FBF7A8FD0D48B7
:106CF0000021FFF7A2FD08B1FBF7A1FD0948002123
:106D0000FFF775FD08B1FBF79AFD0648FFF74FFD49
:106D1000002803D0BDE81040FBF791BD10BD000076
:106D200000100140F8390024FEE7FEE7704700003C
:106D30002DE9F047454D044689464FF0000A286882
:106D4000C04380070AD0414E283E306820F0806062
:106D50003060FDF711FC0746B04608E00120BDE8B1
:106D6000F08700BFFDF708FCC01B022867D8D8F8E1
:106D700000000001F6D4206829684FF4FE0721F4D2
:106D80007C313E0241EA00302860207AA389B4F8C1
:106D900004C040022D4D2D495B1E227CACF1010C3C
:106DA0001035091DA0F5007080B2521ECCF3080CFE
:106DB00007EA034340EA0C00184306EA0262104364
:106DC00028600868626920F0C000104308600A6803
:106DD000A06922F0200202430A60281D0A6822F0FE
:106DE00010020A6002684FF6F873E4699A4342EAB7
:106DF000C40202600868B9F1000F40F010020A6096
:106E000011D00868B9F1010F11D040F400100860EA
:106E1000D8F80000444640F08060C8F80000FDF754
:106E2000ABFB05460DE0086840F40020EFE740F4B6
:106E30008010ECE7FDF7A0FB401B022801D90320DE
:106E40008DE720680001F5D5504688E728440258B0
:106E50002DE9F047454D044689464FF0000A286861
:106E6000C04380070AD0414E283E306820F0805051
:106E70003060FDF781FB0746B04608E00120BDE821
:106E8000F08700BFFDF778FBC01B022867D8D8F851
:106E900000008000F6D4208829684FF4FE0721F016
:106EA0007C713E0241EA00502860207AA389B4F840
:106EB00004C040022D4D2D495B1E227CACF1010C1B
:106EC0001835091DA0F5007080B2521ECCF3080CD5
:106ED00007EA034340EA0C00184306EA0262104343
:106EE00028600868626920F44060104308600A68FE
:106EF000A06922F4007202430A60281D0A6822F485
:106F000080720A6002684FF6F873E4699A4342EAB5
:106F1000C40202600868B9F1000F40F480720A6090
:106F200011D00868B9F1010F11D040F080700860ED
:106F3000D8F80000444640F08050C8F80000FDF743
:106F40001BFB05460DE0086840F48000EFE740F4C5
:106F50000000ECE7FDF710FB401B022801D90320DD
:106F60008DE720688000F5D5504688E72844025810
:106F70007047000010B5FDF705FB024901200870BD
:106F800010BD00000000002430B59DB04C216846C3
:106F9000F9F7D8F9202113A8F9F7D4F90220FDF761
:106FA000E3FB2D4900242D480A6822F001020A6003
:106FB0000A68026842F440420260026802F44042F9
:106FC0001B9202689204FCD5254A136843F0020321
:106FD0001360126802F002021B92026842F44042FF
:106FE000026002680A6842F001020A60096801F062
:106FF00001011B9101688904FCD502200090402505
:1070000004950121039104220B923C23CDE909044C
:10701000CDE90C300FAB0E900C2183E813006846CD
:107020001294FEF70FFE08B172B6FEE708221A9519
:10703000CDE91625D30113AA3F200321CDE918532A
:1070400082E81300042113A8FEF7ECFB002801D00E
:1070500072B6FEE71DB030BD2C0400581848025827
:10706000F44402582C48F0B52C4A016841F47001F0
:107070000160106800F00F00072804D2106820F0AB
:107080000F00C01D106026490020254C10340B68ED
:10709000244D43F001030B6020600B682B400B6014
:1070A000136803F00F03072B04D9136823F00F03B1
:1070B000DB1D13601A4C1C4A18341C4B261D371D4F
:1070C0002060174C1A4D28343060261D3860371D5B
:1070D00023603B1D35601C1D3A60251D2E1D186068
:1070E000331D22602860326018600A680C4B114C16
:1070F00022F4802260330A60186020686FF30F006A
:10710000B0F1005F03D20C490120C1F8080143F23D
:10711000D2000A490860F0BD88ED00E0002000526E
:10712000004402587FEDF6EA8002010100020202EB
:107130000000FF010010005C008000510040005280
:107140000148FFF74EBA0000603900240148FFF7FC
:1071500048BA0000AC3900242DE9F047274B4FF026
:10716000804A274D02689842264E274F274C09D067
:10717000504507D0A84205D0B04203D0B84201D054
:10718000A04205D1D1F804C022F070024CEA0202FC
:10719000DFF87CC0DFF87C809842DFF87C900FD06D
:1071A00050450DD0A8420BD0B04209D0B84207D00C
:1071B000A04205D0604503D0404501D0484503D1E9
:1071C000CD6822F440722A434D6922F080022A439E
:1071D000026098428A68C2620A68826207D0A0424E
:1071E00005D0604503D0404501D0484501D109692B
:1071F000016301214161BDE8F0870000000001400A
:107200000004004000080040000C00400004014061
:1072100000400140004401400048014042EA03228E
:1072200083680A4323F47F410A4382607047000069
:10723000034B82681A400A4342F00701816070479D
:107240008FFFCFFF10B5036A046A23F00A0324F00E
:107250000104046284690B4324F0F00141EA021145
:107260008161036210BD10B5036A23F0100303624D
:107270008369046A23F4704324F0A00443EA0232D1
:10728000826144EA0111016210BD000030B5416E17
:10729000B9B101680D4B03F108048A688968C2F32B
:1072A0004262490F5D5C615C2D01B5FBF1F1A0F814
:1072B0006A10995CA25C0901B1FBF2F1A0F86810B8
:1072C00030BD0121A0F86A10F8E700003A860008F6
:1072D00090F82810C90706D00168C36A4A6822F4EA
:1072E00000321A434A6090F82810890706D50168D1
:1072F000036B4A6822F480321A434A6090F82810DF
:10730000490706D50168436B4A6822F480221A4374
:107310004A6090F82810090706D50168836B4A680F
:1073200022F400421A434A6090F82810C90606D594
:107330000168C36B8A6822F480521A438A6090F80D
:107340002810890606D50168036C8A6822F4005269
:107350001A438A6090F82810490611D50168436CD9
:107360004A6822F480121A434A60416CB1F5801FCA
:1073700006D10168836C4A6822F4C0021A434A604D
:1073800090F82810090606D50168C26C486820F4F8
:1073900000201043486070472DE9F843002504465B
:1073A000C0F89050FDF7E8F88046206820266FF07E
:1073B0007E470068000713D500224346310420466B
:1073C000009700F03FFA58B1216851E8000F20F013
:1073D000800041E80002002AF6D1C4F8886021E06C
:1073E00020680068400722D5002243464FF4800100
:1073F0002046009700F026FAC8B1206850E8001F28
:1074000021F4907140E80012002AF6D1206808307B
:1074100050E8001F21F0010140E80012002AF5D1D8
:10742000C4F88C60032084F88450BDE8F883C4F865
:107430008860C4F88C60E5662567002084F8845075
:10744000F3E7000010B5026852E8001F21F49071C4
:1074500042E80013002BF6D10E4B0268083252E8C6
:10746000001F194042E80014002CF6D1C16E01291A
:1074700008D1026852E8001F21F0100142E8001311
:10748000002BF6D100212022C0F88C20C166416774
:1074900010BD0000FEFFFFEF2DE9F04304468068B9
:1074A000D84E87B0D84B2168D4E90427D4F81CC043
:1074B00010430A68002547EA0C073843324002436C
:1074C0000A602068E268416821F44051114341603C
:1074D0002268A1699A4201D0206A01439768DFF8C7
:1074E0002CC3CB4ECB4807EA0C070F4397602168AB
:1074F000676ACA6A22F00F023A43CA622268B2423D
:107500000ED1006800F03800182873D047DCB8B3FB
:10751000082879D010286FD178E028287ED17BE028
:10752000BD498A4209D1006800F00700062875D2DB
:10753000DFE800F0546A6C6E7072B8498A4209D173
:10754000006800F00700062868D2DFE800F0475D19
:107550005F616365B2498A4209D1006800F00700A3
:1075600006285BD2DFE800F03A5052545658AD4935
:107570008A420BD1006800F0070006284ED200E0D6
:1075800010E0DFE800F02B4143454749A6498A4215
:107590000AD1006800F03800182839D0B7DD20285B
:1075A000BBD13CE001203AE0A0498A4209D1006801
:1075B00000F00700062831D2DFE800F01026282A64
:1075C0002C2E9B498A420BD1006800F00700062848
:1075D00024D2DFE800F003191B1D1F2100201EE04C
:1075E0009A421BD18B48001D006800F00700062856
:1075F00014D202E00CE007E010E0DFE800F0030541
:1076000007090B0D02200AE0042008E0082006E02C
:10761000102004E0202002E0402000E08020854986
:10762000DFF814829A42854A4FF400434FEA21174B
:107630004FF000064ED110281AD006DC022809D0DF
:1076400004280BD008287CD10DE020283ED040280B
:1076500077D13DE0FDF7B2F8014610E06846FDF74E
:1076600063F901990BE003A8FDF700FA049906E01D
:107670001068800605D51068C0F3C100C14000291C
:1076800070D0606A676838F8102007EB4703B1FBD9
:10769000F2F0834255D8B0EB073F52D8002308469A
:1076A0001946F8F717FE02467808130E120243EA4D
:1076B000012110183A4671410023F8F70BFE604A89
:1076C000A0F5407191423CD821688FE03946D8E757
:1076D0001946D6E7D4F81CC04FF6EF799C4546D141
:1076E000082819D005DC58B101280CD0042875D120
:1076F0000DE0102815D0202835D040286ED134E078
:10770000FEF7E0F901E0FEF7EFF9014610E0684608
:10771000FDF70AF901990BE003A8FDF7A7F9049911
:1077200006E01068800604D51068C0F3C100C140AF
:10773000C1B1636A606838F81330B1FBF3F14900F6
:1077400000E04BE001EB5001B1FBF0F0A0F11001C3
:10775000494543D84FF6F0732168C0F34202184000
:10776000104343E043E03946E3E71946E1E70828E0
:1077700019D005DC58B101280CD004282ED10DE019
:10778000102815D020282BD0402827D12AE0FEF73A
:1077900099F901E0FEF7A8F9014610E06846FDF707
:1077A000C3F801990BE003A8FDF760F9049906E01E
:1077B0001068800604D51068C0F3C100C140B1B1A3
:1077C000636A606838F81330B1FBF3F101EB5001E4
:1077D000B1FBF0F0A0F11001494505D9012506E003
:1077E0003946EDE71946EBE7216880B2C860012011
:1077F000A4F86A00A4F8680028466667A66707B080
:10780000BDE8F083F369FFCF000C0058FFF4FF11CF
:107810000010014054440258004400400048004019
:10782000004C00400050004000140140007800402F
:10783000007C00400090D0032286000800440258DB
:10784000FFFC0F002DE9F047994617460E46044607
:10785000089D4FF000082FE0681C2DD0FCF78CFE2F
:10786000A0EB0900A84214D89DB12068016849071F
:1078700022D5C169C94309070DD4082505622046F0
:10788000FFF7E0FDC4F89050012084F88480BDE843
:10789000F0870320FBE7C069C04300050CD42168D2
:1078A0004FF4006008622046FFF7CCFD2021C4F8A9
:1078B000901084F88480ECE72068C06936EA000004
:1078C00004D00020B842C7D00020E0E70120F9E74B
:1078D000FEE700000FB4054B10B503A9044A029857
:1078E00000F0F0F810BC5DF814FB0000ED84000817
:1078F00030000024090700284FEA116104DB00F181
:10790000E02080F80014704700F00F0000F1E02044
:1079100080F8141D704702E008C8121F08C1002A31
:10792000FAD170477047002001E001C1121F002A00
:10793000FBD1704701490860704700003400002403
:107940002DE9FF5F82B00021DDE90430020DDDF892
:1079500040B0034318D044F61050A2F2FF32424325
:107960001514119801281FD0A5EB0B00401C5FEAED
:10797000000A4FF000064E4FDFF83891B0465046EF
:1079800015D5CAF1000413E0119801244AA3012877
:1079900001D16FEA0B010298119AC0E90031C0E9E8
:1079A000024206B0BDE8F09FCBF10000DFE70446DD
:1079B0000021404A491842EB0450CDE9001012E082
:1079C000E00707D032463B4640464946F8F7B3FE4B
:1079D0008046894632463B4610461946F8F7ABFECC
:1079E00006460F466410002CEAD1DDE90401DDE90A
:1079F0000023BAF1000F06DAF8F79DFE42464B4627
:107A0000F8F799FE05E0F8F708FF42464B46F8F70D
:107A100004FF04460E460022284BF8F785FF03D8E2
:107A20004FF0FF30014607E00022254B204631464B
:107A3000F8F7DAFDF8F760FF102409E0002C0ADB04
:107A40000A220023F8F746FC039B30321A55641EC5
:107A500050EA0102F2D1641C039AC4F111031444E8
:107A6000119A012A03D0012208430DD10AE00843EC
:107A700004D000204FF0110B119072E7A3EB0B051F
:107A80006D1E0DE05B4504DD4FF0000205F10105C0
:107A900004E003DA4FF00002A5F10105002AECD062
:107AA00002981199C0E90231C0E9004579E7000068
:107AB000000014400000F03F300000000000F043E0
:107AC0000000E03F2DE9FF4F95B09A4688460646F4
:107AD0000025EEE1252877D100242746F94A012127
:107AE000039400E0044316F8013F203B01FA03F041
:107AF0001042F7D130782A2811D06FF02F03307858
:107B0000A0F13002092A16D8039A44F0020402EBCD
:107B1000820203EB42021044761C0390EFE758F810
:107B2000042B0392002A03DA504244F400540390D9
:107B300044F00204761C30782E2816D116F8010F76
:107B400044F004042A280DD06FF02F023078A0F101
:107B50003003092B09D807EB870302EB4303C7184F
:107B6000761CF3E758F8047B761C30786C280FD02D
:107B700006DC4C2817D068280DD06A2814D104E000
:107B8000742810D07A280FD10DE044F400140AE0D4
:107B900044F4801401E044F440147278824202D12B
:107BA00004F58014761C761C307866280BD013DC24
:107BB000582877D009DC002875D04528F6D046280B
:107BC000F4D047281AD193E118E0632835D064280F
:107BD00079D0652812D18BE1702873D008DC672832
:107BE000F1D069286FD06E280DD06F2806D1ACE097
:107BF00073282CD0752874D0782853D05246179902
:107C000090476D1C54E1C4F30250022809D00328A8
:107C10000DD0D8F8001004280DD00D6008F104082C
:107C200046E1D8F80010EA17C1E90052F6E7D8F8A3
:107C300000100D80F2E70D70F0E718F8041B8DF8C6
:107C4000001000208DF80100EB46012003E058F8F9
:107C500004BB4FF0FF3061074FF0000102D40DE08C
:107C600009F101018946B9420FDA8145F8DB1BF8B9
:107C700009100029F4D108E009F101018946814287
:107C8000FADB1BF809100029F6D103985346A0EB44
:107C9000090721463846179A00F080FA284400EB7D
:107CA000090507E044E008E10DE01BF8010B52462E
:107CB00017999047B9F10109F7D253462146384642
:107CC000179AF2E039E00A21C4F302524FF0000B98
:107CD0000091022A06D058F8040BC117032A09D0D4
:107CE0000AE023E008F1070020F00702F2E80201B1
:107CF000904605E000B2C117042A01D140B2C11775
:107D0000002906DA0A460021404261EB02012D22D9
:107D100002E0220504D52B228DF80420012203E085
:107D2000E20701D02022F7E7914657E00A2100E060
:107D300010214FF0000B00910BE010214FF0000BD1
:107D400044F004040827009103E008204FF0000BE2
:107D50000090C4F30252022A05D058F8040B002107
:107D6000032A08D008E008F1070020F00702F2E833
:107D70000201904603E080B2042A00D1C0B24FF065
:107D8000000922072AD53278702A07D0DDF800C012
:107D90008CF0100C5CEA0B0C05D00EE040228DF844
:107DA0000420012208E050EA010306D030238DF8B8
:107DB00004308DF8052002229146009B83F00803D1
:107DC00053EA0B030AD150EA010201D1620705D53B
:107DD00030228DF804204FF001097F1E3278582A96
:107DE00004D039A20C920CAA02920BE03BA2F9E754
:107DF0005B46009AF8F76EFA0C9B9B5C029A521E47
:107E00000292137050EA0102F2D1029804A9081AF2
:107E100000F1200B600702D524F4803400E0012734
:107E20005F4502DDA7EB0B0000E0002000EB0B013B
:107E3000009003984944401A0390E00306D4534647
:107E40002146179A039800F0A9F90544002706E097
:107E500001A85246C05D179990476D1C7F1C4F4585
:107E6000F6DBE0030CD553462146179A039800F041
:107E700095F9054404E030205246179990476D1C4F
:107E80000099481E00900029F5DC08E0029802994C
:107E900052460078491C0291179990476D1CBBF11E
:107EA0000001ABF1010BF1DC5BE100F065F9054489
:107EB000761C307800287FF40DAE19B02846BDE856
:107EC000F08F000009280100303132333435363765
:107ED0003839616263646566000000003031323316
:107EE00034353637383941424344454600000000B6
:107EF000600700D4062708F1070020F00700F0E82B
:107F00000223804603F0004C5FEA0C0001D097A0EA
:107F100009E0200501D596A005E0E00701D095A075
:107F200001E0AFF24C001390307823F00043652855
:107F30000CD006DC452809D046281DD047287FD123
:107F40003BE0662818D067287AD136E00021112F4F
:107F500001DB112000E0781CCDE9000104A90CA888
:107F6000FFF7EEFCDDE90D010C9A4FF0000B07F175
:107F70000109109200914EE04FF000400097CDE9CA
:107F8000011004A90CA8FFF7DBFCDDE90D020C9B36
:107F90000F994FF0000B91461093009211B9791C84
:107FA00000EB0109B7EB090003D4C0F1FF3B07F177
:107FB0000109A9EB0700019042E0012F00DA012737
:107FC0000021112F01DD112000E03846CDE900012C
:107FD00004A90CA8FFF7B4FCDDE90D010C9A00918F
:107FE0004FF0000BB946109221070FD4009A4A4572
:107FF00003DA914601E0A9F10109B9F1010F05DDAC
:10800000109AA9F10101515C3029F4D0B84202DA8A
:1080100010F1040F03DA0121CDE9011010E000286E
:1080200003DC8344A9EB000102E0411C494500DD6B
:108030008946A0EB0B00401C01904FF000400290DD
:10804000200705D40198484502DB4FF0FF3001902E
:1080500000208DF84B0002980DF14B07B0F1004F56
:1080600025D002200C902B200D90029800280CDACD
:10807000404202902D200D9007E00A210298F8F767
:1080800047FA3031029007F8011D0C99481E0C90F8
:108090000029F2DC02980028EFD1791E0D980870B3
:1080A000307800F0200040F0450007F8020D11A8DC
:1080B000C01BC01D02901398007800B1012000EB96
:1080C0000901019801EBE071029801440398401AFC
:1080D000401E0390E00306D453462146179A0398A6
:1080E00000F05CF805441398007818B152461799CF
:1080F00090476D1CE00323D553462146179A0398F9
:1081000000F04CF805441BE0BBF1000F07DB0098C2
:10811000584504DD1098179910F80B0001E01799E5
:1081200030205246904701980BF1010B401E05F19B
:108130000105019004D12E205246179990476D1CDD
:10814000B9F10001A9F10109DEDC05E017F8010B26
:108150005246179990476D1C0299481E02900029BB
:10816000F4DC53462146179A03989EE62D00000042
:108170002B000000200000002DE9F04104460025FE
:108180001E461746880404D405E039462020B0472F
:108190006D1C641EF9D52846BDE8F0812DE9F0413B
:1081A000044600251E469046C80301D5302700E04E
:1081B0002027880404D505E041463846B0476D1CA9
:1081C000641EF9D52846BDE8F08100002DE9F04392
:1081D000934C94A02DED028B81B0E168FFF77AFB00
:1081E000E0684FF48068DFF84C9242F6F82600EB26
:1081F0008000450026E000BFE26842F6EE2C42F621
:108200000233AF0A02FB0CF001215A43B0FBF6FC2B
:1082100007FB01F39C450ED8B2FBF6FC9C450AD344
:108220008548B0FBF5F0A061A16984A0FFF752FB7F
:108230000120A07002E0491C4145E7D3A078012845
:1082400002D064354D45D7D3A16980A0FFF742FB2A
:1082500000264546A670E67041468048F8F772F859
:108260007F482946F8F76EF87E482946F8F76AF8FD
:108270009FED7D8A7D4884ED048A667084ED058AD1
:10828000A2690168CA62A1692A46C1607449784836
:10829000FAF728FF7548FEF78BF84FF4FA6000E014
:1082A0000520FCF735F820780028F9D00A20FCF7E3
:1082B0002FF86A482946F8F745F8694A0020694BC3
:1082C0002E469FED6C0B9FED6D2B00BF32F810100A
:1082D00001EE101A03EBC001401CB8EE411B81ED0A
:1082E000018AB04221EE001B21EE021BB7EEC11B3A
:1082F00081ED001AEADB0A20FCF70AF8594901234C
:1083000060480022F8F7D0FB0A20FCF701F8534838
:108310003146F8F717F8514932465248F9F720F933
:108320000A20FBF7F5FF4D4DDFED570A0A2095EDCA
:10833000000A20EE200A85ED000AFBF7E9FF9FED19
:10834000530A012005EB8001401CD1ED000AB04228
:1083500060EE800AC1ED000AF4DB3220FBF7D8FFA3
:108360002F4B4FF400763D4831465B1C03F10F0262
:10837000F9F772F93220FBF7CBFF607828B995ED59
:10838000000A84ED050A85ED008A3220FBF7C0FF64
:10839000234B314631485B1C03F10F02F9F75CF9BE
:1083A0003220FBF7B5FF94ED050A39A0B7EEC00AFD
:1083B00053EC102BFFF78EFA6078009039A094ED03
:1083C000040AB7EEC00A53EC102BFFF783FAA16939
:1083D0009FED3D2B9FED3E1B607800EE101A03EEE3
:1083E000100A3DA0B8EE404B82EE040BB8EE432BD2
:1083F00020EE020B20EE010BBDEEC00B10EE101AAA
:10840000FFF768FA3220FBF783FF1948FAF7EEFE10
:1084100001B01648BDEC028BBDE8F043FEF74EB844
:1084200000000024667265715F696E3A2564202041
:1084300000000000A0252600001C4E0E415252668E
:10844000696E643A202564202000000041525231B8
:108450003A20256420200D0A00000000382800245E
:1084600038000024380800240000000014390024DB
:10847000383800246666666666660A4000000000BA
:108480000000F03E6C9400080000803A0000003BC1
:1084900064697265637456616C75653A252E32663F
:1084A000202000006D617856616C75653A252E328A
:1084B0006620202C206D6178496E6465783A20250D
:1084C000642020202000000000000000389CAC4107
:1084D000000000000000503F2020667265715F724E
:1084E00065616C3A25640D0A0000000013B504486C
:1084F00001224FF6FF736946FEF73EFA00981CBD55
:10850000F839002470B50B4D4FF400540022214679
:108510002846FCF725F84FF4FA763046FBF7F8FECC
:10852000012221462846FCF71BF83046BDE8704082
:10853000FBF7EEBE000802581FB50024009401941A
:1085400002940394FCF7A2F801208DF80C001F217F
:108550008DF8081087228DF809208DF80D008DF810
:10856000000068468DF80A408DF80E408DF80140F5
:1085700001948DF80B408DF80F40FCF759F804205A
:10858000FCF792F8FCF706F8FEF7FEFCFEF7D0FACF
:10859000FEF7B8FAFEF76CFAFEF702FBFEF734FBC3
:1085A000FEF768FBFEF78CFB0948FDF741FF094821
:1085B000FDF73EFF084840F2FF724FF00111FAF755
:1085C00041F900BFFFF79EFFFFF700FEFAE700004A
:1085D00060390024AC3900243838002410B500EE8E
:1085E000100A2DED028BB1EEC08A18EE100A20F0B1
:1085F0000040C0F1FF40C00F0AD010EE100A20F07A
:108600000040C0F1FF40C00F04BF0120FFF792F906
:1086100018EE100ABDEC028B10BD00061016000605
:108620001016010002000400060008000A000C00F9
:10863000100020004000800000010101010307013B
:10864000000008040204080101010000000001020A
:1086500003040102030406070809080000101000C3
:10866000000218000012200000042800001430004E
:1086700000063800001640000008480000185000AE
:10868000000A5800001A6000000C6800001C70000E
:10869000000E7800001E8000000888004010900046
:1086A000400298004012A0004004A8004014B0000E
:1086B0004006B8004016C0004008C8004018D0006E
:1086C000400AD800401AE000400CE800401CF000CE
:1086D000400EF800401E0001000808018010100143
:1086E00080021801801220018004280180143001CA
:1086F000800638018016400180084801801850012A
:10870000800A5801801A6001800C6801801C700189
:10871000800E7801801E800140088801C010900101
:10872000C0029801C012A001C004A801C014B00189
:10873000C006B801C016C001C008C801C018D001E9
:10874000C00AD801C01AE001C00CE801C01CF00149
:10875000C00EF801C01E000200080802001110023D
:108760000003180200132002000528020015300241
:1087700000073802001740020009480200195002A1
:10878000000B5802001B6002000D6802001D700201
:10879000000F7802001F80028008880240119002BA
:1087A000400398024013A0024005A8024015B00201
:1087B0004007B8024017C0024009C8024019D00261
:1087C000400BD802401BE002400DE802401DF002C1
:1087D000400FF802401F00034008080380111003F7
:1087E00080031803801320038005280380153003BD
:1087F000800738038017400380094803801950031D
:10880000800B5803801B6003800D6803801D70037C
:10881000800F7803801F8003C0088803C011900375
:10882000C0039803C013A003C005A803C015B0037C
:10883000C007B803C017C003C009C803C019D003DC
:10884000C00BD803C01BE003C00DE803C01DF0033C
:10885000C00FF803C01F0004001008040810100423
:108860000011180408122004081028040814300409
:10887000080638040816400408084804081850047C
:10888000080A5804081A6004080C6804081C7004DC
:10889000080E7804081E800400188804481090040C
:1088A000001998044812A0040818A8044814B00439
:1088B0004806B8044816C0044808C8044818D0043C
:1088C000480AD804481AE004480CE804481CF0049C
:1088D000480EF804481E00054010080588101005D1
:1088E0004011180588122005481028058814300505
:1088F00088063805881640058808480588185005F8
:10890000880A5805881A6005880C6805881C700557
:10891000880E7805881E800540188805C8109005C7
:1089200040199805C812A0054818A805C814B00534
:10893000C806B805C816C005C808C805C818D005B7
:10894000C80AD805C81AE005C80CE805C81CF00517
:10895000C80EF805C81E000680100806081110068B
:1089600080111806081320068810280608153006FE
:10897000080738060817400608094806081950066F
:10898000080B5806081B6006080D6806081D7006CF
:10899000080F7806081F8006801888064811900680
:1089A000801998064813A0068818A8064815B0062E
:1089B0004807B8064817C0064809C8064819D0062F
:1089C000480BD806481BE006480DE806481DF0068F
:1089D000480FF806481F0007C01008078811100745
:1089E000C011180788132007C810280788153007FA
:1089F00088073807881740078809480788195007EB
:108A0000880B5807881B6007880D6807881D70074A
:108A1000880F7807881F8007C0188807C81190073B
:108A2000C0199807C813A007C818A807C815B00729
:108A3000C807B807C817C007C809C807C819D007AA
:108A4000C80BD807C81BE007C80DE807C81DF0070A
:108A5000C80FF807C81F08081010100840081808A9
:108A6000101220080011280810143008801138084E
:108A70001016480810185008100A5808101A6008F4
:108A8000100C6808101C7008100E7808101E800862
:108A9000000A880850109008000B98085012A0088F
:108AA000080AA8085014B008080BB8085016C008E7
:108AB000100AC8085018D008500AD808501AE00800
:108AC000500CE808501CF008500EF808501E080919
:108AD000901010098009180990122009001928091E
:108AE000901430098019380990164009000B480984
:108AF00090185009900A5809901A6009900C68095A
:108B0000901C7009900E7809901E8009400A88090F
:108B1000D0109009400B9809D012A009480AA80962
:108B2000D014B009480BB809D016C009500AC809BA
:108B3000D018D009D00AD809D01AE009D00CE80919
:108B4000D01CF009D00EF809D01E080A1011180A1E
:108B50001013200A4011280A1015300AC011380AD3
:108B60001017480A1019500A100B580A101B600AF7
:108B7000100D680A101D700A100F780A101F880A5D
:108B80005011900A800B980A5013A00A5011A80A9D
:108B90005015B00A880BB80A5017C00A800BC80AD3
:108BA0005019D00A500BD80A501BE00A500DE80AA1
:108BB000501DF00A500FF80A501F080B9011180BA7
:108BC0009013200B4019280B9015300BC019380B4F
:108BD0009017480B9019500B900B580B901B600B83
:108BE000900D680B901D700B900F780B901F880BE9
:108BF000D011900BC00B980BD013A00B5019A80BE1
:108C0000D015B00BC80BB80BD017C80BD019D80BA8
:108C1000D01BE00BD00DE80BD01DF00BD00FF80BE4
:108C2000D01F000C0012080C1810100C0013180CA8
:108C30001812200C0812280C1814300C0813380CC9
:108C40001816400C1012480C1818500C1013580C21
:108C5000181A600C1812680C181C700C180E780C7E
:108C6000181E800C001A880C5810900C001B980CD1
:108C70005812A00C081AA80C5814B00C081BB80CF9
:108C80005816C00C101AC80C5818D00C101BD80C51
:108C9000581AE00C181AE80C581CF00C580EF80C76
:108CA000581E000D4012080D9810100D4013180D9D
:108CB0009812200D4812280D9814300D4813380DC5
:108CC0009816400D5012480D9818500D5013580D1D
:108CD000981A600D5812680D981C700D980E780D3A
:108CE000981E800D401A880DD810900D401B980DCD
:108CF000D812A00D481AA80DD814B00D481BB80DF5
:108D0000D816C00D501AC80DD818D00D501BD80D4C
:108D1000D81AE00D581AE80DD81CF00DD80EF80D31
:108D2000D81E000E8012080E1811100E8013180E97
:108D30001813200E8812280E1815300E8813380EBE
:108D40001817400E9012480E1819500E9013580E16
:108D5000181B600E9812680E181D700E180F780EF2
:108D6000181F800E801A880E5811900E801B980EC6
:108D70005813A00E881AA80E5815B00E881BB80EEE
:108D80005817C00E901AC80E5819D00E901BD80E46
:108D9000581BE00E981AE80E581DF00E580FF80EEA
:108DA000581F000FC012080F9811100FC013180F92
:108DB0009813200FC812280F9815300FC813380FBA
:108DC0009817400FD012480F9819500FD013580F12
:108DD000981B600FD812680F981D700F980F780FAE
:108DE000981F800FC01A880FD811900FC01B980FC2
:108DF000D813A00FC81AA80FD815B00FC81BB80FEA
:108E0000D817C00FD01AC80FD819D00FD01BD80F41
:108E1000D81BE00FD81AE80FD81DF00FD81BF80F99
:108E2000D81F081020101010401018102012281001
:108E300020143010881038102016401000114810EF
:108E40002018501040115810201A60100812681095
:108E5000201C701088127810201E801000128810BC
:108E600008129010401298106012A0102012A81042
:108E70006014B0106012B8106016C0100013C81053
:108E80006018D0104013D810601AE0101812E810C3
:108E9000601CF0109812F810601E081120121011BA
:108EA00040111811A012201108182811A014301117
:108EB00088183811A0164811A0185811A01A60116E
:108EC000081A6811A01C7011881A7811A01E801150
:108ED000101288111812901150129811E012A0115E
:108EE0001818A811E014B0119818B811E016C011A4
:108EF0001013C811E018D0115013D811E01AE01166
:108F0000181AE811E01CF011981AF811E01E00126E
:108F100000180812081810124018181220132012F6
:108F2000201828122015301260183812201740120D
:108F3000001948122019501240195812201B6012B3
:108F400020196812201D7012C8127812201F80127A
:108F5000001A8812081A9012401A98126013A01270
:108F6000201AA8126015B012601AB8126017C01249
:108F7000001BC8126019D012401BD812601BE012EF
:108F8000201BE812601DF012601BF812601F001316
:108F9000101808131818101350181813A0132013C2
:108FA00048182813A0153013C8183813A0174013F9
:108FB00010194813A019501350195813A01B60130F
:108FC000481A6813A01D7013C81A7813A01F8013C5
:108FD000101A8813181A9013501A9813E013A0133C
:108FE0005818A813E015B013D818B813E017C01319
:108FF000101BC813E019D013501BD813E01BE0134B
:10900000581AE813E01DF013D81AF813E01F0814DB
:1090100020141014001518142015301408153814D5
:109020002816401400154814281850141015581408
:10903000281A601420156814281C70141815781448
:10904000281E8014001C8814201C9014001D9814E5
:10905000201DA014081CA814281CB014081DB81446
:109060006816C014101CC8146818D014101DD81429
:10907000681AE014181CE814681CF014181DF81481
:10908000681E0815201510154015181560152015B7
:1090900028182815281C301548153815A816481505
:1090A000A8185815A81A6015281A6815A81C701554
:1090B000A81A7815A81E8015401C8815601C9015EC
:1090C000401D9815601DA015481CA815681CB015FA
:1090D000481DB815E816C015501CC815E818D0155D
:1090E000501DD815E81AE015581CE815E81CF015B5
:1090F000581DF815E81E0016001C0816081C10164E
:10910000401C1816481C2016201C2816281C301637
:10911000601C381628174016001D481628195016CE
:10912000401D5816281B6016201D6816281D701635
:10913000601D7816281F8016801C8816A01C9016AB
:10914000801D9816A01DA016881CA816A81CB01675
:10915000881DB8166817C016901CC8166819D01656
:10916000901DD816681BE016981CE816681DF016AE
:10917000981DF816681F0017101C0817181C1017E8
:10918000501C1817581C201768182817681C30170F
:10919000E8183817A8174017101D4817A8195017B6
:1091A000501D5817A81B6017681A6817A81D70175C
:1091B000E81A7817A81F8017C01C8817E01C9017A2
:1091C000C01D9817E01DA017C81CA817E81CB017F1
:1091D000C81DB817E817C017D01CC817E819D01752
:1091E000D01DD817E81BE017D81CE817E81DF017AA
:1091F000D81DF817E81F18186018301848183818C4
:10920000601C5818301A6818301C7018181A781812
:10921000301E8018001A8818081A9018001B981819
:109220006019A018201AA818281AB018201BB818FE
:10923000601DC018101AC818181AD018101BD8189A
:10924000701AE018301AE818701CF018581AF8183C
:10925000701E081920191819601A2819081D3019CC
:1092600088193819881D4819201B5819B01A601917
:10927000081B6819B01C7019881B7819B01E80195A
:10928000401A8819481A9019401B9819601BA01998
:10929000601AA819181DB019601BB819981DC019BB
:1092A000501AC819581AD019501BD819F01AE019B9
:1092B000181BE819F01CF019981BF819F01E381A41
:1092C000701C581A301B681A301D701A181B781A37
:1092D000301F901AC01A981AC81AB01AE01AB81A91
:1092E000E81AC01A801BC81A881BD01AC01BD81ACB
:1092F000701BE01AA01BE81A701DF01AE01BF81A88
:10930000701F281B481D381BC81D481B601B581B9D
:10931000B01B681BB01D701BC81B781BB01F901BB7
:10932000C01B981BC81BA81B581DB01BE01BB81BFB
:10933000D81DD81BF01BE81BF01DF81BF01F081CE4
:10934000201C181C301C381C681C481C601C581C35
:10935000701C781C381E801C001E881C201E901C4F
:10936000001F981C201FA01C081EA81C281EB01C33
:10937000081FB81C281FC01C101EC81C301ED01C83
:10938000101FD81C301FE01C181EE81C381EF01CD3
:10939000181FF81C781E081D201D181D301D381DB3
:1093A000A81D481D601D581D701D681D281F781DB3
:1093B000B81E801D401E881D601E901D401F981DF8
:1093C000601FA01D481EA81D681EB01D481FB81DA7
:1093D000681FC01D501EC81D701ED01D501FD81DF7
:1093E000701FE01D581EE81D781EF01D581FF81D47
:1093F000F81E081E201E181E301E481E601E581E15
:10940000701E781E381F881EA01E901E801F981E7A
:10941000A01FB01E881FB81EA81FC01E801FC81E18
:10942000881FD01E901FD81EB01FE01EA01FE81E70
:10943000A81FF01E981FF81E781F081F201F181F56
:10944000301F481F601F581F701F781FB81F881FCC
:10945000A01F901FC01F981FE01FB01FC81FB81F7C
:10946000E81FC81FE01FD81FF01F00000004000005
:109470007C9400085A860008080700000000803F1E
:1094800000000000C4FE7F3F890FC93B11FB7F3FF6
:10949000900E493CE6F47F3FB6C9963C43EC7F3FD3
:1094A000B00AC93C29E17F3FB949FB3C98D37F3FD3
:1094B0002CC3163D8FC37F3F07E02F3D0FB17F3F89
:1094C0002FFB483D189C7F3F6814623DAB847F3F73
:1094D000742B7B3DC76A7F3F0A208A3D6D4E7F3FDC
:1094E00005A9963D9D2F7F3F8C30A33D580E7F3FB1
:1094F00080B6AF3D9DEA7E3FC33ABC3D6DC47E3F22
:1095000036BDC83DC99B7E3FB93DD53DB0707E3F5D
:109510002EBCE13D23437E3F7638EE3D24137E3F53
:1095200073B2FA3DB1E07D3F0295033ECCAB7D3F87
:1095300086CF093E74747D3FB708103EAC3A7D3F3C
:109540008340163E73FE7C3FDE761C3EC9BF7C3FE7
:10955000B6AB223EB07E7C3FFCDE283E283B7C3F03
:10956000A2102F3E31F57B3F9840353ECDAC7B3F7E
:10957000CF6E3B3EFC617B3F379B413EBE147B3F41
:10958000C2C5473E16C57A3F60EE4D3E02737A3F34
:109590000115543E841E7A3F97395A3E9DC7793F44
:1095A000135C603E4E6E793F667C663E9812793F52
:1095B0007F9A6C3E7BB4783F51B6723EF853783F49
:1095C000CCCF783E10F1773FE1E67E3EC58B773F0A
:1095D000C07D823E1724773FCE86853E07BA763F10
:1095E000938E883E974D763F07958B3EC6DE753F3E
:1095F000229A8E3E976D753FDD9D913E0BFA743F2A
:1096000031A0943E2284743F17A1973EDD0B743F36
:1096100086A09A3E3F91733F789E9D3E4714733FCC
:10962000E59AA03EF894723FC595A33E5213723F4F
:10963000128FA63E578F713FC486A93E0809713F1D
:10964000D47CAC3E6680703F3A71AF3E73F56F3F9D
:10965000EF63B23E30686F3FEC54B53E9ED86E3F2C
:109660002A44B83EBE466E3FA031BB3E93B26D3F2A
:109670004A1DBE3E1D1C6D3F1E07C13E5E836C3FF2
:1096800015EFC33E58E86B3F29D5C63E0C4B6B3FE8
:1096900053B9C93E7BAB6A3F8B9BCC3EA7096A3F5F
:1096A000CA7BCF3E9165693F095AD23E3CBF683FB5
:1096B0004136D53EA816683F6B10D83ED86B673F41
:1096C00080E8DA3ECCBE663F79BEDD3E880F663F5D
:1096D0004F92E03E0B5E653FFA63E33E59AA643F5A
:1096E0007533E63E73F4633FB700E93E5A3C633F8F
:1096F000BBCBEB3E1082623F7994EE3E98C5613F52
:10970000EA5AF13EF206613F071FF43E2146603FF0
:10971000CBE0F63E27835F3F2DA0F93E05BE5E3FBE
:10972000275DFC3EBEF65D3FB217FF3E532D5D3F09
:10973000E4E7003FC7615C3FB142023F1A945B3FE0
:109740003D9C033F50C45A3F84F4043F6AF2593FA2
:10975000824B063F6A1E593F36A1073F5348583F88
:109760009BF5083F2670573FAD480A3FE595563FA9
:109770006B9A0B3F93B9553FD0EA0C3F31DB543F16
:10978000DA390E3FC3FA533F84870F3F4918533FDE
:10979000CDD3103FC633523FB01E123F3D4D513F17
:1097A0002A68133FAF64503F39B0143F1F7A4F3FD0
:1097B000D9F6153F908D4E3F073C173F029F4D3F16
:1097C000C07F183F79AE4C3F00C2193FF8BB4B3FFA
:1097D000C6021B3F7FC74A3F0C421C3F12D1493F84
:1097E000D17F1D3FB3D8483F12BC1E3F65DE473FC7
:1097F000CBF61F3F2AE2463FF92F213F03E4453FC6
:109800009967223FF5E3443FA99D233F00E2433F90
:1098100025D2243F29DE423F0A05263F70D8413F2A
:109820005636273FDAD0403F0566283F67C73F3F9F
:109830001594293F1BBC3E3F82C02A3FF9AE3D3FF5
:109840004AEB2B3F03A03C3F69142D3F3B8F3B3F2E
:10985000DE3B2E3FA47C3A3FA5612F3F4268393F53
:10986000BB85303F1652383F1DA8313F233A373F62
:10987000C9C8323F6C20363FBCE7333FF304353F65
:10988000F304353FBCE7333F6C20363FC9C8323F55
:10989000233A373F1DA8313F1652383FBB85303F32
:1098A0004268393FA5612F3FA47C3A3FDE3B2E3F03
:1098B0003B8F3B3F69142D3F03A03C3F4AEB2B3FBE
:1098C000F9AE3D3F82C02A3F1BBC3E3F1594293F65
:1098D00067C73F3F0566283FDAD0403F5636273FEF
:1098E00070D8413F0A05263F29DE423F25D2243F5A
:1098F00000E2433FA99D233FF5E3443F9967223FA0
:1099000003E4453FF92F213F2AE2463FCBF61F3FB4
:1099100065DE473F12BC1E3FB3D8483FD17F1D3F95
:1099200012D1493F0C421C3F7FC74A3FC6021B3F32
:10993000F8BB4B3F00C2193F79AE4C3FC07F183F88
:10994000029F4D3F073C173F908D4E3FD9F6153F84
:109950001F7A4F3F39B0143FAF64503F2A68133F1E
:109960003D4D513FB01E123FC633523FCDD3103F45
:109970004918533F84870F3FC3FA533FDA390E3FEC
:1099800031DB543FD0EA0C3F93B9553F6B9A0B3F04
:10999000E595563FAD480A3F2670573F9BF5083F77
:1099A0005348583F36A1073F6A1E593F824B063F36
:1099B0006AF2593F84F4043F50C45A3F3D9C033F30
:1099C0001A945B3FB142023FC7615C3FE4E7003F4E
:1099D000532D5D3FB217FF3EBEF65D3F275DFC3E57
:1099E00005BE5E3F2DA0F93E27835F3FCBE0F63EEC
:1099F0002146603F071FF43EF206613FEA5AF13EFE
:109A000098C5613F7994EE3E1082623FBBCBEB3E3E
:109A10005A3C633FB700E93E73F4633F7533E63E5B
:109A200059AA643FFA63E33E0B5E653F4F92E03E06
:109A3000880F663F79BEDD3ECCBE663F80E8DA3EE9
:109A4000D86B673F6B10D83EA816683F4136D53EAD
:109A50003CBF683F095AD23E9165693FCA7BCF3E01
:109A6000A7096A3F8B9BCC3E7BAB6A3F53B9C93E8B
:109A70000C4B6B3F29D5C63E58E86B3F15EFC33EF4
:109A80005E836C3F1E07C13E1D1C6D3F4A1DBE3EDE
:109A900093B26D3FA031BB3EBE466E3F2A44B83EF6
:109AA0009ED86E3FEC54B53E30686F3FEF63B23ED8
:109AB00073F56F3F3A71AF3E6680703FD47CAC3E29
:109AC0000809713FC486A93E578F713F128FA63E89
:109AD0005213723FC595A33EF894723FE59AA03E9B
:109AE0004714733F789E9D3E3F91733F86A09A3EF8
:109AF000DD0B743F17A1973E2284743F31A0943E42
:109B00000BFA743FDD9D913E976D753F229A8E3E14
:109B1000C6DE753F07958B3E974D763F938E883E08
:109B200007BA763FCE86853E1724773FC07D823EBA
:109B3000C58B773FE1E67E3E10F1773FCCCF783E94
:109B4000F853783F51B6723E7BB4783F7F9A6C3EB3
:109B50009812793F667C663E4E6E793F135C603E9C
:109B60009DC7793F97395A3E841E7A3F0115543E6E
:109B700002737A3F60EE4D3E16C57A3FC2C5473E3E
:109B8000BE147B3F379B413EFC617B3FCF6E3B3E2B
:109B9000CDAC7B3F9840353E31F57B3FA2102F3E48
:109BA000283B7C3FFCDE283EB07E7C3FB6AB223EAD
:109BB000C9BF7C3FDE761C3E73FE7C3F8340163E71
:109BC000AC3A7D3FB708103E74747D3F86CF093EA6
:109BD000CCAB7D3F0295033EB1E07D3F73B2FA3DD1
:109BE00024137E3F7638EE3D23437E3F2EBCE13D7D
:109BF000B0707E3FB93DD53DC99B7E3F36BDC83D67
:109C00006DC47E3FC33ABC3D9DEA7E3F80B6AF3D0A
:109C1000580E7F3F8C30A33D9D2F7F3F05A9963D79
:109C20006D4E7F3F0A208A3DC76A7F3F742B7B3D84
:109C3000AB847F3F6814623D189C7F3F2FFB483DFB
:109C40000FB17F3F07E02F3D8FC37F3F2CC3163DF1
:109C500098D37F3FB949FB3C29E17F3FB00AC93C1B
:109C600043EC7F3FB6C9963CE6F47F3F900E493CFB
:109C700011FB7F3F890FC93BC4FE7F3F00000000FE
:109C80000000803F890FC9BBC4FE7F3F900E49BCD6
:109C900011FB7F3FB6C996BCE6F47F3FB00AC9BC52
:109CA00043EC7F3FB949FBBC29E17F3F2CC316BD84
:109CB00098D37F3F07E02FBD8FC37F3F2FFB48BD69
:109CC0000FB17F3F681462BD189C7F3F742B7BBD32
:109CD000AB847F3F0A208ABDC76A7F3F05A996BD36
:109CE0006D4E7F3F8C30A3BD9D2F7F3F80B6AFBDB3
:109CF000580E7F3FC33ABCBD9DEA7E3F36BDC8BD0E
:109D00006DC47E3FB93DD5BDC99B7E3F2EBCE1BD34
:109D1000B0707E3F7638EEBD23437E3F73B2FABD0E
:109D200024137E3F029503BEB1E07D3F86CF09BE7E
:109D3000CCAB7D3FB70810BE74747D3F834016BE28
:109D4000AC3A7D3FDE761CBE73FE7C3FB6AB22BED6
:109D5000C9BF7C3FFCDE28BEB07E7C3FA2102FBE78
:109D6000283B7C3F984035BE31F57B3FCF6E3BBEF4
:109D7000CDAC7B3F379B41BEFC617B3FC2C547BE3C
:109D8000BE147B3F60EE4DBE16C57A3F011554BE32
:109D900002737A3F97395ABE841E7A3F135C60BEC5
:109DA0009DC7793F667C66BE4E6E793F7F9A6CBEDA
:109DB0009812793F51B672BE7BB4783FCCCF78BE53
:109DC000F853783FE1E67EBE10F1773FC07D82BE5A
:109DD000C58B773FCE8685BE1724773F938E88BE8E
:109DE00007BA763F07958BBE974D763F229A8EBE77
:109DF000C6DE753FDD9D91BE976D753F31A094BE67
:109E00000BFA743F17A197BE2284743F86A09ABEB6
:109E1000DD0B743F789E9DBE3F91733FE59AA0BED7
:109E20004714733FC595A3BEF894723F128FA6BE28
:109E30005213723FC486A9BE578F713FD47CACBE0B
:109E40000809713F3A71AFBE6680703FEF63B2BEE2
:109E500073F56F3FEC54B5BE30686F3F2A44B8BE0F
:109E60009ED86E3FA031BBBEBE466E3F4A1DBEBEF1
:109E700093B26D3F1E07C1BE1D1C6D3F15EFC3BEE3
:109E80005E836C3F29D5C6BE58E86B3F53B9C9BE47
:109E90000C4B6B3F8B9BCCBE7BAB6A3FCA7BCFBE70
:109EA000A7096A3F095AD2BE9165693F4136D5BEBE
:109EB0003CBF683F6B10D8BEA816683F80E8DABE8A
:109EC000D86B673F79BEDDBECCBE663F4F92E0BE29
:109ED000880F663FFA63E3BE0B5E653F7533E6BEEF
:109EE00059AA643FB700E9BE73F4633FBBCBEBBE36
:109EF0005A3C633F7994EEBE1082623FEA5AF1BE4B
:109F000098C5613F071FF4BEF206613FCBE0F6BE85
:109F10002146603F2DA0F9BE27835F3F275DFCBE31
:109F200005BE5E3FB217FFBEBEF65D3FE4E700BF71
:109F3000532D5D3FB14202BFC7615C3F3D9C03BFF3
:109F40001A945B3F84F404BF50C45A3F824B06BF4F
:109F50006AF2593F36A107BF6A1E593F9BF508BFF9
:109F60005348583FAD480ABF2670573F6B9A0BBF06
:109F7000E595563FD0EA0CBF93B9553FDA390EBF8D
:109F800031DB543F84870FBFC3FA533FCDD310BF9B
:109F90004918533FB01E12BFC633523F2A6813BF41
:109FA0003D4D513F39B014BFAF64503FD9F615BF96
:109FB0001F7A4F3F073C17BF908D4E3FC07F18BFA1
:109FC000029F4D3F00C219BF79AE4C3FC6021BBF76
:109FD000F8BB4B3F0C421CBF7FC74A3FD17F1DBF20
:109FE00012D1493F12BC1EBFB3D8483FCBF61FBFAA
:109FF00065DE473FF92F21BF2AE2463F996722BF1E
:10A0000003E4453FA99D23BFF5E3443F25D224BF88
:10A0100000E2433F0A0526BF29DE423F563627BFEE
:10A0200070D8413F056628BFDAD0403F159429BF5C
:10A0300067C73F3F82C02ABF1BBC3E3F4AEB2BBFD6
:10A04000F9AE3D3F69142DBF03A03C3FDE3B2EBF60
:10A050003B8F3B3FA5612FBFA47C3A3FBB8530BF00
:10A060004268393F1DA831BF1652383FC9C832BFB8
:10A07000233A373FBCE733BF6C20363FF30435BF8C
:10A08000F304353F6C2036BFBCE7333F233A37BF7C
:10A09000C9C8323F165238BF1DA8313F426839BF88
:10A0A000BB85303FA47C3ABFA5612F3F3B8F3BBFB0
:10A0B000DE3B2E3F03A03CBF69142D3FF9AE3DBFF0
:10A0C0004AEB2B3F1BBC3EBF82C02A3F67C73FBF46
:10A0D0001594293FDAD040BF0566283F70D841BFAC
:10A0E0005636273F29DE42BF0A05263F00E243BF1E
:10A0F00025D2243FF5E344BFA99D233F03E445BF98
:10A100009967223F2AE246BFF92F213F65DE47BF0C
:10A11000CBF61F3FB3D848BF12BC1E3F12D149BF78
:10A12000D17F1D3F7FC74ABF0C421C3FF8BB4BBFCE
:10A13000C6021B3F79AE4CBF00C2193F029F4DBF04
:10A14000C07F183F908D4EBF073C173F1F7A4FBF0F
:10A15000D9F6153FAF6450BF39B0143F3D4D51BFE4
:10A160002A68133FC63352BFB01E123F491853BF6F
:10A17000CDD3103FC3FA53BF84870F3F31DB54BFA9
:10A18000DA390E3F93B955BFD0EA0C3FE59556BF7B
:10A190006B9A0B3F267057BFAD480A3F534858BFD4
:10A1A0009BF5083F6A1E59BF36A1073F6AF259BFA7
:10A1B000824B063F50C45ABF84F4043F1A945BBFDD
:10A1C0003D9C033FC7615CBFB142023F532D5DBF61
:10A1D000E4E7003FBEF65DBFB217FF3E05BE5EBFBF
:10A1E000275DFC3E27835FBF2DA0F93E214660BF5F
:10A1F000CBE0F63EF20661BF071FF43E98C561BF93
:10A20000EA5AF13E108262BF7994EE3E5A3C63BF37
:10A21000BBCBEB3E73F463BFB700E93E59AA64BF02
:10A220007533E63E0B5E65BFFA63E33E880F66BF9B
:10A230004F92E03ECCBE66BF79BEDD3ED86B67BFB5
:10A2400080E8DA3EA81668BF6B10D83E3CBF68BFF6
:10A250004136D53E916569BF095AD23EA7096ABF0A
:10A26000CA7BCF3E7BAB6ABF8B9BCC3E0C4B6BBF9C
:10A2700053B9C93E58E86BBF29D5C63E5E836CBF53
:10A2800015EFC33E1D1C6DBF1E07C13E93B26DBFCF
:10A290004A1DBE3EBE466EBFA031BB3E9ED86EBFBD
:10A2A0002A44B83E30686FBFEC54B53E73F56FBFBB
:10A2B000EF63B23E668070BF3A71AF3E080971BF6E
:10A2C000D47CAC3E578F71BFC486A93E521372BF77
:10A2D000128FA63EF89472BFC595A33E471473BF74
:10A2E000E59AA03E3F9173BF789E9D3EDD0B74BF03
:10A2F00086A09A3E228474BF17A1973E0BFA74BFC2
:10A3000031A0943E976D75BFDD9D913EC6DE75BF51
:10A31000229A8E3E974D76BF07958B3E07BA76BF41
:10A32000938E883E172477BFCE86853EC58B77BF38
:10A33000C07D823E10F177BFE1E67E3EF85378BFE4
:10A34000CCCF783E7BB478BF51B6723E981279BFBD
:10A350007F9A6C3E4E6E79BF667C663E9DC779BF24
:10A36000135C603E841E7ABF97395A3E02737ABFEF
:10A370000115543E16C57ABF60EE4D3EBE147BBF3C
:10A38000C2C5473EFC617BBF379B413ECDAC7BBF26
:10A39000CF6E3B3E31F57BBF9840353E283B7CBFBE
:10A3A000A2102F3EB07E7CBFFCDE283EC9BF7CBF22
:10A3B000B6AB223E73FE7CBFDE761C3EAC3A7DBF60
:10A3C0008340163E74747DBFB708103ECCAB7DBF92
:10A3D00086CF093EB1E07DBF0295033E24137EBFC8
:10A3E00073B2FA3D23437EBF7638EE3DB0707EBF38
:10A3F0002EBCE13DC99B7EBFB93DD53D6DC47EBF3E
:10A4000036BDC83D9DEA7EBFC33ABC3D580E7FBFF6
:10A4100080B6AF3D9D2F7FBF8C30A33D6D4E7FBF7B
:10A4200005A9963DC76A7FBF0A208A3DAB847FBFDE
:10A43000742B7B3D189C7FBF6814623D0FB17FBFBA
:10A440002FFB483D8FC37FBF07E02F3D98D37FBFD1
:10A450002CC3163D29E17FBFB949FB3C43EC7FBFCC
:10A46000B00AC93CE6F47FBFB6C9963C11FB7FBF7A
:10A47000900E493CC4FE7FBF890FC93B000080BFDE
:10A4800000000000C4FE7FBF890FC9BB11FB7FBF66
:10A49000900E49BCE6F47FBFB6C996BC43EC7FBFC3
:10A4A000B00AC9BC29E17FBFB949FBBC98D37FBFC3
:10A4B0002CC316BD8FC37FBF07E02FBD0FB17FBF79
:10A4C0002FFB48BD189C7FBF681462BDAB847FBF63
:10A4D000742B7BBDC76A7FBF0A208ABD6D4E7FBFCC
:10A4E00005A996BD9D2F7FBF8C30A3BD580E7FBFA1
:10A4F00080B6AFBD9DEA7EBFC33ABCBD6DC47EBF12
:10A5000036BDC8BDC99B7EBFB93DD5BDB0707EBF4D
:10A510002EBCE1BD23437EBF7638EEBD24137EBF43
:10A5200073B2FABDB1E07DBF029503BECCAB7DBF77
:10A5300086CF09BE74747DBFB70810BEAC3A7DBF2C
:10A54000834016BE73FE7CBFDE761CBEC9BF7CBFD7
:10A55000B6AB22BEB07E7CBFFCDE28BE283B7CBFF3
:10A56000A2102FBE31F57BBF984035BECDAC7BBF6E
:10A57000CF6E3BBEFC617BBF379B41BEBE147BBF31
:10A58000C2C547BE16C57ABF60EE4DBE02737ABF24
:10A59000011554BE841E7ABF97395ABE9DC779BF34
:10A5A000135C60BE4E6E79BF667C66BE981279BF42
:10A5B0007F9A6CBE7BB478BF51B672BEF85378BF39
:10A5C000CCCF78BE10F177BFE1E67EBEC58B77BFFA
:10A5D000C07D82BE172477BFCE8685BE07BA76BF00
:10A5E000938E88BE974D76BF07958BBEC6DE75BF2E
:10A5F000229A8EBE976D75BFDD9D91BE0BFA74BF1A
:10A6000031A094BE228474BF17A197BEDD0B74BF26
:10A6100086A09ABE3F9173BF789E9DBE471473BFBC
:10A62000E59AA0BEF89472BFC595A3BE521372BF3F
:10A63000128FA6BE578F71BFC486A9BE080971BF0D
:10A64000D47CACBE668070BF3A71AFBE73F56FBF8D
:10A65000EF63B2BE30686FBFEC54B5BE9ED86EBF1C
:10A660002A44B8BEBE466EBFA031BBBE93B26DBF1A
:10A670004A1DBEBE1D1C6DBF1E07C1BE5E836CBFE2
:10A6800015EFC3BE58E86BBF29D5C6BE0C4B6BBFD8
:10A6900053B9C9BE7BAB6ABF8B9BCCBEA7096ABF4F
:10A6A000CA7BCFBE916569BF095AD2BE3CBF68BFA5
:10A6B0004136D5BEA81668BF6B10D8BED86B67BF31
:10A6C00080E8DABECCBE66BF79BEDDBE880F66BF4D
:10A6D0004F92E0BE0B5E65BFFA63E3BE59AA64BF4A
:10A6E0007533E6BE73F463BFB700E9BE5A3C63BF7F
:10A6F000BBCBEBBE108262BF7994EEBE98C561BF42
:10A70000EA5AF1BEF20661BF071FF4BE214660BFE0
:10A71000CBE0F6BE27835FBF2DA0F9BE05BE5EBFAE
:10A72000275DFCBEBEF65DBFB217FFBE532D5DBFF9
:10A73000E4E700BFC7615CBFB14202BF1A945BBFD0
:10A740003D9C03BF50C45ABF84F404BF6AF259BF92
:10A75000824B06BF6A1E59BF36A107BF534858BF78
:10A760009BF508BF267057BFAD480ABFE59556BF99
:10A770006B9A0BBF93B955BFD0EA0CBF31DB54BF06
:10A78000DA390EBFC3FA53BF84870FBF491853BFCE
:10A79000CDD310BFC63352BFB01E12BF3D4D51BF07
:10A7A0002A6813BFAF6450BF39B014BF1F7A4FBFC0
:10A7B000D9F615BF908D4EBF073C17BF029F4DBF06
:10A7C000C07F18BF79AE4CBF00C219BFF8BB4BBFEA
:10A7D000C6021BBF7FC74ABF0C421CBF12D149BF74
:10A7E000D17F1DBFB3D848BF12BC1EBF65DE47BFB7
:10A7F000CBF61FBF2AE246BFF92F21BF03E445BFB6
:10A80000996722BFF5E344BFA99D23BF00E243BF80
:10A8100025D224BF29DE42BF0A0526BF70D841BF1A
:10A82000563627BFDAD040BF056628BF67C73FBF8F
:10A83000159429BF1BBC3EBF82C02ABFF9AE3DBFE5
:10A840004AEB2BBF03A03CBF69142DBF3B8F3BBF1E
:10A85000DE3B2EBFA47C3ABFA5612FBF426839BF43
:10A86000BB8530BF165238BF1DA831BF233A37BF52
:10A87000C9C832BF6C2036BFBCE733BFF30435BF55
:10A88000F30435BFBCE733BF6C2036BFC9C832BF45
:10A89000233A37BF1DA831BF165238BFBB8530BF22
:10A8A000426839BFA5612FBFA47C3ABFDE3B2EBFF3
:10A8B0003B8F3BBF69142DBF03A03CBF4AEB2BBFAE
:10A8C000F9AE3DBF82C02ABF1BBC3EBF159429BF55
:10A8D00067C73FBF056628BFDAD040BF563627BFDF
:10A8E00070D841BF0A0526BF29DE42BF25D224BF4A
:10A8F00000E243BFA99D23BFF5E344BF996722BF90
:10A9000003E445BFF92F21BF2AE246BFCBF61FBFA4
:10A9100065DE47BF12BC1EBFB3D848BFD17F1DBF85
:10A9200012D149BF0C421CBF7FC74ABFC6021BBF22
:10A93000F8BB4BBF00C219BF79AE4CBFC07F18BF78
:10A94000029F4DBF073C17BF908D4EBFD9F615BF74
:10A950001F7A4FBF39B014BFAF6450BF2A6813BF0E
:10A960003D4D51BFB01E12BFC63352BFCDD310BF35
:10A97000491853BF84870FBFC3FA53BFDA390EBFDC
:10A9800031DB54BFD0EA0CBF93B955BF6B9A0BBFF4
:10A99000E59556BFAD480ABF267057BF9BF508BF67
:10A9A000534858BF36A107BF6A1E59BF824B06BF26
:10A9B0006AF259BF84F404BF50C45ABF3D9C03BF20
:10A9C0001A945BBFB14202BFC7615CBFE4E700BF3E
:10A9D000532D5DBFB217FFBEBEF65DBF275DFCBE47
:10A9E00005BE5EBF2DA0F9BE27835FBFCBE0F6BEDC
:10A9F000214660BF071FF4BEF20661BFEA5AF1BEEE
:10AA000098C561BF7994EEBE108262BFBBCBEBBE2E
:10AA10005A3C63BFB700E9BE73F463BF7533E6BE4B
:10AA200059AA64BFFA63E3BE0B5E65BF4F92E0BEF6
:10AA3000880F66BF79BEDDBECCBE66BF80E8DABED9
:10AA4000D86B67BF6B10D8BEA81668BF4136D5BE9D
:10AA50003CBF68BF095AD2BE916569BFCA7BCFBEF1
:10AA6000A7096ABF8B9BCCBE7BAB6ABF53B9C9BE7B
:10AA70000C4B6BBF29D5C6BE58E86BBF15EFC3BEE4
:10AA80005E836CBF1E07C1BE1D1C6DBF4A1DBEBECE
:10AA900093B26DBFA031BBBEBE466EBF2A44B8BEE6
:10AAA0009ED86EBFEC54B5BE30686FBFEF63B2BEC8
:10AAB00073F56FBF3A71AFBE668070BFD47CACBE19
:10AAC000080971BFC486A9BE578F71BF128FA6BE79
:10AAD000521372BFC595A3BEF89472BFE59AA0BE8B
:10AAE000471473BF789E9DBE3F9173BF86A09ABEE8
:10AAF000DD0B74BF17A197BE228474BF31A094BE32
:10AB00000BFA74BFDD9D91BE976D75BF229A8EBE04
:10AB1000C6DE75BF07958BBE974D76BF938E88BEF8
:10AB200007BA76BFCE8685BE172477BFC07D82BEAA
:10AB3000C58B77BFE1E67EBE10F177BFCCCF78BE84
:10AB4000F85378BF51B672BE7BB478BF7F9A6CBEA3
:10AB5000981279BF667C66BE4E6E79BF135C60BE8C
:10AB60009DC779BF97395ABE841E7ABF011554BE5E
:10AB700002737ABF60EE4DBE16C57ABFC2C547BE2E
:10AB8000BE147BBF379B41BEFC617BBFCF6E3BBE1B
:10AB9000CDAC7BBF984035BE31F57BBFA2102FBE38
:10ABA000283B7CBFFCDE28BEB07E7CBFB6AB22BE9D
:10ABB000C9BF7CBFDE761CBE73FE7CBF834016BE61
:10ABC000AC3A7DBFB70810BE74747DBF86CF09BE96
:10ABD000CCAB7DBF029503BEB1E07DBF73B2FABDC1
:10ABE00024137EBF7638EEBD23437EBF2EBCE1BD6D
:10ABF000B0707EBFB93DD5BDC99B7EBF36BDC8BD57
:10AC00006DC47EBFC33ABCBD9DEA7EBF80B6AFBDFA
:10AC1000580E7FBF8C30A3BD9D2F7FBF05A996BD69
:10AC20006D4E7FBF0A208ABDC76A7FBF742B7BBD74
:10AC3000AB847FBF681462BD189C7FBF2FFB48BDEB
:10AC40000FB17FBF07E02FBD8FC37FBF2CC316BDE1
:10AC500098D37FBFB949FBBC29E17FBFB00AC9BC0B
:10AC600043EC7FBFB6C996BCE6F47FBF900E49BCEB
:10AC700011FB7FBF890FC9BBC4FE7FBF00000080EE
:10AC8000000080BF890FC93BC4FE7FBF900E493CC6
:10AC900011FB7FBFB6C9963CE6F47FBFB00AC93C42
:10ACA00043EC7FBFB949FB3C29E17FBF2CC3163D74
:10ACB00098D37FBF07E02F3D8FC37FBF2FFB483D59
:10ACC0000FB17FBF6814623D189C7FBF742B7B3D22
:10ACD000AB847FBF0A208A3DC76A7FBF05A9963D26
:10ACE0006D4E7FBF8C30A33D9D2F7FBF80B6AF3DA3
:10ACF000580E7FBFC33ABC3D9DEA7EBF36BDC83DFE
:10AD00006DC47EBFB93DD53DC99B7EBF2EBCE13D24
:10AD1000B0707EBF7638EE3D23437EBF73B2FA3DFE
:10AD200024137EBF0295033EB1E07DBF86CF093E6E
:10AD3000CCAB7DBFB708103E74747DBF8340163E18
:10AD4000AC3A7DBFDE761C3E73FE7CBFB6AB223EC6
:10AD5000C9BF7CBFFCDE283EB07E7CBFA2102F3E68
:10AD6000283B7CBF9840353E31F57BBFCF6E3B3EE4
:10AD7000CDAC7BBF379B413EFC617BBFC2C5473E2C
:10AD8000BE147BBF60EE4D3E16C57ABF0115543E22
:10AD900002737ABF97395A3E841E7ABF135C603EB5
:10ADA0009DC779BF667C663E4E6E79BF7F9A6C3ECA
:10ADB000981279BF51B6723E7BB478BFCCCF783E43
:10ADC000F85378BFE1E67E3E10F177BFC07D823E4A
:10ADD000C58B77BFCE86853E172477BF938E883E7E
:10ADE00007BA76BF07958B3E974D76BF229A8E3E67
:10ADF000C6DE75BFDD9D913E976D75BF31A0943E57
:10AE00000BFA74BF17A1973E228474BF86A09A3EA6
:10AE1000DD0B74BF789E9D3E3F9173BFE59AA03EC7
:10AE2000471473BFC595A33EF89472BF128FA63E18
:10AE3000521372BFC486A93E578F71BFD47CAC3EFB
:10AE4000080971BF3A71AF3E668070BFEF63B23ED2
:10AE500073F56FBFEC54B53E30686FBF2A44B83EFF
:10AE60009ED86EBFA031BB3EBE466EBF4A1DBE3EE1
:10AE700093B26DBF1E07C13E1D1C6DBF15EFC33ED3
:10AE80005E836CBF29D5C63E58E86BBF53B9C93E37
:10AE90000C4B6BBF8B9BCC3E7BAB6ABFCA7BCF3E60
:10AEA000A7096ABF095AD23E916569BF4136D53EAE
:10AEB0003CBF68BF6B10D83EA81668BF80E8DA3E7A
:10AEC000D86B67BF79BEDD3ECCBE66BF4F92E03E19
:10AED000880F66BFFA63E33E0B5E65BF7533E63EDF
:10AEE00059AA64BFB700E93E73F463BFBBCBEB3E26
:10AEF0005A3C63BF7994EE3E108262BFEA5AF13E3B
:10AF000098C561BF071FF43EF20661BFCBE0F63E75
:10AF1000214660BF2DA0F93E27835FBF275DFC3E21
:10AF200005BE5EBFB217FF3EBEF65DBFE4E7003F61
:10AF3000532D5DBFB142023FC7615CBF3D9C033FE3
:10AF40001A945BBF84F4043F50C45ABF824B063F3F
:10AF50006AF259BF36A1073F6A1E59BF9BF5083FE9
:10AF6000534858BFAD480A3F267057BF6B9A0B3FF6
:10AF7000E59556BFD0EA0C3F93B955BFDA390E3F7D
:10AF800031DB54BF84870F3FC3FA53BFCDD3103F8B
:10AF9000491853BFB01E123FC63352BF2A68133F31
:10AFA0003D4D51BF39B0143FAF6450BFD9F6153F86
:10AFB0001F7A4FBF073C173F908D4EBFC07F183F91
:10AFC000029F4DBF00C2193F79AE4CBFC6021B3F66
:10AFD000F8BB4BBF0C421C3F7FC74ABFD17F1D3F10
:10AFE00012D149BF12BC1E3FB3D848BFCBF61F3F9A
:10AFF00065DE47BFF92F213F2AE246BF9967223F0E
:10B0000003E445BFA99D233FF5E344BF25D2243F78
:10B0100000E243BF0A05263F29DE42BF5636273FDE
:10B0200070D841BF0566283FDAD040BF1594293F4C
:10B0300067C73FBF82C02A3F1BBC3EBF4AEB2B3FC6
:10B04000F9AE3DBF69142D3F03A03CBFDE3B2E3F50
:10B050003B8F3BBFA5612F3FA47C3ABFBB85303FF0
:10B06000426839BF1DA8313F165238BFC9C8323FA8
:10B07000233A37BFBCE7333F6C2036BFF304353F7C
:10B08000F30435BF6C20363FBCE733BF233A373F6C
:10B09000C9C832BF1652383F1DA831BF4268393F78
:10B0A000BB8530BFA47C3A3FA5612FBF3B8F3B3FA0
:10B0B000DE3B2EBF03A03C3F69142DBFF9AE3D3FE0
:10B0C0004AEB2BBF1BBC3E3F82C02ABF67C73F3F36
:10B0D000159429BFDAD0403F056628BF70D8413F9C
:10B0E000563627BF29DE423F0A0526BF00E2433F0E
:10B0F00025D224BFF5E3443FA99D23BF03E4453F88
:10B10000996722BF2AE2463FF92F21BF65DE473FFC
:10B11000CBF61FBFB3D8483F12BC1EBF12D1493F68
:10B12000D17F1DBF7FC74A3F0C421CBFF8BB4B3FBE
:10B13000C6021BBF79AE4C3F00C219BF029F4D3FF4
:10B14000C07F18BF908D4E3F073C17BF1F7A4F3FFF
:10B15000D9F615BFAF64503F39B014BF3D4D513FD4
:10B160002A6813BFC633523FB01E12BF4918533F5F
:10B17000CDD310BFC3FA533F84870FBF31DB543F99
:10B18000DA390EBF93B9553FD0EA0CBFE595563F6B
:10B190006B9A0BBF2670573FAD480ABF5348583FC4
:10B1A0009BF508BF6A1E593F36A107BF6AF2593F97
:10B1B000824B06BF50C45A3F84F404BF1A945B3FCD
:10B1C0003D9C03BFC7615C3FB14202BF532D5D3F51
:10B1D000E4E700BFBEF65D3FB217FFBE05BE5E3FAF
:10B1E000275DFCBE27835F3F2DA0F9BE2146603F4F
:10B1F000CBE0F6BEF206613F071FF4BE98C5613F83
:10B20000EA5AF1BE1082623F7994EEBE5A3C633F27
:10B21000BBCBEBBE73F4633FB700E9BE59AA643FF2
:10B220007533E6BE0B5E653FFA63E3BE880F663F8B
:10B230004F92E0BECCBE663F79BEDDBED86B673FA5
:10B2400080E8DABEA816683F6B10D8BE3CBF683FE6
:10B250004136D5BE9165693F095AD2BEA7096A3FFA
:10B26000CA7BCFBE7BAB6A3F8B9BCCBE0C4B6B3F8C
:10B2700053B9C9BE58E86B3F29D5C6BE5E836C3F43
:10B2800015EFC3BE1D1C6D3F1E07C1BE93B26D3FBF
:10B290004A1DBEBEBE466E3FA031BBBE9ED86E3FAD
:10B2A0002A44B8BE30686F3FEC54B5BE73F56F3FAB
:10B2B000EF63B2BE6680703F3A71AFBE0809713F5E
:10B2C000D47CACBE578F713FC486A9BE5213723F67
:10B2D000128FA6BEF894723FC595A3BE4714733F64
:10B2E000E59AA0BE3F91733F789E9DBEDD0B743FF3
:10B2F00086A09ABE2284743F17A197BE0BFA743FB2
:10B3000031A094BE976D753FDD9D91BEC6DE753F41
:10B31000229A8EBE974D763F07958BBE07BA763F31
:10B32000938E88BE1724773FCE8685BEC58B773F28
:10B33000C07D82BE10F1773FE1E67EBEF853783FD4
:10B34000CCCF78BE7BB4783F51B672BE9812793FAD
:10B350007F9A6CBE4E6E793F667C66BE9DC7793F14
:10B36000135C60BE841E7A3F97395ABE02737A3FDF
:10B37000011554BE16C57A3F60EE4DBEBE147B3F2C
:10B38000C2C547BEFC617B3F379B41BECDAC7B3F16
:10B39000CF6E3BBE31F57B3F984035BE283B7C3FAE
:10B3A000A2102FBEB07E7C3FFCDE28BEC9BF7C3F12
:10B3B000B6AB22BE73FE7C3FDE761CBEAC3A7D3F50
:10B3C000834016BE74747D3FB70810BECCAB7D3F82
:10B3D00086CF09BEB1E07D3F029503BE24137E3FB8
:10B3E00073B2FABD23437E3F7638EEBDB0707E3F28
:10B3F0002EBCE1BDC99B7E3FB93DD5BD6DC47E3F2E
:10B4000036BDC8BD9DEA7E3FC33ABCBD580E7F3FE6
:10B4100080B6AFBD9D2F7F3F8C30A3BD6D4E7F3F6B
:10B4200005A996BDC76A7F3F0A208ABDAB847F3FCE
:10B43000742B7BBD189C7F3F681462BD0FB17F3FAA
:10B440002FFB48BD8FC37F3F07E02FBD98D37F3FC1
:10B450002CC316BD29E17F3FB949FBBC43EC7F3FBC
:10B46000B00AC9BCE6F47F3FB6C996BC11FB7F3F6A
:10B47000900E49BCC4FE7F3F890FC9BB9CB4000835
:10B48000000000243800000016790008D4B4000839
:10B4900038000024583E0000267900080000000013
:10B4A000000000000000000000000000000000009C
:10B4B000000000000000000001000000100000007B
:10B4C000000000000090D0030090D00300000000B6
:04B4D0000000000078
:040000050800029954
:00000001FF
